:100000000C945D000C947A000C947A000C947A00A5
:100010000C947A000C947A000C947A000C947A0078
:100020000C947A000C947A000C947A000C947A0068
:100030000C947A000C947A000C947A000C947A0058
:100040000C9408060C947A000C947A000C947A00B4
:100050000C947A000C947A000C947A000C947A0038
:100060000C947A000C947A00000000080002010051
:100070000003040700000000000000000102040863
:100080001020408001020408102001020408102002
:10009000040404040404040402020202020203032E
:1000A0000303030300000000250028002B000000CC
:1000B0000000240027002A001D0111241FBECFEFDD
:1000C000D8E0DEBFCDBF21E0A0E0B1E001C01D92CD
:1000D000A332B207E1F710E0CDE5D0E004C02197EC
:1000E000FE010E949207CC35D107C9F70E94F9059D
:1000F0000C94A7070C94000040E050E060E273E429
:1001000080E091E00E94680161E080E091E00E945F
:10011000A20180E091E00E946F0260E476E080E05E
:1001200090E00C947706CF92DF92EF92FF920F93BC
:100130001F9340E050E060E273E480E091E00E94B1
:10014000680140E951E060E070E080E091E00E94E9
:10015000330264E670E080E090E00E94770640E7BA
:100160005EEF6FEF7FEF80E091E00E94330264E684
:1001700070E080E090E00E94770680EAC82ED12CE3
:10018000E12CF12C00E910E020E030E040EB54E0FD
:1001900060E070E080E091E00E94340364E670E08B
:1001A00080E090E00E94770600E910E020E030E077
:1001B00040E55BEF6FEF7FEF80E091E00E9434035A
:1001C00064E670E080E090E00E94770640E050E056
:1001D00068E473E480E091E00E94680198E2C92E2F
:1001E000D12CE12CF12C00E210E020E030E040E9DD
:1001F00051E060E070E080E091E00E94340364E64A
:1002000070E080E090E00E94770600E210E020E0DD
:1002100030E040E75EEF6FEF7FEF80E091E00E941B
:10022000340368EC70E080E090E01F910F91FF9044
:10023000EF90DF90CF900C947706EF92FF920F93A0
:100240001F9387E0E82EF12C06E010E020E030E07C
:1002500040E150E068EC70E080E091E00E94350100
:100260001F910F91FF90EF900895EF92FF920F93DF
:100270001F93FC01822F718360835383428340E18B
:1002800057E260E070E0448355836683778310868D
:100290001186128613861486158616861786108A8E
:1002A000118A128A138A248B358B068B178BE08E6A
:1002B000F18E61E00E94030761E0802F0E94030736
:1002C00061E08E2D1F910F91FF90EF900C9403072A
:1002D000CF92DF92EF92FF92CF93DF93EC016A010E
:1002E0007B0168817981072E000C880B990B0E9495
:1002F000FF04A70196010E948B056B017C016A81B6
:100300007B81072E000C880B990B0E94FF049B0138
:10031000AC01C701B6010E948B059B01AC0160ECEA
:1003200071EE84E69CE40E945C040E94CE046C831F
:100330007D838E839F83DF91CF91FF90EF90DF903D
:10034000CF900895662311F060E001C061E0FC01E8
:1003500084890C943F0777FF02C061E001C060E030
:10036000FC0186890C943F070F931F93CF93DF9373
:10037000EC01088519852A853B85DB01CA01B69504
:10038000A79597958795800F911FA21FB31F8C8704
:100390009D87AE87BF87400F511F621F731F488B19
:1003A000598B6A8B7B8B80179107A207B307E8F004
:1003B0000E9452060C851D852E853F8560177107AA
:1003C00082079307A8F360E0888D0E943F07488961
:1003D00059896A897B8988859985AA85BB8548174B
:1003E00059076A077B0768F422C00E9452060C85F1
:1003F0001D852E853F856017710782079307ACF333
:10040000E2CF0E945206088919892A893B89601720
:10041000710782079307A8F30E94520668877987BD
:100420008A879B87DF91CF911F910F9108950E943A
:100430005206088919892A893B8960177107820742
:100440009307ACF3E9CFCF93DF93EC0161E0888DA4
:100450000E943F074C815D816E817F81CE01DF91DB
:10046000CF910C94B401CF92DF92EF92FF92CF9391
:10047000DF93EC01AA81BB819A01AB010E948A073C
:100480006B017C01AB01BC01CE010E94AB010E945B
:100490005206688779878A879B87C601D701B7FF8D
:1004A00007C0B095A095909581959F4FAF4FBF4FD6
:1004B0006C017D01C114D104E104F10449F0CE01C5
:1004C0000E94230281E0C81AD108E108F108F2CFA6
:1004D000DF91CF91FF90EF90DF90CF900895CF9272
:1004E000DF92EF92FF92CF93DF93EC01CC80DD801F
:1004F000EE80FF80D701C60123E0880F991FAA1F55
:10050000BB1F2A95D1F78C839D83AE83BF8344E0C4
:1005100050E060E070E0CE010E94330268EC70E0D1
:1005200080E090E00E9477064CEF5FEF6FEF7FEF87
:10053000CE010E94330268EC70E080E090E00E94FF
:100540007706CC82DD82EE82FF82DF91CF91FF9031
:10055000EF90DF90CF9008954F925F926F927F92CD
:100560008F929F92AF92BF92CF92DF92EF92FF92C3
:10057000CF93DF93EC016B017A0161E0888D0E94DB
:100580003F07B601DD0C880B990B0E94FF044B015D
:100590005C01B701FF0C880B990B0E94FF049B01C3
:1005A000AC01C501B4010E945C046B017C016C814B
:1005B0007D818E819F810E94FD044B015C012DECA9
:1005C0003CEC4CE45EE3C701B6010E948B052DECC8
:1005D0003CEC4CEC5DE30E94F0032B013C012DEC64
:1005E0003CEC4CE050E4C701B6010E948B05A7012A
:1005F00096010E948B059B01AC01C301B2010E94D0
:10060000F0032B013C0120E030E040EC5FE3C70148
:10061000B6010E948B05A70196010E948B05A701D8
:1006200096010E948B059B01AC01C301B2010E949F
:10063000EF039B01AC01C501B4010E945C040E9460
:10064000CE04AB01BC01CE01DF91CF91FF90EF90C2
:10065000DF90CF90BF90AF909F908F907F906F90E2
:100660005F904F900C94B4012F923F924F925F9203
:100670006F927F928F929F92AF92BF92CF92DF92B2
:10068000EF92FF920F931F93CF93DF93EC01CB0177
:10069000BA01280139018A809B80092C000CAA0824
:1006A000BB08A50194010E946F071B018C01C301C7
:1006B000B2010E946F072B013C01C701B6010E94E5
:1006C0006F076B017C01A101B801CE010E94AB0153
:1006D0000E945206688779878A879B8714141504BD
:1006E000160417045CF1C101D801B7FF07C0B0952B
:1006F000A095909581959F4FAF4FBF4F77FE08C053
:100700007094609450944094411C511C611C711C65
:1007100084199509A609B709B701A601F7FE07C014
:1007200044275527BA014C195D096E097F094C0110
:100730005D01841A950AA60AB70A14C0812C912C6F
:1007400054018394A201B401CE010E94AC028FEF48
:10075000881A980AA80AB80A481459046A047B043B
:100760008CF7C1CF181419041A041B044CF4CE01E1
:100770000E94230281E0881A9108A108B108F2CFF3
:100780001C141D041E041F04BCF44601570181E023
:10079000881A9108A108B108A601B401CE010E94EF
:1007A000AC0281E0881A9108A108B1088FEF881681
:1007B0009806A806B80681F7DF91CF911F910F9197
:1007C000FF90EF90DF90CF90BF90AF909F908F9071
:1007D0007F906F905F904F903F902F90089550586A
:1007E000BB27AA270E9407040C9451050E944305C9
:1007F00038F00E944A0520F039F49F3F19F426F49E
:100800000C9440050EF4E095E7FB0C943A05E92FB3
:100810000E94620558F3BA176207730784079507A9
:1008200020F079F4A6F50C9484050EF4E0950B2ED7
:10083000BA2FA02D0B01B90190010C01CA01A00132
:100840001124FF27591B99F0593F50F4503E68F18D
:100850001A16F040A22F232F342F4427585FF3CFCE
:10086000469537952795A795F0405395C9F77EF49F
:100870001F16BA0B620B730B840BBAF09150A1F0E8
:10088000FF0FBB1F661F771F881FC2F70EC0BA0F6E
:10089000621F731F841F48F4879577956795B795F6
:1008A000F7959E3F08F0B0CF9395880F08F09927F1
:1008B000EE0F9795879508950E9470040C9451054A
:1008C0000E944A0558F00E94430540F029F45F3F1A
:1008D00029F00C943A0551110C9485050C944005AF
:1008E0000E94620568F39923B1F3552391F3951B98
:1008F000550BBB27AA2762177307840738F09F5F41
:100900005F4F220F331F441FAA1FA9F335D00E2EAD
:100910003AF0E0E832D091505040E695001CCAF71A
:100920002BD0FE2F29D0660F771F881FBB1F2617DD
:1009300037074807AB07B0E809F0BB0B802DBF01B4
:10094000FF2793585F4F3AF09E3F510578F00C9483
:100950003A050C9485055F3FE4F3983ED4F3869501
:1009600077956795B795F7959F5FC9F7880F911DA4
:100970009695879597F90895E1E0660F771F881F90
:10098000BB1F621773078407BA0720F0621B730B43
:10099000840BBA0BEE1F88F7E09508950E946A0554
:1009A00088F09F5798F0B92F9927B751B0F0E1F030
:1009B000660F771F881F991F1AF0BA95C9F714C0E0
:1009C000B13091F00E948405B1E008950C94840543
:1009D000672F782F8827B85F39F0B93FCCF3869519
:1009E00077956795B395D9F73EF490958095709576
:1009F00061957F4F8F4F9F4F0895E89409C097FBF3
:100A00003EF490958095709561957F4F8F4F9F4FE5
:100A10009923A9F0F92F96E9BB279395F695879529
:100A200077956795B795F111F8CFFAF4BB0F11F4EC
:100A300060FF1BC06F5F7F4F8F4F9F4F16C0882393
:100A400011F096E911C0772321F09EE8872F762FC9
:100A500005C0662371F096E8862F70E060E02AF00A
:100A60009A95660F771F881FDAF7880F96958795F6
:100A700097F9089597F99F6780E870E060E008951E
:100A80009FEF80EC089500240A94161617061806A6
:100A90000906089500240A94121613061406050682
:100AA0000895092E0394000C11F4882352F0BB0F13
:100AB00040F4BF2B11F460FF04C06F5F7F4F8F4F76
:100AC0009F4F089557FD9058440F551F59F05F3FB1
:100AD00071F04795880F97FB991F61F09F3F79F060
:100AE00087950895121613061406551FF2CF4695E2
:100AF000F1DF08C0161617061806991FF1CF869564
:100B00007105610508940895E894BB276627772747
:100B1000CB0197F908950E949E050C9451050E94FF
:100B2000430538F00E944A0520F0952311F00C94FB
:100B30003A050C94400511240C9485050E94620529
:100B400070F3959FC1F3950F50E0551F629FF00120
:100B5000729FBB27F00DB11D639FAA27F00DB11D39
:100B6000AA1F649F6627B00DA11D661F829F2227C2
:100B7000B00DA11D621F739FB00DA11D621F839F49
:100B8000A00D611D221F749F3327A00D611D231F1F
:100B9000849F600D211D822F762F6A2F11249F576D
:100BA00050409AF0F1F088234AF0EE0FFF1FBB1F70
:100BB000661F771F881F91505040A9F79E3F51052F
:100BC00080F00C943A050C9485055F3FE4F3983E61
:100BD000D4F3869577956795B795F795E7959F5FD9
:100BE000C1F7FE2B880F911D9695879597F908956B
:100BF00008950E949F060E94F8050E947C00C0E0B4
:100C0000D0E00E9493002097E1F30E940000F9CF0A
:100C10001F920F920FB60F9211242F933F938F9331
:100C20009F93AF93BF9380911B0190911C01A09162
:100C30001D01B0911E0130911A0123E0230F2D37C1
:100C400020F40196A11DB11D05C026E8230F0296D0
:100C5000A11DB11D20931A0180931B0190931C01CB
:100C6000A0931D01B0931E0180911F01909120015E
:100C7000A0912101B09122010196A11DB11D809387
:100C80001F0190932001A0932101B0932201BF91F5
:100C9000AF919F918F913F912F910F900FBE0F9029
:100CA0001F9018953FB7F89480911F0190912001F3
:100CB000A0912101B091220126B5A89B05C02F3F2C
:100CC00019F00196A11DB11D3FBFBA2FA92F982F72
:100CD0008827820F911DA11DB11DBC01CD0142E0ED
:100CE000660F771F881F991F4A95D1F70895CF92F5
:100CF000DF92EF92FF92CF93DF936B017C010E9412
:100D00005206EB01C114D104E104F10489F00E9400
:100D10006E070E9452066C1B7D0B683E734090F379
:100D200081E0C81AD108E108F108C851DC4FEACFC8
:100D3000DF91CF91FF90EF90DF90CF90089578945E
:100D400084B5826084BD84B5816084BD85B58260D0
:100D500085BD85B5816085BDEEE6F0E0808181606E
:100D60008083E1E8F0E0108280818260808380816E
:100D700081608083E0E8F0E0808181608083E1EB46
:100D8000F0E0808184608083E0EBF0E0808181602E
:100D90008083EAE7F0E080818460808380818260E4
:100DA00080838081816080838081806880831092CD
:100DB000C1000895833081F028F4813099F08230A9
:100DC000A1F008958730A9F08830B9F08430D1F4CB
:100DD000809180008F7D03C0809180008F77809309
:100DE0008000089584B58F7702C084B58F7D84BD5F
:100DF00008958091B0008F7703C08091B0008F7DFF
:100E00008093B0000895CF93DF9390E0FC01E45805
:100E1000FF4F2491FC01E057FF4F8491882361F13B
:100E200090E0880F991FFC01E255FF4FC591D491C6
:100E3000FC01EC55FF4FA591B491611109C09FB71A
:100E4000F8948881209582238883EC912E230BC00F
:100E5000623061F49FB7F8948881322F30958323F4
:100E60008883EC912E2B2C939FBF06C08FB7F894EC
:100E7000E8812E2B28838FBFDF91CF9108951F9398
:100E8000CF93DF93282F30E0F901E859FF4F849189
:100E9000F901E458FF4FD491F901E057FF4FC49195
:100EA000CC23C1F0162F81110E94DA06EC2FF0E05E
:100EB000EE0FFF1FEC55FF4FA591B4919FB7F8942B
:100EC000111104C08C91D095D82302C0EC91DE2B77
:100ED000DC939FBFDF91CF911F9108950895DB01AF
:100EE0008F939F930E947F07BF91AF91A29F800D28
:100EF000911DA39F900DB29F900D112408950E9403
:100F00009807A59F900DB49F900DA49F800D911DF3
:100F100011240895B7FF0C947F070E947F07821B5E
:100F2000930B0895EE0FFF1F0590F491E02D0994A7
:100F3000A29FB001B39FC001A39F700D811D11241A
:100F4000911DB29F700D811D1124911D0895F8947B
:020F5000FFCFD1
:00000001FF
