S01100006D6F76655F746573742E737265633D
S11300000C945D000C9485000C9485000C94850080
S11300100C9485000C9485000C9485000C94850048
S11300200C9485000C9485000C9485000C94850038
S11300300C9485000C9485000C9485000C94850028
S11300400C941C060C9485000C9485000C9485007B
S11300500C9485000C9485000C9485000C94850008
S11300600C9485000C948500000000080002010037
S1130070000304070000000000000000010204085F
S113008010204080010204081020010204081020FE
S1130090040404040404040402020202020203032A
S11300A00303030300000000250028002B000000C8
S11300B00000240027002A00280111241FBECFEFCE
S11300C0D8E0DEBFCDBF11E0A0E0B1E0EAE7FFE099
S11300D002C005900D92AA30B107D9F721E0AAE039
S11300E0B1E001C01D92AD32B207E1F710E0CDE5F9
S11300F0D0E004C02197FE010E94A607CC35D107A9
S1130100C9F70E940D060C94BB070C94000040E054
S113011050E060E273E48AE091E00E947C0161E0D7
S11301208AE091E00E94B6018AE091E00E94830295
S113013060E476E080E090E00C948B06CF92DF924E
S1130140EF92FF920F931F9340E050E060E273E45C
S11301508AE091E00E947C0140E951E060E070E0B7
S11301608AE091E00E94470264E670E080E090E05B
S11301700E948B0640E75EEF6FEF7FEF8AE091E02D
S11301800E94470264E670E080E090E00E948B06E3
S113019080EAC82ED12CE12CF12C00E910E020E0FB
S11301A030E040EB54E060E070E08AE091E00E94CF
S11301B0480364E670E080E090E00E948B0600E96A
S11301C010E020E030E040E55BEF6FEF7FEF8AE086
S11301D091E00E94480364E670E080E090E00E94B1
S11301E08B0640E050E068E473E48AE091E00E940A
S11301F07C0198E2C92ED12CE12CF12C00E210E014
S113020020E030E040E951E060E070E08AE091E015
S11302100E94480364E670E080E090E00E948B0650
S113022000E210E020E030E040E75EEF6FEF7FEFA8
S11302308AE091E00E94480368EC70E080E090E07E
S11302401F910F91FF90EF90DF90CF900C948B064D
S1130250EF92FF920F931F93E0900001F090010141
S113026000910201109103012091040130910501D4
S113027040910601509107016091080170910901B4
S11302808AE091E00E9449011F910F91FF90EF9045
S11302900895EF92FF920F931F93FC01822F7183B5
S11302A060835383428340E157E260E070E044831B
S11302B05583668377831086118612861386148687
S11302C0158616861786108A118A128A138A248B39
S11302D0358B068B178BE08EF18E61E00E94170739
S11302E061E0802F0E94170761E08E2D1F910F910E
S11302F0FF90EF900C941707CF92DF92EF92FF924A
S1130300CF93DF93EC016A017B0168817981072E29
S1130310000C880B990B0E941305A70196010E94FB
S11303209F056B017C016A817B81072E000C880B81
S1130330990B0E9413059B01AC01C701B6010E94F1
S11303409F059B01AC0160EC71EE84E69CE40E9485
S113035070040E94E2046C837D838E839F83DF910B
S1130360CF91FF90EF90DF90CF900895662311F026
S113037060E001C061E0FC0184890C94530777FFBD
S113038002C061E001C060E0FC0186890C9453075F
S11303900F931F93CF93DF93EC01088519852A856A
S11303A03B85DB01CA01B695A79597958795800F84
S11303B0911FA21FB31F8C879D87AE87BF87400FF5
S11303C0511F621F731F488B598B6A8B7B8B80175D
S11303D09107A207B307E8F00E9466060C851D8505
S11303E02E853F856017710782079307A8F360E0A5
S11303F0888D0E945307488959896A897B89888531
S11304009985AA85BB85481759076A077B0768F44D
S113041022C00E9466060C851D852E853F856017C7
S1130420710782079307ACF3E2CF0E94660608893E
S113043019892A893B896017710782079307A8F3F2
S11304400E946606688779878A879B87DF91CF91A8
S11304501F910F9108950E946606088919892A89B7
S11304603B896017710782079307ACF3E9CFCF93F9
S1130470DF93EC0161E0888D0E9453074C815D811C
S11304806E817F81CE01DF91CF910C94C801CF9210
S1130490DF92EF92FF92CF93DF93EC01AA81BB81AD
S11304A09A01AB010E949E076B017C01AB01BC0168
S11304B0CE010E94BF010E946606688779878A87F9
S11304C09B87C601D701B7FF07C0B095A09590954B
S11304D081959F4FAF4FBF4F6C017D01C114D10473
S11304E0E104F10449F0CE010E94370281E0C81A08
S11304F0D108E108F108F2CFDF91CF91FF90EF909E
S1130500DF90CF900895CF92DF92EF92FF92CF9336
S1130510DF93EC01CC80DD80EE80FF80D701C60143
S113052023E0880F991FAA1FBB1F2A95D1F78C833C
S11305309D83AE83BF8344E050E060E070E0CE0171
S11305400E94470268EC70E080E090E00E948B0615
S11305504CEF5FEF6FEF7FEFCE010E94470268EC34
S113056070E080E090E00E948B06CC82DD82EE8217
S1130570FF82DF91CF91FF90EF90DF90CF900895AD
S11305804F925F926F927F928F929F92AF92BF929F
S1130590CF92DF92EF92FF92CF93DF93EC016B0146
S11305A07A0161E0888D0E945307B601DD0C880B47
S11305B0990B0E9413054B015C01B701FF0C880BDA
S11305C0990B0E9413059B01AC01C501B4010E9463
S11305D070046B017C016C817D818E819F810E94FE
S11305E011054B015C012DEC3CEC4CE45EE3C701CE
S11305F0B6010E949F052DEC3CEC4CEC5DE30E949F
S113060004042B013C012DEC3CEC4CE050E4C7010C
S1130610B6010E949F05A70196010E949F059B01B8
S1130620AC01C301B2010E9404042B013C0120E08F
S113063030E040EC5FE3C701B6010E949F05A701CB
S113064096010E949F05A70196010E949F059B01A8
S1130650AC01C301B2010E9403049B01AC01C501BA
S1130660B4010E9470040E94E204AB01BC01CE01FB
S1130670DF91CF91FF90EF90DF90CF90BF90AF903C
S11306809F908F907F906F905F904F900C94C801D3
S11306902F923F924F925F926F927F928F929F928E
S11306A0AF92BF92CF92DF92EF92FF920F931F937C
S11306B0CF93DF93EC01CB01BA01280139018A8081
S11306C09B80092C000CAA08BB08A50194010E9478
S11306D083071B018C01C301B2010E9483072B0114
S11306E03C01C701B6010E9483076B017C01A10193
S11306F0B801CE010E94BF010E946606688779870F
S11307008A879B8714141504160417045CF1C1012D
S1130710D801B7FF07C0B095A095909581959F4FDC
S1130720AF4FBF4F77FE08C07094609450944094CC
S1130730411C511C611C711C84199509A609B70937
S1130740B701A601F7FE07C044275527BA014C1983
S11307505D096E097F094C015D01841A950AA60A98
S1130760B70A14C0812C912C54018394A201B401C2
S1130770CE010E94C0028FEF881A980AA80AB80A0C
S1130780481459046A047B048CF7C1CF1814190463
S11307901A041B044CF4CE010E94370281E0881A2B
S11307A09108A108B108F2CF1C141D041E041F04F3
S11307B0BCF44601570181E0881A9108A108B108E8
S11307C0A601B401CE010E94C00281E0881A9108FA
S11307D0A108B1088FEF88169806A806B80681F715
S11307E0DF91CF911F910F91FF90EF90DF90CF9009
S11307F0BF90AF909F908F907F906F905F904F903D
S11308003F902F9008955058BB27AA270E941B049D
S11308100C9465050E94570538F00E945E0520F08F
S113082039F49F3F19F426F40C9454050EF4E09522
S1130830E7FB0C944E05E92F0E94760558F3BA178E
S1130840620773078407950720F079F4A6F50C94E2
S113085098050EF4E0950B2EBA2FA02D0B01B901CB
S113086090010C01CA01A0011124FF27591B99F022
S1130870593F50F4503E68F11A16F040A22F232F2E
S1130880342F4427585FF3CF469537952795A7957E
S1130890F0405395C9F77EF41F16BA0B620B730B25
S11308A0840BBAF09150A1F0FF0FBB1F661F771F96
S11308B0881FC2F70EC0BA0F621F731F841F48F44B
S11308C0879577956795B795F7959E3F08F0B0CFD4
S11308D09395880F08F09927EE0F979587950895BB
S11308E00E9484040C9465050E945E0558F00E94E1
S11308F0570540F029F45F3F29F00C944E0551113F
S11309000C9499050C9454050E94760568F3992378
S1130910B1F3552391F3951B550BBB27AA276217F7
S11309207307840738F09F5F5F4F220F331F441F04
S1130930AA1FA9F335D00E2E3AF0E0E832D0915038
S11309405040E695001CCAF72BD0FE2F29D0660F25
S1130950771F881FBB1F261737074807AB07B0E868
S113096009F0BB0B802DBF01FF2793585F4F3AF06E
S11309709E3F510578F00C944E050C9499055F3F09
S1130980E4F3983ED4F3869577956795B795F795F4
S11309909F5FC9F7880F911D9695879597F90895DC
S11309A0E1E0660F771F881FBB1F62177307840778
S11309B0BA0720F0621B730B840BBA0BEE1F88F787
S11309C0E09508950E947E0588F09F5798F0B92F0E
S11309D09927B751B0F0E1F0660F771F881F991F70
S11309E01AF0BA95C9F714C0B13091F00E94980575
S11309F0B1E008950C949805672F782F8827B85F85
S1130A0039F0B93FCCF3869577956795B395D9F7C7
S1130A103EF490958095709561957F4F8F4F9F4FD1
S1130A200895E89409C097FB3EF4909580957095DD
S1130A3061957F4F8F4F9F4F9923A9F0F92F96E926
S1130A40BB279395F695879577956795B795F1119B
S1130A50F8CFFAF4BB0F11F460FF1BC06F5F7F4F38
S1130A608F4F9F4F16C0882311F096E911C077234A
S1130A7021F09EE8872F762F05C0662371F096E853
S1130A80862F70E060E02AF09A95660F771F881F22
S1130A90DAF7880F9695879597F9089597F99F67E0
S1130AA080E870E060E008959FEF80EC08950024F2
S1130AB00A941616170618060906089500240A94BF
S1130AC012161306140605060895092E0394000C45
S1130AD011F4882352F0BB0F40F4BF2B11F460FFD4
S1130AE004C06F5F7F4F8F4F9F4F089557FD9058FD
S1130AF0440F551F59F05F3F71F04795880F97FBDE
S1130B00991F61F09F3F79F0879508951216130697
S1130B101406551FF2CF4695F1DF08C016161706C6
S1130B201806991FF1CF86957105610508940895FB
S1130B30E894BB2766277727CB0197F908950E948D
S1130B40B2050C9465050E94570538F00E945E05B5
S1130B5020F0952311F00C944E050C9454051124A7
S1130B600C9499050E94760570F3959FC1F3950F37
S1130B7050E0551F629FF001729FBB27F00DB11D1D
S1130B80639FAA27F00DB11DAA1F649F6627B00DAD
S1130B90A11D661F829F2227B00DA11D621F739F96
S1130BA0B00DA11D621F839FA00D611D221F749FA4
S1130BB03327A00D611D231F849F600D211D822FEB
S1130BC0762F6A2F11249F5750409AF0F1F0882312
S1130BD04AF0EE0FFF1FBB1F661F771F881F91503F
S1130BE05040A9F79E3F510580F00C944E050C949B
S1130BF099055F3FE4F3983ED4F38695779567951E
S1130C00B795F795E7959F5FC1F7FE2B880F911D68
S1130C109695879597F9089508950E94B3060E94C2
S1130C200C060E948700C0E0D0E00E949E0020973E
S1130C30E1F30E940000F9CF1F920F920FB60F92BA
S1130C4011242F933F938F939F93AF93BF938091DE
S1130C50250190912601A0912701B091280130919E
S1130C60240123E0230F2D3720F40196A11DB11D8B
S1130C7005C026E8230F0296A11DB11D209324016F
S1130C808093250190932601A0932701B093280116
S1130C908091290190912A01A0912B01B0912C01FE
S1130CA00196A11DB11D8093290190932A01A0935F
S1130CB02B01B0932C01BF91AF919F918F913F91E4
S1130CC02F910F900FBE0F901F9018953FB7F89477
S1130CD08091290190912A01A0912B01B0912C01BE
S1130CE026B5A89B05C02F3F19F00196A11DB11D83
S1130CF03FBFBA2FA92F982F8827820F911DA11DBE
S1130D00B11DBC01CD0142E0660F771F881F991FFA
S1130D104A95D1F70895CF92DF92EF92FF92CF9345
S1130D20DF936B017C010E946606EB01C114D104C0
S1130D30E104F10489F00E9482070E9466066C1B9C
S1130D407D0B683E734090F381E0C81AD108E10836
S1130D50F108C851DC4FEACFDF91CF91FF90EF90BB
S1130D60DF90CF900895789484B5826084BD84B573
S1130D70816084BD85B5826085BD85B5816085BD92
S1130D80EEE6F0E0808181608083E1E8F0E01082AB
S1130D90808182608083808181608083E0E8F0E0EC
S1130DA0808181608083E1EBF0E0808184608083D6
S1130DB0E0EBF0E0808181608083EAE7F0E080810D
S1130DC0846080838081826080838081816080836D
S1130DD08081806880831092C1000895833081F0FF
S1130DE028F4813099F08230A1F008958730A9F079
S1130DF08830B9F08430D1F4809180008F7D03C0B5
S1130E00809180008F7780938000089584B58F77D8
S1130E1002C084B58F7D84BD08958091B0008F7722
S1130E2003C08091B0008F7D8093B0000895CF936C
S1130E30DF9390E0FC01E458FF4F2491FC01E0575C
S1130E40FF4F8491882361F190E0880F991FFC0182
S1130E50E255FF4FC591D491FC01EC55FF4FA5918C
S1130E60B491611109C09FB7F894888120958223B9
S1130E708883EC912E230BC0623061F49FB7F89401
S1130E808881322F309583238883EC912E2B2C93E9
S1130E909FBF06C08FB7F894E8812E2B28838FBF9D
S1130EA0DF91CF9108951F93CF93DF93282F30E0E4
S1130EB0F901E859FF4F8491F901E458FF4FD491A7
S1130EC0F901E057FF4FC491CC23C1F0162F8111D3
S1130ED00E94EE06EC2FF0E0EE0FFF1FEC55FF4FE3
S1130EE0A591B4919FB7F894111104C08C91D09539
S1130EF0D82302C0EC91DE2BDC939FBFDF91CF910E
S1130F001F9108950895DB018F939F930E94930787
S1130F10BF91AF91A29F800D911DA39F900DB29F91
S1130F20900D112408950E94AC07A59F900DB49FC5
S1130F30900DA49F800D911D11240895B7FF0C946A
S1130F4093070E949307821B930B0895EE0FFF1FD4
S1130F500590F491E02D0994A29FB001B39FC001C4
S1130F60A39F700D811D1124911DB29F700D811DD1
S10D0F701124911D0895F894FFCF99
S10D0F7A0700060005001000C8007F
S9030000FC
