:100000000C94D4090C948A230C94B1230C94FC090D
:100010000C94FC090C94FC090C94FC090C94FC094C
:100020000C94FC090C94FC090C94FC090C94FC093C
:100030000C94FC090C94FC090C94FC090C94FC092C
:100040000C94D8230C94FC090C9462200C949420FA
:100050000C94FC090C94FC090C94FC090C94FC090C
:100060000C94CD190C94FC09084AD73B3BCE016E89
:1000700084BCBFFDC12F3D6C74319ABD56833DDAFF
:100080003D00C77F11BED9E4BB4C3E916BAAAABE0E
:10009000000000803F004649464F206F766572663B
:1000A0006C6F7721002900444D5020496E697469B6
:1000B000616C697A6174696F6E206661696C6564F0
:1000C0002028636F64652000444D50207265616490
:1000D00079212057616974696E6720666F722066A6
:1000E0006972737420696E746572727570742E2EE5
:1000F0002E00456E61626C696E6720696E74657270
:100100007275707420646574656374696F6E2028FD
:1001100041726475696E6F2065787465726E616C8A
:1001200020696E746572727570742030292E2E2EBF
:1001300000456E61626C696E6720444D502E2E2E14
:1001400000496E697469616C697A696E6720444D13
:10015000502E2E2E000A53656E6420616E79206346
:10016000686172616374657220746F20626567698B
:100170006E20444D502070726F6772616D6D696EB4
:100180006720616E642064656D6F3A20004D5055A4
:100190003630353020636F6E6E656374696F6E2024
:1001A0006661696C6564004D5055363035302063AA
:1001B0006F6E6E656374696F6E20737563636573CC
:1001C0007366756C0054657374696E672064657638
:1001D00069636520636F6E6E656374696F6E732EFD
:1001E0002E2E00496E697469616C697A696E6720A8
:1001F00049324320646576696365732E2E2E00456F
:1002000052524F522120444D5020636F6465207636
:100210006572696669636174696F6E206661696C95
:1002200065642E004552524F522120444D502063A8
:100230006F6E66696775726174696F6E207665723C
:10024000696669636174696F6E206661696C656473
:100250002E00526573657474696E67204649464F77
:1002600020616E6420636C656172696E6720494E1F
:100270005420737461747573206F6E65206C6173A4
:10028000742074696D652E2E2E0053657474696E2A
:100290006720757020696E7465726E616C203432EF
:1002A0002D62797465202864656661756C742920F7
:1002B000444D50207061636B65742062756666659D
:1002C000722E2E2E0044697361626C696E67204441
:1002D0004D502028796F75207475726E20697420D6
:1002E0006F6E206C61746572292E2E2E00444D5065
:1002F00020697320676F6F6420746F20676F2120FF
:1003000046696E616C6C792E0057726974696E670C
:100310002066696E616C206D656D6F7279207570F5
:100320006461746520372F37202866756E637469A1
:100330006F6E20756E6B6E6F776E292E2E2E0043BA
:10034000757272656E7420696E7465727275707400
:10035000207374617475733D0052656164696E67E2
:1003600020696E746572727570742073746174752F
:10037000732E2E2E0052656164696E6720464946D1
:100380004F20646174612E2E2E0043757272656E6B
:1003900074204649464F20636F756E743D00576167
:1003A0006974696E6720666F72204649464F206304
:1003B0006F756E74203E20322E2E2E0052656164C1
:1003C000696E672066696E616C206D656D6F72790C
:1003D0002075706461746520362F37202866756E2D
:1003E0006374696F6E20756E6B6E6F776E292E2E3B
:1003F0002E0043757272656E7420696E7465727238
:10040000757074207374617475733D005265616416
:10041000696E6720696E746572727570742073748A
:10042000617475732E2E2E0052656164696E6720AB
:100430004649464F20646174612E2E2E004375722A
:1004400072656E74204649464F20636F756E743D29
:100450000057616974696E6720666F72204649466D
:100460004F20636F756E74203E20322E2E2E005763
:10047000726974696E672066696E616C206D656D66
:100480006F72792075706461746520352F3720286C
:1004900066756E6374696F6E20756E6B6E6F776EC6
:1004A000292E2E2E0057726974696E672066696E58
:1004B000616C206D656D6F72792075706461746513
:1004C00020342F37202866756E6374696F6E20752F
:1004D0006E6B6E6F776E292E2E2E005772697469BF
:1004E0006E672066696E616C206D656D6F72792034
:1004F00075706461746520332F37202866756E63CC
:1005000074696F6E20756E6B6E6F776E292E2E2E4E
:1005100000526573657474696E6720444D502E2EC9
:100520002E00456E61626C696E6720444D502E2E20
:100530002E00456E61626C696E67204649464F2EFB
:100540002E2E00526573657474696E6720464946A5
:100550004F2E2E2E0053657474696E67207A657273
:100560006F2D6D6F74696F6E206465746563746957
:100570006F6E206475726174696F6E20746F2030C5
:100580002E2E2E0053657474696E67206D6F74692A
:100590006F6E20646574656374696F6E2064757234
:1005A0006174696F6E20746F2038302E2E2E0053C8
:1005B000657474696E67207A65726F2D6D6F7469EA
:1005C0006F6E20646574656374696F6E2074687201
:1005D0006573686F6C6420746F203135362E2E2E53
:1005E0000053657474696E67206D6F74696F6E2057
:1005F000646574656374696F6E207468726573688E
:100600006F6C6420746F20322E2E2E004375727230
:10061000656E74204649464F20636F756E743D00C9
:1006200052656164696E67204649464F20636F7565
:100630006E742E2E2E00526573657474696E672079
:100640004649464F2E2E2E0057726974696E6720F8
:1006500066696E616C206D656D6F7279207570646E
:1006600061746520322F37202866756E6374696F58
:100670006E20756E6B6E6F776E292E2E2E00577260
:100680006974696E672066696E616C206D656D6F57
:1006900072792075706461746520312F3720286667
:1006A000756E6374696F6E20756E6B6E6F776E29F1
:1006B0002E2E2E0053657474696E6720582F592FA3
:1006C0005A206779726F206F666673657420544391
:1006D0007320746F2070726576696F757320766110
:1006E0006C7565732E2E2E00436C656172696E67A2
:1006F000204F54502042616E6B20666C61672E2E35
:100700002E0053657474696E6720444D5020636FEA
:100710006E66696775726174696F6E20627974655F
:1007200073202866756E6374696F6E20756E6B6ECC
:100730006F776E292E2E2E0053657474696E6720B4
:100740006779726F2073656E7369746976697479FD
:1007500020746F202B2F2D203230303020646567BD
:100760002F7365632E2E2E0053657474696E672097
:10077000444C50462062616E6477696474682074EA
:100780006F203432487A2E2E2E0053657474696EB1
:10079000672065787465726E616C206672616D6544
:1007A0002073796E6320746F2054454D505F4F5510
:1007B000545F4C5B305D2E2E2E0053657474696E51
:1007C000672073616D706C65207261746520746F51
:1007D00020323030487A2E2E2E0053657474696EA4
:1007E0006720444D5020616E64204649464F5F4F5C
:1007F000464C4F5720696E74657272757074732021
:10080000656E61626C65642E2E2E0053657474698A
:100810006E6720636C6F636B20736F757263652006
:10082000746F205A204779726F2E2E2E00537563F5
:10083000636573732120444D5020636F6E66696752
:1008400075726174696F6E207772697474656E2059
:10085000616E642076657269666965642E00206247
:100860007974657320696E20636F6E6669672064B2
:100870006566290057726974696E6720444D50207F
:10088000636F6E66696775726174696F6E20746FED
:10089000204D5055206D656D6F72792062616E6BD1
:1008A00073202800537563636573732120444D5092
:1008B00020636F6465207772697474656E20616E61
:1008C000642076657269666965642E0020627974B9
:1008D0006573290057726974696E6720444D502012
:1008E000636F646520746F204D5055206D656D6F8A
:1008F00072792062616E6B73202800526573657493
:1009000074696E6720493243204D617374657220AB
:10091000636F6E74726F6C2E2E2E00536574746943
:100920006E6720736C617665203020616464726547
:10093000737320746F2030783638202873656C66A6
:10094000292E2E2E0044697361626C696E672049FE
:100950003243204D6173746572206D6F64652E2E75
:100960002E0053657474696E6720736C6176652020
:1009700030206164647265737320746F203078373F
:10098000462E2E2E005A206779726F206F6666738E
:100990006574203D200059206779726F206F66666C
:1009A000736574203D200058206779726F206F6650
:1009B00066736574203D200052656164696E67202E
:1009C0006779726F206F6666736574205443207672
:1009D000616C7565732E2E2E00696E76616C69648C
:1009E000210076616C696421004F54502062616E71
:1009F0006B206973200052656164696E67204F54F3
:100A0000502062616E6B2076616C696420666C6157
:100A1000672E2E2E00526573657474696E67206DA3
:100A2000656D6F72792062616E6B2073656C6563B2
:100A300074696F6E20746F20302E2E2E00526576F2
:100A40006973696F6E204020757365725B31365D26
:100A50005B365D203D2000436865636B696E6720EF
:100A60006861726477617265207265766973696F17
:100A70006E2E2E2E0053656C656374696E67206D53
:100A8000656D6F7279206279746520362E2E2E0086
:100A900053656C656374696E672075736572206257
:100AA000616E6B2031362E2E2E0044697361626CAC
:100AB000696E6720736C656570206D6F64652E2E9E
:100AC0002E000A0A526573657474696E67204D5072
:100AD00055363035302E2E2E0001B202FFFF019028
:100AE000040923A135016A02060001600800000024
:100AF00000000000000060044000000001620200ED
:100B00000000600400400000037B034CCD6C03AB8D
:100B10000336567600680402CB47A202180400058B
:100B20008BC1010C0400000000037F060CC92C9748
:100B30009797038903264666006C02200002400452
:100B4000000000000244040000000002480400000D
:100B50000000024C040000000002500400000000ED
:100B60000254040000000002580400000000025C6F
:100B7000040000000002BC040000000001EC0400BE
:100B8000004000037F060CC92C9797970402030DC1
:100B9000355D040904872D353D00A30100000000E8
:100BA00001078601FE074105F120283038077E0144
:100BB000300746019A074704F1283038076C04F1E2
:100BC0002830380216020002FB00003E000B0036FF
:100BD000000100020003000000650054FFEF000068
:100BE000FA80000B128200010002000000000000E9
:100BF000000000000000000000280000FFFF458109
:100C0000FFFFFA7200000000000003E8000000018E
:100C100000017FFFFFFE8001001B000000000000BC
:100C20000000000000000000003E03304000000013
:100C300002CAE3093E80000020000000000000001E
:100C4000400000006000000041FF000000000B2A8F
:100C50000000165500002182FD872650FD8000000F
:100C6000001F0000000580000000000000010000DF
:100C70000002000000030000400000000000046FBC
:100C80000002653200005EC040000000000000006D
:100C90000000000000000000FB8C6F5DFD5D08D9C6
:100CA000007C733B006C12CC3200139D3200D0D616
:100CB00032000800400001F4FFE6807902000000E5
:100CC0000000D0D600002710FB000000400000000C
:100CD0000000000000000000000000010000000013
:100CE00000000100010000000000FA36FFBC308E59
:100CF0000005FBF0FFD95BC8FFD09ABE000010A929
:100D0000FFF41EB200CEBBF700000001000000049B
:100D1000000200020200000CFFC2800000018000FF
:100D200000CF800040000000000000010000000033
:100D30000000060000000014000000000000000099
:100D400000000000000000000000000000000000A3
:100D50000000000000000000000000000000000093
:100D6000000000000000000000000000033F68B623
:100D7000793528BCC67ED16C8000000040000000A0
:100D80000000B26A00000000000000000000000047
:100D900000003FF0000000300000000000000000F4
:100DA0000000000000000000000000000000000043
:100DB00000000000000000000000254D002F706DB5
:100DC000000005AE000C02D00000000000650054D9
:100DD000FFEF0000000000000000010000440000E0
:100DE00000000C0000000100000000000065000091
:100DF00000540000FFEF00000000000000000000B1
:100E000000000000000000004000000000000000A2
:100E10000000000000000000400000000000000092
:100E200000000000000000000000000100000002BF
:100E300000000000000000000000000000000000B2
:100E400000000000000000000000000000000000A2
:100E50000000000000000000001B00000000000077
:100E60000000000000000000000000000000000082
:100E70000000000000000000000000000000000072
:100E80000000000040000000001B00000000000007
:100E90000000000000000000000000000000000052
:100EA0000000000000000000000000000000000042
:100EB0000000000000000000000000000000000032
:100EC0000000000000000000D8DCBAA2F1DEB2B8D9
:100ED000B4A88191F74A907F916AF3F9DBA8F9B041
:100EE000BAA080F2CE81F3C2F1C1F2C3F3CCA2B2B8
:100EF00080F1C6D880BAA7DFDFDFF2A7C3CBC5B6C3
:100F0000F087A2942448703C95406834589B78A29E
:100F1000F183922D557DD8B1B4B8A1D09180F270F3
:100F2000F370F27C80A8F101B09887D943D886C9C4
:100F300088BAA1F20EB89780F1A9DFDFDFAADFDF60
:100F4000DFF2AAC5CDC7A90CC92C97979797F1A92D
:100F500089264666B0B4BA80ACDEF2CAF1B28C0221
:100F6000A9B69800890E161EB8A9B4992C547CB065
:100F70008AA896365676F1B9AFB4B083C0B8A897B0
:100F800011B18F98B9AFF0240844106418F1A32967
:100F9000557DAF83B593AFF0002850F1A3869F61D4
:100FA000A6DADEDFD9FAA38696DB31A6D9F8DFBA56
:100FB000A68FC2C5C7B28CC1B8A2DFDFDFA3DFDF57
:100FC000DFD8D8F1B8A8B286B4980D355DB8AA9824
:100FD000B0872D353DB2B6BAAF8C96198F9FA70E4C
:100FE000161EB49AB8AA872C547CB9A3DEDFDFA3FF
:100FF000B180F2C4CDC9F1B8A9B499830D355D892A
:10100000B9A32D557DB593A30E161EA92C547CB8FB
:10101000B4B0F19783A81184A50998A383F0DA24CA
:101020000844106418D8F1A529557DA58595021AA4
:101030002E3A565A4048F9F3A3D9F8F09883240879
:10104000441064189782A8F111F098A22408441063
:101050006418DAF3DED883A59401D9A302F1A2C300
:10106000C5C7D8F18492A24DDA2AD84869D92AD8BE
:101070006855DA32D85071D932D8705DDA3AD8581A
:1010800079D93AD87893A34DDA2AD84869D92AD899
:101090006855DA32D85071D932D8705DDA3AD858FA
:1010A00079D93AD878A88A9AF02850789EF3881887
:1010B000F19F1D98A8D908D8C89F129EF315A8DAE9
:1010C0001210D8F1AFC8978734B5B994A421F3D9D9
:1010D00022D8F22DF3D92AD8F235F3D932D881A407
:1010E000606061D961D86C6869D969D8747071D948
:1010F00071D8B1A384193D5DA3831A3E5E9310306D
:10110000811011B8B0AF8F94F2DA3ED8B49AA887A4
:1011100029DAF8D8879A35DAF8D8879A3DDAF8D8F4
:10112000B1B9A49885022E56A581000C14A397B0DE
:101130008AF12DD928D84DD948D86DD968D8B1842D
:101140000DDA0ED8A32983DA2C0ED8A3844983DACA
:101150002C4C0ED8B8B0A88A9AF520AADADFD8A805
:1011600040AAD0DADED8A860AADAD0DFD8F1978614
:10117000A8319B069907AB9728889BF00C20144058
:10118000B8B0B4A88C9CF0042851791D301438B242
:1011900082ABD0982C505078789BF11AB0F08A9C92
:1011A000A82951798B2951798A2470598B2058713B
:1011B0008A4469388B3940688A6448318B30496089
:1011C000A588200971584468113964493019F1AC77
:1011D000002C547CF08CA804285078F1889726A81D
:1011E0005998AC8C02264666F0899CA8295179242E
:1011F0007059446938644831A98809205970AB1185
:10120000384069A8193148608CA83C415C207C00BA
:10121000F187981986A86E767EA999882D557D9EAE
:10122000B9A38A228A6E8A568A5E9FB183062646B1
:10123000660E2E4E6E9DB8AD002C547CF2B18CB46F
:1012400099B9A32D557D8191AC38AD3AB58391AC58
:101250002DD928D84DD948D86DD968D88C9DAE29BC
:10126000D904AED851D904AED879D904D881F39D28
:10127000AD008DAE1981ADD901D8F2AEDA26D88E87
:10128000912983A7D9ADADADADF32AD8D8F1B0ACD3
:1012900089913E5E76F3AC2E2EF1B18C5A9CAC2C2B
:1012A0002828289CAC3018A8988128343C9724A77B
:1012B00028343C9C24F2B089AC912C4C6C8A9B2D38
:1012C000D9D8D851D9D8D879D9D8D8F19E88A331CE
:1012D000DAD8D8912DD928D84DD948D86DD968D821
:1012E000B18393353D8025DAD8D88569DAD8D8B46A
:1012F0009381A328343CF3AB8BF8A391B609B4D9FE
:10130000ABDEFAB0879CB9A3DDF1A3A3A3A395F14B
:10131000A3A3A39DF1A3A3A3A3F2A3B49080F2A3DC
:10132000A3A3A3A3A3A3A3A3A3B2A3A3A3A3A3A37E
:10133000B087B599F1A3A3A398F1A3A3A3A397A3FF
:10134000A3A3A3F39BA3A3DCB9A7F1262626D8D891
:10135000FF00000008000201000003040700000075
:101360000000000000010204081020408001020477
:1013700008102001020408102004040404040404DA
:10138000040202020202020303030303030000003B
:1013900000250028002B0000000000240027002A60
:1013A0000000E417231CC42011241FBECFEFD8E097
:1013B000DEBFCDBF11E0A0E0B1E0E8EBFFE402C08A
:1013C00005900D92A234B107D9F723E0A2E4B1E071
:1013D00001C01D92A234B207E1F719E0C4EDD9E0D3
:1013E00004C02197FE010E94A025C13DD107C9F785
:1013F0000E94F2200C94DA270C940000FF920F93C5
:101400001F93CF93DF93C62F142FF22E032F682F35
:1014100086E492E00E949C1B6C2F86E492E00E947E
:10142000531BCF2DD02FCE01810F911D8C01C017E2
:10143000D10731F0699186E492E00E94531BF7CF07
:1014400086E492E00E94201C91E0811190E0892FB7
:10145000DF91CF911F910F91FF900895CF93DF936C
:101460001F92CDB7DEB749839E012F5F3F4F41E00A
:101470000E94FE090F90DF91CF910895CF92DF92E5
:10148000FF920F931F93CF93DF93C62F042F690111
:10149000682F86E492E00E949C1B6C2F86E492E009
:1014A0000E94531B10E0000F111FF12CCF2DD0E034
:1014B000C017D1078CF4CC0FDD1FCC0DDD1D698169
:1014C00086E492E00E94531B688186E492E00E94C9
:1014D000531BF394F394EACF86E492E00E94201C1D
:1014E00091E0811190E0892FDF91CF911F910F91B1
:1014F000FF90DF90CF900895CF93DF9300D0CDB7CA
:10150000DEB75A8349839E012F5F3F4F41E00E941F
:101510003E0A0F900F90DF91CF9108953F924F9226
:101520005F926F927F928F929F92AF92BF92CF9273
:10153000DF92EF92FF920F931F93CF93DF9300D030
:1015400000D000D0CDB7DEB7D82EC62E4D8379019E
:101550000E9422244B015C01312C1E829D81892F27
:1015600090E09C838B832801612C712CED813E16C9
:10157000C8F56D2D86E492E00E949C1B6C2D86E4DC
:1015800092E00E94531B86E492E00E94201C6D2D85
:1015900086E492E00E949C1B4B815C8143195109B7
:1015A0004132510514F040E250E06D2D86E492E0A6
:1015B0000E941D1C86E492E00E94FA1A892B09F40D
:1015C00043C00115110569F10E942224DC01CB0101
:1015D00088199909AA09BB0984159505A605B705B7
:1015E00000F132C001151105A9F10E942224DC018D
:1015F000CB0188199909AA09BB0920E030E08017BE
:101600009107A207B30730F1FD812F2F30E04E8103
:10161000842F440F990B82179307E4F48FEF8E8386
:1016200019C0F7012E81E20FF11D27FDFA95FA830B
:10163000E98386E492E00E94021BE981FA818083BB
:10164000FE81FF5FFE83B6CF8D81813208F080E29C
:10165000380E8CCF8E8126960FB6F894DEBF0FBE63
:10166000CDBFDF91CF911F910F91FF90EF90DF9051
:10167000CF90BF90AF909F908F907F906F905F9032
:101680004F903F9008950F931F9389019A0141E075
:101690000E948E0A1F910F910895DF92EF92FF92A0
:1016A0000F931F93CF93DF931F92CDB7DEB7D42E46
:1016B00079019801AE014F5F5F4F0E94430B21E01B
:1016C00030E001C0220FDA94EAF799812923F7016B
:1016D00020830F90DF91CF911F910F91FF90EF909A
:1016E000DF900895CF92DF92EF92FF920F931F93B6
:1016F000CF93DF931F92CDB7DEB7D42EC22E9701C2
:10170000AE014F5F5F4F0E94430B8823F1F04D2DD8
:1017100050E04C1951094F5F5F4F21E030E002C0AB
:10172000220F331FCA94E2F721503109042E01C061
:10173000220F0A94EAF79981292330E002C03595F7
:1017400027954A95E2F7F80120830F90DF91CF911A
:101750001F910F91FF90EF90DF90CF900895EF923F
:10176000FF920F931F93CF93DF931F92CDB7DEB7F6
:10177000182F062FF42EE22E20910601309107013A
:10178000AE014F5F5F4F0E94430B898141E050E003
:1017900001C0440FFA94EAF7EE2011F0482B02C082
:1017A000409548234983602F812F0E942E0A0F9075
:1017B000DF91CF911F910F91FF90EF900895DF92ED
:1017C000EF92FF920F931F93CF93DF931F92CDB7AA
:1017D000DEB7182FF62EE42ED22E2091060130917E
:1017E0000701AE014F5F5F4F0E94430B882339F121
:1017F0002E2D30E02D1931092F5F3F4F81E090E011
:1018000002C0880F991FDA94E2F70197022E01C0F7
:10181000880F0A94EAF7402F50E0BA0102C0660F21
:10182000771F2A95E2F7482F40959981492386230F
:10183000482B49836F2D812F0E942E0A01C080E022
:101840000F90DF91CF911F910F91FF90EF90DF905C
:10185000089528E6FC0120830895462F69E1FC01E4
:1018600080810C942E0A0F93062F23E045E06AE155
:10187000FC0180810E94DF0B0F9108950F93062FCA
:1018800023E042E06AE1FC0180810E94DF0B0F91BE
:1018900008950F93062F22E044E06BE1FC01808164
:1018A0000E94DF0B0F9108950F93062F22E044E072
:1018B0006CE1FC0180810E94DF0B0F910895462F9F
:1018C0006FE1FC0180810C942E0A462F60E2FC013E
:1018D00080810C942E0A462F61E2FC0180810C94D9
:1018E0002E0A462F62E2FC0180810C942E0A64309D
:1018F00040F4262F220F620F6B5DFC0180810C9457
:101900002E0A0895462F68E3FC0180810C942E0A6C
:10191000CF93DF93EC012091060130910701AC01D8
:101920004F5F5F4F6AE388810E94430B8981DF919B
:10193000CF910895262F46E06AE6FC0180810C9441
:10194000AF0B262F45E06AE6FC0180810C94AF0BBB
:1019500021E042E06AE6FC0180810C94AF0B21E0BB
:1019600041E06AE6FC0180810C94AF0B21E047E086
:101970006BE6FC0180810C94AF0B262F46E06BE6F2
:10198000FC0180810C94AF0B0F93062F23E042E003
:101990006BE6FC0180810E94DF0B0F910895CF93CD
:1019A000DF93EC0161E00E94C40C60E0CE010E9474
:1019B000490C60E0CE010E94540C60E0CE01DF9142
:1019C000CF910C94BD0C0F931F93CF93DF93EC0139
:1019D00000910601109107019C012F5F3F4F42E0EB
:1019E00062E788810E948E0A89819A8198278927D7
:1019F0009827DF91CF911F910F9108950F931F9317
:101A00009B01009106011091070164E7FC018081B0
:101A10000E948E0A1F910F910895EF92FF920F93EB
:101A20001F93CF93DF93EC01E0900601F090070144
:101A30008C010F5F1F4F26E046E065E788810E941A
:101A4000720B8981DF91CF911F910F91FF90EF90E1
:101A500008950E940D0D91E0843309F090E0892FE4
:101A600008950F931F93CF93DF93EC01009106012C
:101A7000109107019C012F5F3F4F40E060E088819B
:101A80000E944D0B8981DF91CF911F910F91089595
:101A9000262F40E060E0FC0180810C94AF0BEF92B8
:101AA000FF920F931F93CF93DF93EC01E090060119
:101AB000F09007018C010F5F1F4F26E046E060E0C9
:101AC00088810E94720B8981DF91CF911F910F91C4
:101AD000FF90EF9008950F93062F26E046E060E018
:101AE000FC0180810E94DF0B0F910895EF92FF921D
:101AF0000F931F93CF93DF93EC01E0900601F090DA
:101B000007018C010F5F1F4F26E046E061E08881EE
:101B10000E94720B8981DF91CF911F910F91FF90ED
:101B2000EF9008950F93062F26E046E061E0FC0158
:101B300080810E94DF0B0F910895EF92FF920F9327
:101B40001F93CF93DF93EC01E0900601F090070123
:101B50008C010F5F1F4F26E046E062E088810E9403
:101B6000720B8981DF91CF911F910F91FF90EF90C0
:101B700008950F93062F26E046E062E0FC01808185
:101B80000E94DF0B0F910895AB016AE0FC01808198
:101B90000C947C0AAB0163E1FC0180810C947C0A0B
:101BA000AB0165E1FC0180810C947C0AAB0167E12B
:101BB000FC0180810C947C0A262F47E06AE6FC0138
:101BC00080810C94AF0B21E043E06AE6FC01808148
:101BD0000C94AF0B6F712111606241116064462F4C
:101BE0006DE6FC0180810C942E0A462F6EE6FC0106
:101BF00080810C942E0ACF93DF93EC012091060193
:101C000030910701AC014F5F5F4F6FE688810E9402
:101C1000430B8981DF91CF9108955F926F927F92FC
:101C20008F929F92AF92BF92CF92DF92EF92FF92EC
:101C30000F931F93CF93DF937C015B016A01522EB8
:101C4000C02F20E040E0652D0E94EA0D602FC70103
:101C50000E94F50D612C712C812C992493946C14A5
:101C60007D04A0F5C3014096C816D90618F4DC2DF2
:101C7000D61901C0D0E18D2F90E094012C1B3109C1
:101C80002817390714F4DC2FD19500910601109123
:101C900007019501260D371D4D2F6FE6F701808155
:101CA0000E948E0A6D0E711CCD0F6C147D04B8F667
:101CB000C11101C0539420E040E0652DC7010E948E
:101CC000EA0D6C2FC7010E94F50DC9CFDF91CF91AE
:101CD0001F910F91FF90EF90DF90CF90BF90AF904A
:101CE0009F908F907F906F905F9008952F923F927A
:101CF0004F925F926F927F928F929F92AF92BF921C
:101D0000CF92DF92EF92FF920F931F93CF93DF93C7
:101D100000D000D01F92CDB7DEB79D838C831B010E
:101D20003A01D22E502EE98220E040E06D2D0E9433
:101D3000EA0D602F8C819D810E94F50DE980EE20D7
:101D400029F080E190E00E94A6254C01CC2029F0EA
:101D500080E190E00E94A6255C01E12CF12CE614C4
:101D6000F70408F07CC0C70140966816790618F49D
:101D7000462C4E1802C080E1482E842D90E020E0D1
:101D800031E0251931092817390714F4452C4194FD
:101D9000CC2071F0D50180E090E0841560F4F7016B
:101DA000E80FF91FE20DF31DE491ED930196F5CFD5
:101DB0005101AE0CBF1C9501442D6FE6EC81FD81F5
:101DC00080810E94FE09842D90E09B838A83998103
:101DD000992361F18114910449F120E040E06D2DD7
:101DE0008C819D810E94EA0D652D8C819D810E94D0
:101DF000F50D00910601109107019401442D6FE645
:101E0000EC81FD8180810E948E0A4A815B81B40150
:101E1000C5010E948D27892B49F0C4010E943E26EE
:101E2000CC2049F1C5010E943E2625C08A819B81B4
:101E3000E80EF91E540CE614F70408F090CF511088
:101E400001C0D39420E040E06D2D8C819D810E94E3
:101E5000EA0D652D8C819D810E94F50D80CF9981C1
:101E6000992319F0C4010E943E26CC2031F0C5010F
:101E70000E943E2602C080E001C081E00F900F90DA
:101E80000F900F900F90DF91CF911F910F91FF90C6
:101E9000EF90DF90CF90BF90AF909F908F907F900A
:101EA0006F905F904F903F902F900895CF92EF9258
:101EB0000F93CC24C3940E94760E0F91EF90CF9095
:101EC00008953F924F925F926F927F928F929F926E
:101ED000AF92BF92CF92DF92EF92FF920F931F9338
:101EE000CF93DF933C014B012A01D22E222331F004
:101EF00088E090E00E94A625182FF92EC0E0D0E0DF
:101F0000C415D50508F055C0F401EC0FFD1FCE0136
:101F100003965C01DD2071F03490FE013196E80DEE
:101F2000F91D0491FE013296E80DF91DE490E110CF
:101F30000DC04AC0E280D401A80FB91FEE2009F4F9
:101F400051C0308001811A2FFB2E1CC0CE2DD0E055
:101F500092E09E1538F4BE01812F9F2D0E94C72666
:101F6000182FF92EA12FBF2D80E090E08C179D0730
:101F700048F4FC01EA0DFB1DE80DF91DE491ED9319
:101F80000196F4CFCE2DD0E0C12CEE24E394232D86
:101F9000AE01612F7F2DC3010E94760ECA0DDB1D9D
:101FA0008111AECFDD2061F0812F9F2D0E943E2652
:101FB00007C0DD2039F0812F9F2D0E943E2602C0F0
:101FC00080E013C081E011C02496F401E80FF91FEE
:101FD000E491E13039F742E368E3F30180810E9444
:101FE0002E0A8ECF2496EC91F4CFDF91CF911F91E2
:101FF0000F91FF90EF90DF90CF90BF90AF909F90A8
:102000008F907F906F905F904F903F90089521E068
:102010000C94610F462F60E7FC0180810C942E0A1E
:10202000462F61E7FC0180810C942E0A81E08093A9
:10203000420108958F929F92AF92BF92CF92EF92FA
:102040000F931F93CF93DF93CDB7DEB7C059D1095C
:102050000FB6F894DEBF0FBECDBF5C0162EC7AE034
:1020600088E992E00E947121C5010E94B60C6EE1E0
:1020700070E080E090E00E9453246AEA7AE088E908
:1020800092E00E94712160E0C5010E94BD0C60E9F0
:102090007AE088E992E00E94712121E041E060E16C
:1020A000C5010E94EA0D65E77AE088E992E00E94A6
:1020B000712166E0C5010E94F50D67E57AE088E9C7
:1020C00092E00E947121C5010E94FB0D182F6DE363
:1020D0007AE088E992E00E94402140E150E0612FDF
:1020E00088E992E00E94ED2165E17AE088E992E0DA
:1020F0000E94712120E040E060E0C5010E94EA0DED
:1021000066EF79E088E992E00E947121C5010E94A2
:10211000310D182F69EE79E088E992E00E944021A4
:10212000112319F062EE79E002C069ED79E088E9E7
:1021300092E00E94712168EB79E088E992E00E94C8
:102140007121C5010E944F0D882EC5010E94760D98
:10215000982EC5010E949D0D182F67EA79E088E945
:1021600092E00E944021682D082C000C770B4AE079
:1021700050E088E992E00E94662266E979E088E909
:1021800092E00E944021692D092C000C770B4AE057
:1021900050E088E992E00E94662265E879E088E9EB
:1021A00092E00E944021612F012E000C770B4AE043
:1021B00050E088E992E00E94662262E679E088E9D0
:1021C00092E00E9471214FE760E0C5010E94770C08
:1021D00065E479E088E992E00E94712160E0C50140
:1021E0000E94A10C6BE179E088E992E00E947121E4
:1021F00048E660E0C5010E94770C6BEF78E088E963
:1022000092E00E947121C5010E94AF0C64E170E070
:1022100080E090E00E94532464ED78E088E992E049
:102220000E9440214AE050E069E877E088E992E0C6
:102230000E945F226CEC78E088E992E00E947121B4
:10224000EE24E39400E020E049E857E068EC7BE00E
:10225000C5010E94560F882309F454C364EA78E04C
:1022600088E992E00E94712164E778E088E992E0D1
:102270000E9440214AE050E060EC70E088E992E082
:102280000E945F226EE578E088E992E00E94712169
:1022900040EC50E068E07BE0C5010E940710882315
:1022A00009F428C36DE278E088E992E00E94712188
:1022B0006BE078E088E992E00E94712163E0C5015B
:1022C0000E94C40C6AED77E088E992E00E947121D7
:1022D00062E1C5010E94820C6AEB77E088E992E036
:1022E0000E94712164E0C5010E942D0C6AE877E02C
:1022F00088E992E00E94712161E0C5010E94330CDF
:1023000068E677E088E992E00E94712163E0C50108
:102310000E943E0C68E377E088E992E00E94712118
:1023200063E0C5010E94490C62E077E088E992E031
:102330000E94712163E0C5010E940A1060E0C5019E
:102340000E94101068EE76E088E992E00E94712108
:1023500060E0C5010E94480D64EB76E088E992E0F8
:102360000E947121682DC5010E946B0D692DC50168
:102370000E94920D612FC5010E94B90D6EE776E0B3
:1023800088E992E00E947121812C912CF401E7529E
:10239000F54FE491A1E8B0E0AC0FBD1FA80DB11D51
:1023A000EC9381E0880D9FEF891A990AE3E0E81524
:1023B00068F7CD57DF4F4881C358D04050E09A01AD
:1023C0002E5F3F4F90E02817390704F7C12CEE2409
:1023D000E394CE57DF4F0881C258D040CF57DF4F2C
:1023E0002881C158D04061E870E06C0F7D1F6D5F9F
:1023F0007F4FC5010E94760E68E476E088E992E09E
:102400000E94712180E0F401E752F54FE491A1E8C8
:10241000B0E0AC0FBD1FA80FB11DEC938F5FFFEFB5
:102420008F1A9F0A843078F3CD57DF4F4881C35805
:10243000D04050E0BA016E5F7F4F282F30E0621726
:1024400073070CF7C12CEE24E394CE57DF4F0881BD
:10245000C258D040CF57DF4F2881C158D04061E8E3
:1024600070E06C0F7D1F6D5F7F4FC5010E94760E7F
:1024700066E376E088E992E00E947121C5010E943E
:10248000A80C60E276E088E992E00E947121C50123
:102490000E94E30C182F092F6CE076E088E992E0A7
:1024A0000E9440214AE050E0612F702F88E992E0BD
:1024B0000E940522412FBE016F5F7F4FC5010E9420
:1024C000FE0C61EE75E088E992E00E94712162E005
:1024D000C5010E945F0C6FEA75E088E992E00E94F6
:1024E00071216CE9C5010E946B0C64E875E088E914
:1024F00092E00E94712160E5C5010E94650C65E5CE
:1025000075E088E992E00E94712160E0C5010E94B7
:10251000710C63E475E088E992E00E947121C501C5
:102520000E94A80C62E375E088E992E00E947121A4
:1025300061E0C5010E949A0C62E275E088E992E0D0
:102540000E94712161E0C5010E94DC0D61E175E02E
:1025500088E992E00E947121C5010E94E30D6BEDB4
:1025600074E088E992E00E94712180E0F401E75272
:10257000F54FE491A1E8B0E0AC0FBD1FA80FB11D6D
:10258000EC938F5F9FEF891A990A843078F3CD57C7
:10259000DF4F4881C358D04050E0BA016E5F7F4F93
:1025A000282F30E0621773070CF7C12CEE24E39458
:1025B000CE57DF4F0881C258D040CF57DF4F288118
:1025C000C158D04061E870E06C0F7D1F6D5F7F4F98
:1025D000C5010E94760E65EA74E088E992E00E94E7
:1025E000712180E0F401E752F54FE491A1E8B0E0F9
:1025F000AC0FBD1FA80FB11DEC938F5FEFEF8E1ACC
:102600009E0A843078F3CD57DF4F4881C358D040BD
:1026100050E0BA016E5F7F4F282F30E062177307DA
:102620000CF7C12CEE24E394CE57DF4F0881C2583B
:10263000D040CF57DF4F2881C158D04061E870E0CB
:102640006C0F7D1F6D5F7F4FC5010E94760E6FE698
:1026500074E088E992E00E94712180E0F401E75281
:10266000F54FE491A1E8B0E0AC0FBD1FA80FB11D7C
:10267000EC938F5FFFEF8F1A9F0A843078F3CD576A
:10268000DF4F4881C358D04050E0BA016E5F7F4FA2
:10269000282F30E0621773070CF7C12CEE24E39467
:1026A000CE57DF4F0881C258D040CF57DF4F288127
:1026B000C158D04061E870E06C0F7D1F6D5F7F4FA7
:1026C000C5010E94760E61E574E088E992E00E94FF
:1026D0007121C5010E94E30C8C010397D0F36DE3D7
:1026E00074E088E992E00E9440214AE050E0B8019D
:1026F00088E992E00E94052268E274E088E992E0AD
:102700000E947121402FBE016F5F7F4FC5010E9463
:10271000FE0C6CE074E088E992E00E947121C50132
:102720000E94880C182F62EF73E088E992E00E9403
:10273000402140E150E0612F88E992E00E94ED21C4
:102740006CEB73E088E992E00E94712180E0F40173
:10275000E752F54FE491A1E8B0E0AC0FBD1FA80F20
:10276000B11DEC938F5F9FEF891A990A843078F33B
:10277000CD57DF4F4881C358D04050E0BA016E5F5B
:102780007F4F282F30E0621773070CF7CE57DF4FCB
:102790000881C258D040CF57DF4F2881C158D04060
:1027A00061E870E06C0F7D1F6D5F7F4FC5010E9477
:1027B0000D0E6EE973E088E992E00E947121C50177
:1027C0000E94E30C8C010397D0F36AE873E088E978
:1027D00092E00E9440214AE050E0B80188E992E08E
:1027E0000E94052265E773E088E992E00E9471216A
:1027F000402FBE016F5F7F4FC5010E94FE0C69E54F
:1028000073E088E992E00E947121C5010E94880C62
:10281000182F6FE373E088E992E00E94402140E1C5
:1028200050E0612F88E992E00E94ED2169E073E0B9
:1028300088E992E00E947121F401E752F54F80E0AF
:102840009491A1E8B0E0AC0FBD1FA80FB11D9C93FF
:102850008F5F843070F0CD57DF4F4881C358D04030
:1028600050E0BA016E5F7F4F282F30E06217730788
:1028700014F03196E5CF61E870E06C0F7D1F6D5F5D
:102880007F4FC12CEE24E394CE57DF4F0881C2580E
:10289000D040CF57DF4F2881C158D040C5010E949A
:1028A000760E6DEE72E088E992E00E94712165EC8F
:1028B00072E088E992E00E94712160E0C5010E9407
:1028C000DC0D6AE872E088E992E00E9471218AE2F8
:1028D00090E0F5019383828362E572E088E992E0FB
:1028E0000E947121C5010E94A80CC5010E94880C9C
:1028F00080E00FC064E272E088E992E00E947121FA
:1029000082E007C06FEF71E088E992E00E947121D8
:1029100081E0C057DF4F0FB6F894DEBF0FBECDBFCA
:10292000DF91CF911F910F91EF90CF90BF90AF901B
:102930009F908F900895CF93DF93DB01FA0130973A
:1029400019F4EC01E881F981808190E0982F8827C3
:102950002181820F911D11969C938E93848190E02A
:10296000982F88272581820F911D13969C938E9313
:102970001297808590E0982F88272185820F911DDE
:1029800015969C938E931497848590E0982F8827B2
:102990002585820F911D17969C938E93169780E044
:1029A000DF91CF910895FF920F931F93CF93DF9301
:1029B000CDB7DEB728970FB6F894DEBF0FBECDBFF8
:1029C0008B01BE016F5F7F4F0E949B14F82E811117
:1029D0004CC069817A81072E000C880B990B0E94EC
:1029E000B01D20E030E040E858E30E946B1EF80183
:1029F00060837183828393836B817C81072E000CBB
:102A0000880B990B0E94B01D20E030E040E858E3AD
:102A10000E946B1EF80164837583868397836D81A2
:102A20007E81072E000C880B990B0E94B01D20E0C0
:102A300030E040E858E30E946B1EF8016087718720
:102A4000828793876F817885072E000C880B990BFE
:102A50000E94B01D20E030E040E858E30E946B1E69
:102A6000F80164877587868797878F2D28960FB61C
:102A7000F894DEBF0FBECDBFDF91CF911F910F91B4
:102A8000FF9008954F925F926F927F928F929F92E4
:102A9000AF92BF92CF92DF92EF92FF92CF93DF93EC
:102AA000CDB7DEB72A970FB6F894DEBF0FBECDBF05
:102AB0007A876987FA01C480D580E680F7804484EC
:102AC00055846684778480809180A280B3808085DD
:102AD0009185A285B38589839A83AB83BC83A30147
:102AE0009201C701B6010E946B1E6D837E838F83A6
:102AF000988729813A814B815C81C501B4010E948C
:102B00006B1E9B01AC016D817E818F8198850E9437
:102B1000271C9B01AC010E94281CA985BA856D93D6
:102B20007D938D939C931397A5019401C701B601E2
:102B30000E946B1E6D837E838F83988729813A81E3
:102B40004B815C81C301B2010E946B1E9B01AC01F1
:102B50006D817E818F8198850E94281C9B01AC012C
:102B60000E94281CE985FA85648375838683978390
:102B7000A5019401C501B4010E946B1E4B015C01CB
:102B8000A7019601C701B6010E946B1E9B01AC0113
:102B9000C501B4010E94271C6B017C0129813A8187
:102BA0004B815C81CA01B9010E946B1E9B01AC0183
:102BB000C701B6010E94271C6B017C01A301920191
:102BC000C301B2010E946B1E9B01AC01C701B6019B
:102BD0000E94281CA985BA8518966D937D938D93C4
:102BE0009C931B9780E02A960FB6F894DEBF0FBE29
:102BF000CDBFDF91CF91FF90EF90DF90CF90BF904E
:102C0000AF909F908F907F906F905F904F900895BE
:102C10002F923F924F925F926F927F928F929F92EC
:102C2000AF92BF92CF92DF92EF92FF920F931F93DA
:102C3000CF93DF9300D000D000D0CDB7DEB71B011B
:102C40008A013E832D83FA01C080D180E280F38027
:102C5000A7019601C701B6010E94281C69837A83E7
:102C60008B839C83F80184809580A680B780A50122
:102C70009401C501B4010E94281C2B013C0129814B
:102C80003A814B815C81C701B6010E946B1E6B01CA
:102C90007C01A3019201C501B4010E946B1E9B013E
:102CA000AC01C701B6010E94281C20E030E040E8DA
:102CB0005FE30E94271C6B017C01F80120853185B0
:102CC00042855385C301B2010E946B1E2B013C015A
:102CD000F801248535854685578569817A818B8100
:102CE0009C810E946B1E9B01AC01C301B2010E943A
:102CF000271CA70196010E94A71CF1016083718324
:102D000082839383ED81FE816481758186819781C1
:102D1000C084D184E284F3849B01AC010E946B1EC9
:102D20004B015C01A7019601C701B6010E946B1E11
:102D30009B01AC01C501B4010E94281C0E94DE1E4B
:102D40009B01AC01ED81FE81608171818281938163
:102D50000E94061D0E94D71CF1016483758386833F
:102D60009783ED81FE816081718182819381C0842E
:102D7000D184E284F3849B01AC010E946B1E4B0161
:102D80005C01A7019601C701B6010E946B1E9B0161
:102D9000AC01C501B4010E94281C0E94DE1E9B01EB
:102DA000AC01ED81FE8164817581868197810E94ED
:102DB000061D0E94D71CF101608771878287938767
:102DC00080E026960FB6F894DEBF0FBECDBFDF9130
:102DD000CF911F910F91FF90EF90DF90CF90BF9018
:102DE000AF909F908F907F906F905F904F903F90AB
:102DF0002F9008958091C301882309F4E4C02091A5
:102E0000BD013091BE018091BF019091C001409100
:102E10004201411103C028173907C8F3109242013B
:102E200085EC91E00E94880C8093C20185EC91E0D2
:102E30000E94E30C9C019093BE018093BD01909190
:102E4000C20194FD03C02115344051F485EC91E09A
:102E50000E94A80C66E970E088E992E00C94712168
:102E600091FFB1C04091BF015091C0018091BD015F
:102E70009091BE018417950748F485EC91E00E947B
:102E8000E30C9093BE018093BD01ECCF6DE771E040
:102E900085EC91E00E94FE0C8091BD019091BE01F5
:102EA0002091BF013091C001821B930B9093BE0112
:102EB0008093BD014DE751E06DE671E085EC91E056
:102EC0000E94D3144DE651E06FE471E085EC91E08F
:102ED0000E9442152FE431E04DE651E063E471E0D9
:102EE00085EC91E00E9408166CE071E088E992E0C0
:102EF0000E94642120E030E044E353E46091430108
:102F00007091440180914501909146010E946B1E91
:102F10002BED3FE049E450E40E94061DAB01BC01EB
:102F200022E030E088E992E00E9455236FE071E0F2
:102F300088E992E00E94642120E030E044E353E419
:102F400060914701709148018091490190914A0137
:102F50000E946B1E2BED3FE049E450E40E94061DE9
:102F6000AB01BC0122E030E088E992E00E945523E9
:102F70006FE071E088E992E00E94642120E030E097
:102F800044E353E460914B0170914C0180914D01F9
:102F900090914E010E946B1E2BED3FE049E450E4FE
:102FA0000E94061DAB01BC0122E030E088E992E0FE
:102FB0000E9457236091C40181E068276093C40197
:102FC0008DE00C941B25089585EC91E00E94290C5E
:102FD000EDE6F1E080E090E0A0E8BFE3808391833C
:102FE000A283B383148215821682178210861186FB
:102FF000128613861486158616861786E7E6F1E094
:10300000118210821382128215821482E1E6F1E0AD
:10301000118210821382128215821482EBE5F1E094
:10302000118210821382128215821482EFE4F1E081
:1030300010821182128213821482158216821782E4
:103040001086118612861386089586E492E00E9407
:10305000921B88E18093B80026E040E052EC61E0EA
:1030600070E088E992E00E94FD1F63EE71E088E95C
:1030700092E00E94712185EC91E00E94CF0C65ECFA
:1030800071E088E992E00E94712185EC91E00E9454
:10309000290D811103C06DE871E002C067EA71E09B
:1030A00088E992E00E94712165E571E088E992E08B
:1030B0000E94712188E992E00E94371F892B31F02C
:1030C00088E992E00E94511F892BA1F788E992E0DC
:1030D0000E94371F892BD1F388E992E00E94371FA5
:1030E000892B31F088E992E00E94511F892BA1F7CA
:1030F00061E471E088E992E00E94712185EC91E041
:103100000E941A108093C1016CED70E085EC91E093
:103110000E94CA0D6CE470E085EC91E00E94D00D35
:103120006BEA7FEF85EC91E00E94D60D6CEF76E0C4
:1031300085EC91E00E94C40D8091C101811130C0E5
:1031400061E371E088E992E00E94712161E085EC21
:1031500091E00E94DC0D62EF70E088E992E00E944D
:10316000712143E050E066E170E180E00E946A2353
:1031700085EC91E00E94880C8093C20168EC70E0BD
:1031800088E992E00E94712181E08093C3018091DF
:10319000C7019091C8019093C0018093BF0114C0F2
:1031A00067EA70E088E992E00E9440214AE050E03E
:1031B0006091C10188E992E00E94E62165EA70E031
:1031C00088E992E00E94712161E08DE00C94DF2497
:1031D0001092450281E0809343021092420261E026
:1031E00082E10E941B2561E083E10E941B25E9EB3F
:1031F000F0E080818E7F808380818D7F808388E472
:103200008093B80085E48093BC000895413208F0B3
:1032100043C0909145029111FCCF91E090934502FB
:10322000209343022FEF2093D80110921D02240F08
:1032300020931C029093440290914402880F892BA2
:103240008093440280914202813061F410924202E4
:10325000809144028093BB008091BC0083FDF8CF35
:1032600085EC01C085EE8093BC00809145028130E1
:10327000E1F380911D02841710F440911D02AEE12C
:10328000B2E0962FFB018E2F891B841718F48D91C5
:103290008193F9CF842F089580E008950F934132F0
:1032A00008F04AC0909145029111FCCF32E0309372
:1032B0004502009343023FEF3093D80110921D0264
:1032C00040931C02562FAEE1B2E0FB013E2F351BAE
:1032D000341718F431913D93F9CF10924402309194
:1032E0004402880F832B80934402809142028130F4
:1032F00061F410924202809144028093BB0080915D
:10330000BC0083FDF8CF85EC01C085EE8093BC0046
:10331000222321F0809145028230D1F38091D8019F
:103320008F3F79F08091D801803241F08091D801AF
:10333000803331F094E005C091E003C092E001C019
:1033400093E0892F0F910895613298F420914502FE
:10335000243089F46093FA01282FACEFB1E0FC012E
:103360008E2F821B861718F481918D93F9CF80E000
:10337000089581E0089582E0089585ED8093BC0072
:103380008091BC0084FDFCCF10924502089585EC2D
:103390008093BC001092450208951F920F920FB6C1
:1033A0000F9211242F933F934F935F936F937F93CB
:1033B0008F939F93AF93BF93EF93FF938091B90047
:1033C000887F803609F49EC078F5883209F45DC0A4
:1033D00090F4803109F456C038F4882309F4F5C01C
:1033E000883009F44FC0F5C0883109F44EC08032EE
:1033F00009F45FC0EEC0803409F46AC058F4803329
:1034000009F457C0883309F0E4C08093D8010E94C2
:10341000C719DFC0803509F44FC0883509F45DC095
:10342000883409F0D6C0D3C0883909F4C4C0A8F4E0
:10343000883709F467C038F4883609F463C08037E8
:1034400009F460C0C6C0883809F4B5C0803909F4F1
:103450005FC0803809F0BDC05BC0803B09F483C009
:1034600038F4803A09F466C0883A09F47CC0B1C0E7
:10347000803C09F4A4C0883C09F4A1C0883B09F44D
:1034800087C0A7C08091440210C090911D02809116
:103490001C02981770F5E0911D0281E08E0F809359
:1034A0001D02F0E0E25EFD4F80818093BB0085EC61
:1034B00083C08093D8018BC0E0911D0281E08E0F04
:1034C00080931D028091BB00F0E0E25EFD4F80839F
:1034D00090911D0280911C026BC0E0911D0281E061
:1034E0008E0F80931D028091BB00F0E0E25EFD4FE5
:1034F00080838091430281116AC081E080934202FF
:1035000084EA5EC083E0809345021092D901CFCF58
:103510008091D901803208F04EC0E091D90181E05C
:103520008E0F8093D9018091BB00F0E0E652FE4FF0
:103530008083BDCF0E94C7198091D901803230F4B9
:10354000E091D901F0E0E652FE4F10826091D9017E
:1035500070E0E0913E02F0913F028AED91E0099522
:103560001092D90136C084E0809345021092FB018D
:103570001092FA01E0914002F09141020995809188
:10358000FA01811105C081E08093FA011092FC01DB
:10359000E091FB0181E08E0F8093FB01F0E0E450AD
:1035A000FE4F80818093BB009091FB018091FA01D6
:1035B000981708F47CCF85E88093BC000AC085EC9E
:1035C0008093BC001092450204C01092D8010E9462
:1035D000BD19FF91EF91BF91AF919F918F917F9115
:1035E0006F915F914F913F912F910F900FBE0F9070
:1035F0001F9018958091760290E020917702821BAF
:10360000910908959091770280917602981750F46D
:10361000E92FF0E0E858FD4F208130E09F5F909364
:10362000770202C02FEF3FEFC9010895E0917702C2
:1036300080917602E81730F4F0E0E858FD4F808181
:1036400090E008958FEF9FEF08950895CF92DF9255
:10365000EF92FF920F931F93CF93DF937C01CB01E7
:103660008A0120915202222389F0EB016B01C40EE2
:10367000D51ECC15DD0569F06991D701ED91FC915E
:103680000190F081E02DC7010995F3CF642F0E94CE
:10369000A419C801DF91CF911F910F91FF90EF9076
:1036A000DF90CF900895CF93DF931F92CDB7DEB711
:1036B0006983209152022223D1F0209153022032BB
:1036C00040F021E030E0FC013383228380E090E091
:1036D00015C080915402E82FF0E0EB5AFD4F99811C
:1036E00090838F5F809354028093530205C061E002
:1036F000CE0101960E94A41981E090E00F90DF9125
:10370000CF910895FC011382128288EE93E0A0E02D
:10371000B0E084839583A683B78385E191E09183AC
:1037200080830895109277021092760210925402CC
:10373000109253020C94E81881E080935202609337
:103740007502109254021092530208950F93062F9F
:1037500021E04091530265E572E0809175020E947C
:103760004E191092540210925302109252020F916D
:1037700008954F925F926F927F92AF92BF92CF92D5
:10378000EF92FF920F931F93CF93DF935C01F62E7E
:10379000D42F28013901EE2021F10E949C1BCE2D4F
:1037A000C43008F0C3E0C150C0F028E0C29FC0019F
:1037B0001124A301920104C056954795379527958A
:1037C0008A95D2F7CA01B901D501ED91FC9101901A
:1037D000F081E02DC5010995E6CF60E0C5010E94AA
:1037E000A61B4D2FD13208F040E22C2D68E772E085
:1037F0008F2D0E9406191092770280937602DF9136
:10380000CF911F910F91FF90EF90CF90BF90AF900D
:103810007F906F905F904F900895CF92EF920F93AB
:103820001F93C22EE12C00E010E098010E94B91B0A
:103830001F910F91EF90CF90089521E00C940D1CF3
:1038400061E00C94A61B86E492E00C94821B505815
:10385000BB27AA270E943F1C0C94291E0E941B1EF6
:1038600038F00E94221E20F039F49F3F19F426F40C
:103870000C94F11D0EF4E095E7FB0C94EB1DE92F81
:103880000E943A1E58F3BA17620773078407950718
:1038900020F079F4A6F50C945C1E0EF4E0950B2E46
:1038A000BA2FA02D0B01B90190010C01CA01A00192
:1038B0001124FF27591B99F0593F50F4503E68F1ED
:1038C0001A16F040A22F232F342F4427585FF3CF2E
:1038D000469537952795A795F0405395C9F77EF4FF
:1038E0001F16BA0B620B730B840BBAF09150A1F048
:1038F000FF0FBB1F661F771F881FC2F70EC0BA0FCE
:10390000621F731F841F48F4879577956795B79555
:10391000F7959E3F08F0B0CF9395880F08F0992750
:10392000EE0F9795879508950E941B1E60F080E822
:1039300091E009F49EEF0E94221E28F040E851E039
:1039400071F45EEF0CC00C94F11D0C945C1EE92F19
:10395000E0780E943A1E40F3092E052AB1F326179B
:1039600037074807590738F00E2E07F8E02569F0A9
:10397000E025E0640AC0EF6307F8009407FADB0172
:10398000B9019D01DC01CA01AD01EF930E941D1D2B
:103990000E94291E0E94D71C5F91552339F02BED00
:1039A0003FE049E450FD49EC0C94281C0895DF9356
:1039B000DD27B92FBF7740E85FE3161617064807E3
:1039C0005B0718F4D92F0E94631E9F938F937F93F8
:1039D0006F930E941E1FE8E6F0E00E94F41D0E9413
:1039E000291E2F913F914F915F910E947E1EDD23F2
:1039F00051F09058A2EA2AED3FE049EC5FE3D0781D
:103A00005D270E943F1CDF910C94291E0E941A1D05
:103A10000C94291E0E94221E58F00E941B1E40F08A
:103A200029F45F3F29F00C94EB1D51110C945D1E9D
:103A30000C94F11D0E943A1E68F39923B1F35523AB
:103A400091F3951B550BBB27AA27621773078407B1
:103A500038F09F5F5F4F220F331F441FAA1FA9F347
:103A600035D00E2E3AF0E0E832D091505040E69535
:103A7000001CCAF72BD0FE2F29D0660F771F881F96
:103A8000BB1F261737074807AB07B0E809F0BB0B89
:103A9000802DBF01FF2793585F4F3AF09E3F51059D
:103AA00078F00C94EB1D0C945D1E5F3FE4F3983EA0
:103AB000D4F3869577956795B795F7959F5FC9F786
:103AC000880F911D9695879597F90895E1E0660F07
:103AD000771F881FBB1F621773078407BA0720F080
:103AE000621B730B840BBA0BEE1F88F7E0950895E9
:103AF0000E947F1D6894B1110C945D1E08950E9470
:103B0000421E88F09F5798F0B92F9927B751B0F00F
:103B1000E1F0660F771F881F991F1AF0BA95C9F751
:103B200014C0B13091F00E945C1EB1E008950C9475
:103B30005C1E672F782F8827B85F39F0B93FCCF328
:103B4000869577956795B395D9F73EF490958095CE
:103B5000709561957F4F8F4F9F4F0895E89409C0EE
:103B600097FB3EF490958095709561957F4F8F4FB0
:103B70009F4F9923A9F0F92F96E9BB279395F695C6
:103B8000879577956795B795F111F8CFFAF4BB0F44
:103B900011F460FF1BC06F5F7F4F8F4F9F4F16C0A8
:103BA000882311F096E911C0772321F09EE8872F32
:103BB000762F05C0662371F096E8862F70E060E0EE
:103BC0002AF09A95660F771F881FDAF7880F969567
:103BD000879597F9089597F99F6780E870E060E00E
:103BE00008959FEF80EC0895DF93CF931F930F9379
:103BF000FF92EF92DF927B018C01689406C0DA2E6F
:103C0000EF010E947E1EFE01E894A5912591359159
:103C100045915591A6F3EF010E943F1CFE019701CB
:103C2000A801DA9469F7DF90EF90FF900F911F9150
:103C3000CF91DF91089500240A94161617061806EE
:103C40000906089500240A941216130614060506A0
:103C50000895092E0394000C11F4882352F0BB0F31
:103C600040F4BF2B11F460FF04C06F5F7F4F8F4F94
:103C70009F4F089557FD9058440F551F59F05F3FCF
:103C800071F04795880F97FB991F61F09F3F79F07E
:103C900087950895121613061406551FF2CF469500
:103CA000F1DF08C0161617061806991FF1CF869582
:103CB0007105610508940895E894BB276627772766
:103CC000CB0197F908959B01AC0160E070E080E8BA
:103CD0009FE30C94061D0E947E1E0C94291E0E94D8
:103CE0001B1E38F00E94221E20F0952311F00C9428
:103CF000EB1D0C94F11D11240C945D1E0E943A1EC4
:103D000070F3959FC1F3950F50E0551F629FF0012E
:103D1000729FBB27F00DB11D639FAA27F00DB11D47
:103D2000AA1F649F6627B00DA11D661F829F2227D0
:103D3000B00DA11D621F739FB00DA11D621F839F57
:103D4000A00D611D221F749F3327A00D611D231F2D
:103D5000849F600D211D822F762F6A2F11249F577B
:103D600050409AF0F1F088234AF0EE0FFF1FBB1F7E
:103D7000661F771F881F91505040A9F79E3F51053D
:103D800080F00C94EB1D0C945D1E5F3FE4F3983EB5
:103D9000D4F3869577956795B795F795E7959F5FE7
:103DA000C1F7FE2B880F911D9695879597F9089579
:103DB00019F416F40C94F11D0C94221F0E94421E5B
:103DC000B8F39923C9F3B6F39F57550B87FF0E94A9
:103DD000301F0024A0E640EA900180585695979540
:103DE00028F4805C660F771F881F20F0261737079E
:103DF000480730F4621B730B840B202931294A2BAE
:103E0000A69517940794202531254A2758F7660F61
:103E1000771F881F20F026173707480730F4620BFA
:103E2000730B840B200D311D411DA09581F7B90145
:103E3000842F9158880F9695879508959B01AC0122
:103E40000C946B1E9F3F31F0915020F4879577952D
:103E50006795B795880F911D9695879597F9089561
:103E600091505040660F771F881FD2F70895FC01CC
:103E7000918D228D892F90E0805C9F4F821B91094C
:103E80008F7399270895FC01918D828D981731F0D9
:103E9000828DE80FF11D858D90E008958FEF9FEFE3
:103EA0000895FC01918D828D981761F0828DDF015C
:103EB000A80FB11D5D968C91928D9F5F9F73928F1D
:103EC00090E008958FEF9FEF08958AEB90E2892BA1
:103ED00049F080E090E0892B29F00E94BA208111FE
:103EE0000C9400000895FC01848DDF01A80FB11D22
:103EF000A35ABF4F2C91848D90E001968F73992720
:103F0000848FA689B7892C93A089B1898C9180640C
:103F10008C93938D848D981306C00288F389E02DCD
:103F200080818F7D80830895EF92FF920F931F937E
:103F3000CF93DF93EC0181E0888F9B8D8C8D98135C
:103F400005C0E889F989808185FD24C0F62E0B8D96
:103F500010E00F5F1F4F0F731127E02E8C8DE812BA
:103F60000CC00FB607FCFACFE889F989808185FF7C
:103F7000F5CFCE010E94731FF1CF8B8DFE01E80FAC
:103F8000F11DE35AFF4FF0820B8FEA89FB89808194
:103F9000806207C0EE89FF896083E889F9898081A2
:103FA0008064808381E090E0DF91CF911F910F9139
:103FB000FF90EF900895CF93DF93EC01888D8823D5
:103FC000C9F0EA89FB89808185FD05C0A889B98986
:103FD0008C9186FD0FC00FB607FCF5CF808185FF61
:103FE000F2CFA889B9898C9185FFEDCFCE010E94CF
:103FF000731FE7CFDF91CF910895CF92DF92EF92B9
:10400000FF921F93CF93DF93EC016A017B01122F84
:10401000E889F98982E080834115514E6105710577
:10402000B1F060E079E08DE390E0A70196010E9495
:104030007E25DA01C9010197A109B109B695A795B5
:10404000979587959C01211580E13807A8F0E889AC
:10405000F989108260E874E88EE190E0A70196018A
:104060000E947E25DA01C9010197A109B109B6951F
:10407000A795979587959C01EC85FD853083EE8506
:10408000FF852083188EEC89FD891083EA89FB89DE
:10409000808180618083EA89FB8980818860808358
:1040A000EA89FB89808180688083EA89FB89808135
:1040B0008F7D8083DF91CF911F91FF90EF90DF90F4
:1040C000CF9008951F920F920FB60F9211242F9345
:1040D0008F939F93EF93FF93E091A802F091A90231
:1040E0008081E091AE02F091AF0282FD12C090811A
:1040F0008091B1028F5F8F732091B202821751F0CD
:10410000E091B102F0E0E856FD4F958F8093B10247
:1041100001C08081FF91EF919F918F912F910F901E
:104120000FBE0F901F9018951F920F920FB60F920F
:1041300011242F933F934F935F936F937F938F93AC
:104140009F93AF93BF93EF93FF9388E992E00E9410
:10415000731FFF91EF91BF91AF919F918F917F91CD
:104160006F915F914F913F912F910F900FBE0F90E4
:104170001F90189588E992E00E94371F21E0892B53
:1041800009F420E0822F0895E8E9F2E01382128218
:1041900088EE93E0A0E0B0E084839583A683B783A4
:1041A00085E291E09183808385EC90E09587848718
:1041B00084EC90E09787868780EC90E0918B808BF1
:1041C00081EC90E0938B828B82EC90E0958B848BDA
:1041D00086EC90E0978B868B118E128E138E148E48
:1041E000089508950E947B240E94F1200E942518C2
:1041F000C5E6DFE10E94FA162097E1F30E94651FF1
:10420000F9CFCF92DF92EF92FF920F931F93CF934C
:10421000DF936C017A018B01C0E0D0E0CE15DF05A1
:1042200081F0D8016D918D01D601ED91FC91019045
:10423000F081E02DC6010995892B11F02196EECF72
:104240007E01C701DF91CF911F910F91FF90EF90F9
:10425000DF90CF9008956115710579F0FB01019011
:104260000020E9F73197AF01461B570BDC01ED91B8
:10427000FC910280F381E02D099480E090E00895A4
:10428000EF92FF920F931F93CF93DF938C017B01EB
:10429000C0E0D0E0F701EC0FFD1F6491662361F0F0
:1042A000D801ED91FC910190F081E02DC8010995B4
:1042B000892B11F02196EECFCE01DF91CF911F9186
:1042C0000F91FF90EF9008950C942B21DC01ED915C
:1042D000FC910190F081E02D099461E371E00C9470
:1042E0002B210F931F93CF93DF93EC010E9440216A
:1042F0008C01CE010E946D21800F911FDF91CF9123
:104300001F910F9108958F929F92AF92BF92CF927B
:10431000DF92EF92FF920F931F93CF93DF93CDB76E
:10432000DEB7A1970FB6F894DEBF0FBECDBF6C010C
:10433000142FE52FCB01022F19A2223008F40AE036
:104340007E0121E2E20EF11C802E912CA12CB12CD9
:10435000612F7E2FA50194010E947E25029F1019D6
:10436000112481E0E81AF1081A3010F4105D01C040
:10437000195CF7011083122FE32FCA01232B242B82
:10438000252B31F7B701C6010E942B21A1960FB64C
:10439000F894DEBF0FBECDBFDF91CF911F910F917B
:1043A000FF90EF90DF90CF90BF90AF909F908F9055
:1043B00008952115310541F4DC01ED91FC91019046
:1043C000F081E02D642F09940C9483219A01462FEB
:1043D00050E060E070E00C94D9210F931F93CF93CD
:1043E000DF93EC010E94E6218C01CE010E946D2139
:1043F000800F911FDF91CF911F910F9108959A0126
:10440000AB0160E070E00C94D9210F931F93CF9320
:10441000DF93EC010E94FF218C01CE010E946D21EF
:10442000800F911FDF91CF911F910F910895CF922F
:10443000DF92EF92FF920F931F93CF93DF9321159B
:10444000310581F4DC01ED91FC910190F081E02DCA
:10445000642FDF91CF911F910F91FF90EF90DF902C
:10446000CF9009942A30310501F577FF1DC06A010C
:104470007B01EC016DE20E9466218C0144275527E7
:10448000BA014C195D096E097F092AE0CE010E942C
:104490008321800F911FDF91CF911F910F91FF908A
:1044A000EF90DF90CF9008952AE0DF91CF911F9198
:1044B0000F91FF90EF90DF90CF900C9483219A01A1
:1044C000AB01770F660B770B0C9417220F931F939A
:1044D000CF93DF93EC010E945F228C01CE010E94FA
:1044E0006D21800F911FDF91CF911F910F91089542
:1044F0007F928F929F92AF92BF92CF92DF92EF9274
:10450000FF920F931F93CF93DF938C016A017B017E
:10451000722E9A01AB01C701B6010E94792588234A
:1045200019F064E371E027C046015701E894B7F839
:104530002FEF3FEF4FE75FE7C501B4010E947925F8
:1045400081110DC02FEF3FEF4FE75FE7C501B401C9
:104550000E944B2518161CF468E371E00CC02FEF85
:104560003FEF4FE75FE4C701B6010E9474251816BC
:1045700094F46CE371E0C801DF91CF911F910F912A
:10458000FF90EF90DF90CF90BF90AF909F908F9073
:104590007F900C942B212FEF3FEF4FE75FECC7018B
:1045A000B6010E944B2587FDE4CF20E030E0A90151
:1045B000C701B6010E944B2587FF0AC06DE2C80102
:1045C0000E946621EC01F7FAF094F7F8F09402C02B
:1045D000C0E0D0E0B12C60E070E080E09FE37B14AD
:1045E00041F020E030E040E251E40E94061DB39427
:1045F000F6CFA70196010E94281C6B017C010E9446
:104600007F1D4B015C012AE0AB01BC01C8010E9487
:104610008321C80FD91F7720C9F1C501B4010E94B9
:10462000AE1D9B01AC01C701B6010E94271C6B01A6
:104630007C0160E471E0C8010E942B21C80FD91FE2
:1046400020E030E040E251E4C701B6010E946B1E59
:104650004B015C010E94781D6B017C014AE050E037
:10466000C8010E945F22C80FD91FB601DD0C880B5C
:10467000990B0E94B01D9B01AC01C501B4010E94C1
:10468000271C6B017C017A947110DACFCE01DF9187
:10469000CF911F910F91FF90EF90DF90CF90BF903F
:1046A000AF909F908F907F9008950C9478220F93F5
:1046B0001F93CF93DF93EC010E9478228C01CE01EF
:1046C0000E946D21800F911FDF91CF911F910F915B
:1046D000089508958230E8F4E82FF0E0EE0FFF1F10
:1046E000E85FFE4F71836083813041F08091690003
:1046F0008C7F482B40936900E89A08958091690067
:10470000837F440F551F440F551F482B409369006A
:10471000E99A08951F920F920FB60F9211242F93CA
:104720003F934F935F936F937F938F939F93AF9339
:10473000BF93EF93FF93E0910801F0910901099570
:10474000FF91EF91BF91AF919F918F917F916F9169
:104750005F914F913F912F910F900FBE0F901F903F
:1047600018951F920F920FB60F9211242F933F931B
:104770004F935F936F937F938F939F93AF93BF9369
:10478000EF93FF93E0910A01F0910B010995FF91DE
:10479000EF91BF91AF919F918F917F916F915F91B9
:1047A0004F913F912F910F900FBE0F901F90189532
:1047B0001F920F920FB60F9211242F933F938F9356
:1047C0009F93AF93BF938091360390913703A0914D
:1047D0003803B09139033091350323E0230F2D378F
:1047E00020F40196A11DB11D05C026E8230F0296F5
:1047F000A11DB11D20933503809336039093370399
:10480000A0933803B093390380913A0390913B030E
:10481000A0913C03B0913D030196A11DB11D809371
:104820003A0390933B03A0933C03B0933D03BF91A5
:10483000AF919F918F913F912F910F900FBE0F904D
:104840001F9018952FB7F894609136037091370335
:1048500080913803909139032FBF08953FB7F894A2
:1048600080913A0390913B03A0913C03B0913D03AA
:1048700026B5A89B05C02F3F19F00196A11DB11DBB
:104880003FBFBA2FA92F982F8827820F911DA11DF6
:10489000B11DBC01CD0142E0660F771F881F991F33
:1048A0004A95D1F70895CF92DF92EF92FF92CF937E
:1048B000DF936B017C010E942E24EB01C114D10413
:1048C000E104F10489F00E944A250E942E246C1B09
:1048D0007D0B683E734090F381E0C81AD108E1086F
:1048E000F108C851DC4FEACFDF91CF91FF90EF90F4
:1048F000DF90CF900895789484B5826084BD84B5AC
:10490000816084BD85B5826085BD85B5816085BDCA
:10491000EEE6F0E0808181608083E1E8F0E01082E3
:10492000808182608083808181608083E0E8F0E024
:10493000808181608083E1EBF0E08081846080830E
:10494000E0EBF0E0808181608083EAE7F0E0808145
:1049500084608083808182608083808181608083A5
:104960008081806880831092C1000895833081F037
:1049700028F4813099F08230A1F008958730A9F0B1
:104980008830B9F08430D1F4809180008F7D03C0ED
:10499000809180008F7780938000089584B58F7711
:1049A00002C084B58F7D84BD08958091B0008F775B
:1049B00003C08091B0008F7D8093B0000895CF93A5
:1049C000DF9390E0FC01EB59FC4E2491FC01E75889
:1049D000FC4E8491882361F190E0880F991FFC01BF
:1049E000E956FC4EC591D491FC01E357FC4EA591CC
:1049F000B491611109C09FB7F894888120958223F2
:104A00008883EC912E230BC0623061F49FB7F89439
:104A10008881322F309583238883EC912E2B2C9321
:104A20009FBF06C08FB7F894E8812E2B28838FBFD5
:104A3000DF91CF9108951F93CF93DF93282F30E01C
:104A4000F901EF5AFC4E8491F901EB59FC4ED491D7
:104A5000F901E758FC4EC491CC23C1F0162F811107
:104A60000E94B624EC2FF0E0EE0FFF1FE357FC4E40
:104A7000A591B4919FB7F894111104C08C91D09571
:104A8000D82302C0EC91DE2BDC939FBFDF91CF9146
:104A90001F91089508950E94502508F481E008951B
:104AA000990F0008550FAA0BE0E8FEEF161617063F
:104AB000E807F907C0F012161306E407F50798F0A7
:104AC000621B730B840B950B39F40A2661F0232BC0
:104AD000242B252B21F408950A2609F4A140A6953C
:104AE0008FEF811D811D08950E94502508F48FEFDE
:104AF00008950E945025880B990B0895A1E21A2E63
:104B0000AA1BBB1BFD010DC0AA1FBB1FEE1FFF1F71
:104B1000A217B307E407F50720F0A21BB30BE40BC1
:104B2000F50B661F771F881F991F1A9469F7609508
:104B30007095809590959B01AC01BD01CF010895C2
:104B4000EE0FFF1F0590F491E02D09940F931F9332
:104B5000CF93DF938230910510F482E090E0E091F2
:104B60004003F091410320E030E0A0E0B0E0309756
:104B700019F1408151810281138148175907C8F00A
:104B80008417950769F4109731F012960C931297D9
:104B900013961C9327C0009340031093410322C037
:104BA0002115310519F04217530718F49A01BD0178
:104BB000EF01DF01F801DBCF21153105F9F0281BEA
:104BC000390B2430310580F48A819B816115710590
:104BD00021F0FB019383828304C09093410380936F
:104BE0004003FE01329644C0FE01E20FF31F8193A1
:104BF000919322503109398328833AC020913E0392
:104C000030913F03232B41F42091020130910301A5
:104C100030933F0320933E03209100013091010126
:104C20002115310541F42DB73EB740910401509153
:104C30000501241B350BE0913E03F0913F03E21781
:104C4000F307A0F42E1B3F0B2817390778F0AC01AF
:104C50004E5F5F4F2417350748F04E0F5F1F50938C
:104C60003F0340933E038193919302C0E0E0F0E064
:104C7000CF01DF91CF911F910F910895CF93DF93D3
:104C8000009709F481C0FC01329713821282A0912F
:104C90004003B0914103109781F420813181820F4C
:104CA000931F20913E0330913F032817390751F598
:104CB000F0933F03E0933E0367C0ED0120E030E056
:104CC000CE17DF0740F44A815B819E0141155105F3
:104CD000F1F0EA01F5CFD383C28340815181840F83
:104CE000951FC817D90759F488819981840F951F9A
:104CF0000296918380838A819B819383828321158D
:104D0000310529F4F0934103E09340033DC0E901EC
:104D1000FB83EA8349915991C40FD51FEC17FD0716
:104D200061F480819181840F951F0296E901998336
:104D30008883828193819B838A83E0E0F0E01296EE
:104D40008D919C911397009719F0FD01DC01F7CF2D
:104D50008D919C9111979D012E5F3F4F820F931F64
:104D600020913E0330913F032817390769F43097AB
:104D700029F4109241031092400302C01382128260
:104D8000B0933F03A0933E03DF91CF910895A0E03D
:104D9000B0E0EDECF6E20C94A727EC01009721F4CB
:104DA000CB010E94A625B4C0FC01E60FF71F9C01B1
:104DB00022503109E217F30708F4A8C0D9010D9178
:104DC0001C91119706171707B0F00530110508F46C
:104DD0009BC0C80104978617970708F495C0025036
:104DE0001109061B170B019311936D937C93CF014F
:104DF0000E943E2689C05B01A01AB10A4C01800EB8
:104E0000911EA0914003B0914103612C712CE12CC3
:104E1000F12C109709F446C08D919C911197A8151B
:104E2000B905B1F56C0142E0C40ED11CCA14DB0413
:104E300078F14C018A189B08640142E0C40ED11C31
:104E40001296BC9012971396AC91B5E0CB16D10494
:104E500040F0B282A38391828082D9016D937C93CA
:104E600009C00E5F1F4F800F911FF901918380834E
:104E7000EB2DFA2FE114F10431F0D7011396FC93D6
:104E8000EE93129741C0F0934103E09340033CC07E
:104E90006816790608F43C017D0112960D90BC91CC
:104EA000A02DB7CF80913E0390913F0388169906BD
:104EB000E1F466167706C8F4809100019091010133
:104EC000009741F48DB79EB74091040150910501C0
:104ED000841B950BE817F907C8F4F0933F03E093A0
:104EE0003E03F901718360830FC0CB010E94A625A8
:104EF0007C01009759F0A801BE010E949A27CE01BB
:104F00000E943E26C70104C0CE0102C080E090E0AE
:104F1000CDB7DEB7EEE00C94C327FB01DC0104C083
:104F20008D910190801921F441505040C8F7881BA1
:104F3000990B0895FB01DC0102C001900D924150D4
:104F40005040D8F708952F923F924F925F926F9200
:104F50007F928F929F92AF92BF92CF92DF92EF9209
:104F6000FF920F931F93CF93DF93CDB7DEB7CA1B8A
:104F7000DB0B0FB6F894DEBF0FBECDBF09942A88B5
:104F8000398848885F846E847D848C849B84AA845D
:104F9000B984C884DF80EE80FD800C811B81AA81EA
:104FA000B981CE0FD11D0FB6F894DEBF0FBECDBFB5
:084FB000ED010895F894FFCF14
:104FB800000042032000E80369236923797072091D
:104FC8000000000000531B261BFA1A021B161B25A3
:104FD8001B00000000941F0121371F511F431FDBD6
:104FE8001F0D0A006E616E00696E66006F766600BE
:024FF8002E0089
:00000001FF
