S014000048616C6C546573745F312E332E73726563FE
S11300000C9434000C9446000C9446000C94460066
S11300100C9446000C9446000C9446000C94460044
S11300200C9446000C9446000C9446000C94460034
S11300300C9446000C9446000C9446000C94460024
S11300400C9446000C9446000C9449000C946900EE
S11300500C9446000C9446000C9446000C94460004
S11300600C9446000C94460011241FBECFEFD8E038
S1130070DEBFCDBF21E0A0E0B1E001C01D92A434F9
S1130080B207E1F70E9448000C9493000C9400001E
S1130090FFCF1F920F920FB60F9211248F939F934D
S11300A0EF93FF938091C600E0912301EF5FEF711E
S11300B0E093230190912201F0E0EC5DFE4F8083F8
S11300C0FF91EF919F918F910F900FBE0F901F9012
S11300D018951F920F920FB60F9211248F939F932E
S11300E0EF93FF939091010180910001981769F0BB
S11300F0E0910001EF5FEF71E0930001F0E0EE5F4B
S1130100FE4F80818093C60005C0E1ECF0E0808161
S11301108F7D8083FF91EF919F918F910F900FBE00
S10D01200F901F901895F894FFCF7C
S9030000FC
