S01B00004D6F746F72436F6E74726F6C5F546573745F312E7372656388
S11300000C9434000C9446000C9446000C94460066
S11300100C9446000C9446000C9446000C94460044
S11300200C9446000C9446000C9446000C94460034
S11300300C9446000C9446000C9446000C94460024
S11300400C9446000C9446000C949C000C94BC0048
S11300500C9446000C9446000C9446000C94460004
S11300600C9446000C94460011241FBECFEFD8E038
S1130070DEBFCDBF21E0A0E0B1E001C01D92A434F9
S1130080B207E1F70E9448000C940C010C940000A4
S113009088E084B988E68AB91092B3001092B4005B
S11300A0E0EBF0E0808180688083808180628083DF
S11300B0808189608083E1EBF0E0808182608083CD
S11300C0569A559A259A279817BC18BC84B5806807
S11300D084BD84B5806284BD84B5896084BD85B5E2
S11300E0826085BDEBE6F0E0808180688083E8E68D
S11300F0F0E080818160808387E690E00E948C003C
S113010078940E94E600C82F0E94E6008A30E1F746
S11301108C2F0E94F700F5CF9093C5008093C40004
S113012088E98093C1001092220110922301109259
S113013000011092010108951F920F920FB60F92C1
S113014011248F939F93EF93FF938091C600E091C6
S11301502301EF5FEF71E093230190912201F0E01E
S1130160EC5DFE4F8083FF91EF919F918F910F90F3
S11301700FBE0F901F9018951F920F920FB60F92FB
S113018011248F939F93EF93FF939091010180919A
S11301900001981769F0E0910001EF5FEF71E093BF
S11301A00001F0E0EE5FFE4F80818093C60005C041
S11301B0E1ECF0E080818F7D8083FF91EF919F914E
S11301C08F910F900FBE0F901F901895909123015F
S11301D0809122019817D1F3E0912201EF5FEF7132
S11301E0E0932201F0E0EC5DFE4F808108952091C0
S11301F001012F5F2F71909100012917E1F3E22F84
S1130200F0E0EE5FFE4F808320930101E1ECF0E02B
S10F02108081806280830895F894FFCF01
S9030000FC
