S02600004368657373626F6172645F41646170746976655F436F6E74726F6C6C65722E73726563F0
S11300000C9434000C9446000C9446000C94460066
S11300100C9468000C9446000C9446000C944A001E
S11300200C9446000C9446000C9446000C94540026
S11300300C9446000C9446000C945E000C9446000C
S11300400C94A9000C9446000C9446000C944600B1
S11300500C9446000C9446000C9446000C94460004
S11300600C9446000C94460011241FBECFEFD8E038
S1130070DEBFCDBF21E0A0E0B1E001C01D92AD30F4
S1130080B207E1F70E949A000C942E010C94000030
S1130090089508951F920F920FB60F9211240F9096
S11300A00FBE0F901F9018951F920F920FB60F92CC
S11300B011240F900FBE0F901F9018951F920F924E
S11300C00FB60F9211240F900FBE0F901F9018952A
S11300D01F920F920FB60F9211248F939F93AF9399
S11300E0BF93EF93FF93E0910201F091030183B179
S11300F0A0910001B09101019C9189278083E09136
S11301000001F091010183B18083E0910201F0913B
S11301100301808184FD96B185FD86B1FF91EF9145
S1130120BF91AF919F918F910F900FBE0F901F9031
S1130130189508950E94F3000E9499000E944800B7
S1130140C0E0D0E00E9449002097E1F30E94000043
S1130150F9CF1F920F920FB60F9211242F933F9352
S11301608F939F93AF93BF93809105019091060164
S1130170A0910701B09108013091040123E0230FFD
S11301802D3720F40196A11DB11D05C026E8230FCB
S11301900296A11DB11D2093040180930501909343
S11301A00601A0930701B093080180910901909181
S11301B00A01A0910B01B0910C010196A11DB11D82
S11301C08093090190930A01A0930B01B0930C0151
S11301D0BF91AF919F918F913F912F910F900FBE3F
S11301E00F901F901895789484B5826084BD84B56F
S11301F0816084BD85B5826085BD85B5816085BD1E
S1130200EEE6F0E0808181608083E1E8F0E0108236
S1130210808182608083808181608083E0E8F0E077
S1130220808181608083E1EBF0E080818460808361
S1130230E0EBF0E0808181608083EAE7F0E0808198
S113024084608083808182608083808181608083F8
S11302508081806880831092C1000895F894FFCF54
S9030000FC
