S01100006D6F76655F746573742E737265633D
S11300000C945D000C947A000C947A000C94B60065
S11300100C947A000C947A000C947A000C947A0074
S11300200C947A000C947A000C947A000C947A0064
S11300300C947A000C947A000C947A000C947A0054
S11300400C940E040C947A000C947A000C947A00AC
S11300500C947A000C947A000C947A000C947A0034
S11300600C947A000C947A0000000008000201004D
S1130070000304070000000000000000010204085F
S113008010204080010204081020010204081020FE
S1130090040404040404040402020202020203032A
S11300A00303030300000000250028002B000000C8
S11300B00000240027002A00E30011241FBECFEF14
S11300C0D8E0DEBFCDBF21E0A0E0B1E001C01D92C9
S11300D0A332B207E1F710E0CDE5D0E004C02197E8
S11300E0FE010E944D05CC35D107C9F70E947C0062
S11300F00C9462050C940000209880916B00816040
S113010080936B008091680081608093680040E078
S113011050E060E273E480E091E00E942E0161E02F
S113012080E091E00E94680180E091E00E94350245
S113013060E476E080E090E00E947D04789440E002
S113014050E060E273E480E091E00E942E0144E11B
S113015050E060E070E080E091E00E94F90164E624
S113016070E080E090E00E947D04E9CF1F920F923E
S11301700FB60F9211242F933F934F935F936F9376
S11301807F938F939F93AF93BF93EF93FF93189BAA
S113019002C060E003C0189905C061E080E091E00E
S11301A00E946801FF91EF91BF91AF919F918F9150
S11301B07F916F915F914F913F912F910F900FBE5F
S11301C00F901F901895EF92FF920F931F9387E063
S11301D0E82EF12C06E010E025E030E040E150E0AC
S11301E068EC70E080E091E00E94FB001F910F91A9
S11301F0FF90EF900895EF92FF920F931F93FC01ED
S1130200822F718360835383428340E157E260E02D
S113021070E0448355836683778310861186128643
S113022013861486158616861786108A118A128AF2
S1130230138A248B358B068B178BE08EF18E61E04D
S11302400E94CE0461E0802F0E94CE0461E08E2DD6
S11302501F910F91FF90EF900C94CE04CF92DF92F8
S1130260EF92FF92CF93DF93EC016A017B016881E7
S11302707981072E000C880B990B0E941503A701A6
S113028096010E94A1036B017C016A817B81072E88
S1130290000C880B990B0E9415039B01AC01C7014C
S11302A0B6010E94A1039B01AC0160EC71EE84E6EF
S11302B09CE40E9472020E94E4026C837D838E831C
S11302C09F83DF91CF91FF90EF90DF90CF900895BF
S11302D0662311F060E001C061E0FC0184890C94A4
S11302E00A0577FF02C061E001C060E0FC01868975
S11302F00C940A050F931F93CF93DF93EC010885A9
S113030019852A853B85DB01CA01B695A795979582
S11303108795800F911FA21FB31F8C879D87AE877F
S1130320BF87400F511F621F731F488B598B6A8B05
S11303307B8B80179107A207B307E8F00E9458044B
S11303400C851D852E853F856017710782079307ED
S1130350A8F360E0888D0E940A05488959896A8952
S11303607B8988859985AA85BB85481759076A07BB
S11303707B0768F422C00E9458040C851D852E85D5
S11303803F856017710782079307ACF3E2CF0E94A1
S11303905804088919892A893B89601771078207DB
S11303A09307A8F30E945804688779878A879B87F4
S11303B0DF91CF911F910F9108950E9458040889ED
S11303C019892A893B896017710782079307ACF35F
S11303D0E9CFCF93DF93EC0161E0888D0E940A0599
S11303E04C815D816E817F81CE01DF91CF910C9430
S11303F07A01CF92DF92EF92FF92CF93DF93EC01D9
S1130400AA81BB819A01AB010E9445056B017C0165
S1130410AB01BC01CE010E9471010E94580468879F
S113042079878A879B87C601D701B7FF07C0B09534
S1130430A095909581959F4FAF4FBF4F6C017D0163
S1130440C114D104E104F10449F0CE010E94E90190
S113045081E0C81AD108E108F108F2CFDF91CF9109
S1130460FF90EF90DF90CF900895CF92DF92EF92BC
S1130470FF92CF93DF93EC01CC80DD80EE80FF8090
S1130480D701C60123E0880F991FAA1FBB1F2A9515
S1130490D1F78C839D83AE83BF8344E050E060E05A
S11304A070E0CE010E94F90168EC70E080E090E019
S11304B00E947D044CEF5FEF6FEF7FEFCE010E944F
S11304C0F90168EC70E080E090E00E947D04CC8249
S11304D0DD82EE82FF82DF91CF91FF90EF90DF907B
S11304E0CF9008950E9486020C9467030E946003D3
S11304F058F00E94590340F029F45F3F29F00C940E
S1130500500351110C949B030C9456030E947803DE
S113051068F39923B1F3552391F3951B550BBB272E
S1130520AA2762177307840738F09F5F5F4F220F73
S1130530331F441FAA1FA9F335D00E2E3AF0E0E86A
S113054032D091505040E695001CCAF72BD0FE2FB4
S113055029D0660F771F881FBB1F26173707480748
S1130560AB07B0E809F0BB0B802DBF01FF27935800
S11305705F4F3AF09E3F510578F00C9450030C9471
S11305809B035F3FE4F3983ED4F386957795679594
S1130590B795F7959F5FC9F7880F911D9695879535
S11305A097F90895E1E0660F771F881FBB1F621754
S11305B073078407BA0720F0621B730B840BBA0B12
S11305C0EE1F88F7E09508950E94800388F09F57F6
S11305D098F0B92F9927B751B0F0E1F0660F771F63
S11305E0881F991F1AF0BA95C9F714C0B13091F059
S11305F00E949A03B1E008950C949A03672F782F10
S11306008827B85F39F0B93FCCF38695779567951D
S1130610B395D9F73EF490958095709561957F4F89
S11306208F4F9F4F0895E89409C097FB3EF490952F
S11306308095709561957F4F8F4F9F4F9923A9F0B7
S1130640F92F96E9BB279395F69587957795679546
S1130650B795F111F8CFFAF4BB0F11F460FF1BC08A
S11306606F5F7F4F8F4F9F4F16C0882311F096E91D
S113067011C0772321F09EE8872F762F05C06623CB
S113068071F096E8862F70E060E02AF09A95660F84
S1130690771F881FDAF7880F9695879597F908953D
S11306A097F99F6780E870E060E008959FEF80EC21
S11306B0089500240A9416161706180609060895C4
S11306C000240A9412161306140605060895092E2A
S11306D00394000C11F4882352F0BB0F40F4BF2B99
S11306E011F460FF04C06F5F7F4F8F4F9F4F0895D9
S11306F057FD9058440F551F59F05F3F71F04795CF
S1130700880F97FB991F61F09F3F79F087950895B3
S1130710121613061406551FF2CF4695F1DF08C0D2
S1130720161617061806991FF1CF869571056105EF
S113073008940895E894BB2766277727CB0197F997
S113074008950E94B4030C9467030E94590338F07F
S11307500E94600320F0952311F00C9450030C9434
S1130760560311240C949B030E94780370F3959F05
S1130770C1F3950F50E0551F629FF001729FBB2794
S1130780F00DB11D639FAA27F00DB11DAA1F649F30
S11307906627B00DA11D661F829F2227B00DA11DE3
S11307A0621F739FB00DA11D621F839FA00D611D69
S11307B0221F749F3327A00D611D231F849F600D8A
S11307C0211D822F762F6A2F11249F5750409AF0B3
S11307D0F1F088234AF0EE0FFF1FBB1F661F771F3F
S11307E0881F91505040A9F79E3F510580F00C940A
S11307F050030C949B035F3FE4F3983ED4F3869537
S113080077956795B795F795E7959F5FC1F7FE2BA9
S1130810880F911D9695879597F908951F920F92C9
S11308200FB60F9211242F933F938F939F93AF93FF
S1130830BF9380911B0190911C01A0911D01B09167
S11308401E0130911A0123E0230F2D3720F4019665
S1130850A11DB11D05C026E8230F0296A11DB11DDF
S113086020931A0180931B0190931C01A0931D01F6
S1130870B0931E0180911F0190912001A09121014C
S1130880B09122010196A11DB11D80931F01909387
S11308902001A0932101B0932201BF91AF919F91B8
S11308A08F913F912F910F900FBE0F901F9018952D
S11308B03FB7F89480911F0190912001A0912101EC
S11308C0B091220126B5A89B05C02F3F19F00196CF
S11308D0A11DB11D3FBFBA2FA92F982F8827820FC2
S11308E0911DA11DB11DBC01CD0142E0660F771F12
S11308F0881F991F4A95D1F70895CF92DF92EF92FE
S1130900FF92CF93DF936B017C010E945804EB01AB
S1130910C114D104E104F10489F00E9439050E9454
S113092058046C1B7D0B683E734090F381E0C81A39
S1130930D108E108F108C851DC4FEACFDF91CF912B
S1130940FF90EF90DF90CF900895833081F028F4EA
S1130950813099F08230A1F008958730A9F0883071
S1130960B9F08430D1F4809180008F7D03C08091F0
S113097080008F7780938000089584B58F7702C0BC
S113098084B58F7D84BD08958091B0008F7703C0B6
S11309908091B0008F7D8093B0000895CF93DF9352
S11309A090E0FC01E458FF4F2491FC01E057FF4F15
S11309B08491882361F190E0880F991FFC01E2552E
S11309C0FF4FC591D491FC01EC55FF4FA591B49113
S11309D0611109C09FB7F894888120958223888388
S11309E0EC912E230BC0623061F49FB7F894888198
S11309F0322F309583238883EC912E2B2C939FBF29
S1130A0006C08FB7F894E8812E2B28838FBFDF911F
S1130A10CF9108951F93CF93DF93282F30E0F901EE
S1130A20E859FF4F8491F901E458FF4FD491F9013B
S1130A30E057FF4FC491CC23C1F0162F81110E94BF
S1130A40A504EC2FF0E0EE0FFF1FEC55FF4FA5912E
S1130A50B4919FB7F894111104C08C91D095D82308
S1130A6002C0EC91DE2BDC939FBFDF91CF911F91ED
S1130A70089508950E945305A59F900DB49F900D6D
S1130A80A49F800D911D11240895B7FF0C943A057D
S1130A900E943A05821B930B0895EE0FFF1F0590E9
S1130AA0F491E02D0994A29FB001B39FC001A39FCC
S1130AB0700D811D1124911DB29F700D811D112493
S10B0AC0911D0895F894FFCF85
S9030000FC
