:100000000C9463000C948B000C948B000C948B006C
:100010000C948B000C948B000C948B000C948B0034
:100020000C948B000C948B000C948B000C948B0024
:100030000C948B000C948B000C948B000C948B0014
:100040000C94B9060C948B000C942D050C945F0550
:100050000C948B000C948B000C948B000C948B00F4
:100060000C948B000C948B0000000008000201002F
:100070000003040700000000000000000102040863
:100080001020408001020408102001020408102002
:10009000040404040404040402020202020203032E
:1000A00003030303000000002300260029000000D2
:1000B0000000250028002B0000000000240027007D
:1000C0002A00D7008F0511241FBECFEFD8E0DEBF76
:1000D000CDBF11E0A0E0B1E0EAE2F1E102C005909D
:1000E0000D92AE31B107D9F721E0AEE1B1E001C028
:1000F0001D92A03EB207E1F710E0C3E6D0E004C0D5
:100100002197FE010E947E08C136D107C9F70E94DF
:10011000BD050C9493080C94000026E040E855E2DD
:1001200060E070E08AE391E00E94C80460E071E062
:100130008AE391E00E940B0660E088E00E94B40729
:1001400040E050E060E273E480E291E00E9422012E
:1001500061E080E291E00E945C0180E291E00E9417
:10016000290260E476E080E090E00C94280788E0C3
:100170000E941F08892B89F480911E0190911F0114
:10018000019690931F0180931E0141E050E060E0D2
:1001900070E080E291E00E94ED0160911E0170919B
:1001A0001F014AE050E08AE391E00C94B206EF921E
:1001B000FF920F931F9387E0E82EF12C06E010E0EA
:1001C00025E030E040E150E068EC70E080E291E052
:1001D0000E94EF001F910F91FF90EF900895EF9212
:1001E000FF920F931F93FC01822F718360835383CF
:1001F000428340E157E260E070E0448355836683C8
:1002000077831086118612861386148615861686C5
:100210001786108A118A128A138A248B358B068BD3
:10022000178BE08EF18E61E00E94B40761E0802FB1
:100230000E94B40761E08E2D1F910F91FF90EF9007
:100240000C94B407CF92DF92EF92FF92CF93DF939B
:10025000EC016A017B0168817981072E000C880B13
:10026000990B0E940903A70196010E9495036B0157
:100270007C016A817B81072E000C880B990B0E9400
:1002800009039B01AC01C701B6010E9495039B01C4
:10029000AC0160EC71EE84E69CE40E9466020E9470
:1002A000D8026C837D838E839F83DF91CF91FF90F3
:1002B000EF90DF90CF900895662311F060E001C0C9
:1002C00061E0FC0184890C94F00777FF02C061E0D3
:1002D00001C060E0FC0186890C94F0070F931F9326
:1002E000CF93DF93EC01088519852A853B85DB01D7
:1002F000CA01B695A79597958795800F911FA21F64
:10030000B31F8C879D87AE87BF87400F511F621F29
:10031000731F488B598B6A8B7B8B80179107A207C1
:10032000B307E8F00E9403070C851D852E853F85E5
:100330006017710782079307A8F360E0888D0E9419
:10034000F007488959896A897B8988859985AA85B2
:10035000BB85481759076A077B0768F422C00E94CB
:1003600003070C851D852E853F8560177107820761
:100370009307ACF3E2CF0E940307088919892A8901
:100380003B896017710782079307A8F30E94030750
:10039000688779878A879B87DF91CF911F910F911B
:1003A00008950E940307088919892A893B896017E3
:1003B000710782079307ACF3E9CFCF93DF93EC018A
:1003C00061E0888D0E94F0074C815D816E817F81A4
:1003D000CE01DF91CF910C946E01CF92DF92EF921C
:1003E000FF92CF93DF93EC01AA81BB819A01AB010D
:1003F0000E9476086B017C01AB01BC01CE010E941A
:1004000065010E940307688779878A879B87C601F1
:10041000D701B7FF07C0B095A095909581959F4FE4
:10042000AF4FBF4F6C017D01C114D104E104F10451
:1004300049F0CE010E94DD0181E0C81AD108E1082F
:10044000F108F2CFDF91CF91FF90EF90DF90CF9046
:100450000895CF92DF92EF92FF92CF93DF93EC015A
:10046000CC80DD80EE80FF80D701C60123E0880FBD
:10047000991FAA1FBB1F2A95D1F78C839D83AE833A
:10048000BF8344E050E060E070E0CE010E94ED01E7
:1004900068EC70E080E090E00E9428074CEF5FEF8E
:1004A0006FEF7FEFCE010E94ED0168EC70E080E01D
:1004B00090E00E942807CC82DD82EE82FF82DF91ED
:1004C000CF91FF90EF90DF90CF9008950E947A0235
:1004D0000C945B030E94540358F00E944D0340F0BB
:1004E00029F45F3F29F00C94440351110C948F03BD
:1004F0000C944A030E946C0368F39923B1F35523CB
:1005000091F3951B550BBB27AA2762177307840726
:1005100038F09F5F5F4F220F331F441FAA1FA9F3BC
:1005200035D00E2E3AF0E0E832D091505040E695AA
:10053000001CCAF72BD0FE2F29D0660F771F881F0B
:10054000BB1F261737074807AB07B0E809F0BB0BFE
:10055000802DBF01FF2793585F4F3AF09E3F510512
:1005600078F00C9444030C948F035F3FE4F3983EBF
:10057000D4F3869577956795B795F7959F5FC9F7FB
:10058000880F911D9695879597F90895E1E0660F7C
:10059000771F881FBB1F621773078407BA0720F0F5
:1005A000621B730B840BBA0BEE1F88F7E09508955E
:1005B0000E94740388F09F5798F0B92F9927B7517C
:1005C000B0F0E1F0660F771F881F991F1AF0BA95F7
:1005D000C9F714C0B13091F00E948E03B1E00895C4
:1005E0000C948E03672F782F8827B85F39F0B93FB6
:1005F000CCF3869577956795B395D9F73EF49095AA
:100600008095709561957F4F8F4F9F4F0895E89427
:1006100009C097FB3EF490958095709561957F4F4A
:100620008F4F9F4F9923A9F0F92F96E9BB279395F8
:10063000F695879577956795B795F111F8CFFAF408
:10064000BB0F11F460FF1BC06F5F7F4F8F4F9F4F39
:1006500016C0882311F096E911C0772321F09EE897
:10066000872F762F05C0662371F096E8862F70E0FD
:1006700060E02AF09A95660F771F881FDAF7880FD7
:100680009695879597F9089597F99F6780E870E0A8
:1006900060E008959FEF80EC089500240A941616F8
:1006A000170618060906089500240A941216130660
:1006B000140605060895092E0394000C11F48823EE
:1006C00052F0BB0F40F4BF2B11F460FF04C06F5F0A
:1006D0007F4F8F4F9F4F089557FD9058440F551FE0
:1006E00059F05F3F71F04795880F97FB991F61F0B4
:1006F0009F3F79F087950895121613061406551F2B
:10070000F2CF4695F1DF08C0161617061806991F96
:10071000F1CF86957105610508940895E894BB278B
:1007200066277727CB0197F908950E94A8030C94B8
:100730005B030E944D0338F00E94540320F0952380
:1007400011F00C9444030C944A0311240C948F036D
:100750000E946C0370F3959FC1F3950F50E0551FF5
:10076000629FF001729FBB27F00DB11D639FAA2706
:10077000F00DB11DAA1F649F6627B00DA11D661F55
:10078000829F2227B00DA11D621F739FB00DA11D76
:10079000621F839FA00D611D221F749F3327A00D30
:1007A000611D231F849F600D211D822F762F6A2FCC
:1007B00011249F5750409AF0F1F088234AF0EE0F31
:1007C000FF1FBB1F661F771F881F91505040A9F75E
:1007D0009E3F510580F00C9444030C948F035F3FBF
:1007E000E4F3983ED4F3869577956795B795F7959A
:1007F000E7959F5FC1F7FE2B880F911D9695879512
:1008000097F90895FC01918D228D892F90E0805CED
:100810009F4F821B91098F7399270895FC01918D39
:10082000828D981731F0828DE80FF11D858D90E053
:1008300008958FEF9FEF0895FC01918D828D981799
:1008400061F0828DDF01A80FB11D5D968C91928DB4
:100850009F5F9F73928F90E008958FEF9FEF0895B1
:1008600085E895E0892B49F080E090E0892B29F01C
:100870000E94850581110C9400000895FC01848D6F
:10088000DF01A80FB11DA35ABF4F2C91848D90E0BA
:1008900001968F739927848FA689B7892C93A08995
:1008A000B1898C9180648C93938D848D981306C04C
:1008B0000288F389E02D80818F7D80830895EF92F7
:1008C000FF920F931F93CF93DF93EC0181E0888F0A
:1008D0009B8D8C8D981305C0E889F989808185FDF1
:1008E00024C0F62E0B8D10E00F5F1F4F0F731127E2
:1008F000E02E8C8DE8120CC00FB607FCFACFE88909
:10090000F989808185FFF5CFCE010E943E04F1CFA9
:100910008B8DFE01E80FF11DE35AFF4FF0820B8F24
:10092000EA89FB898081806207C0EE89FF89608344
:10093000E889F98980818064808381E090E0DF919B
:10094000CF911F910F91FF90EF900895CF93DF9378
:10095000EC01888D8823C9F0EA89FB89808185FDB7
:1009600005C0A889B9898C9186FD0FC00FB607FC18
:10097000F5CF808185FFF2CFA889B9898C9185FF59
:10098000EDCFCE010E943E04E7CFDF91CF910895D5
:10099000CF92DF92EF92FF921F93CF93DF93EC0100
:1009A0006A017B01122FE889F98982E08083411571
:1009B000514E61057105B1F060E079E08DE390E0A2
:1009C000A70196010E944908DA01C9010197A1090E
:1009D000B109B695A795979587959C01211580E15A
:1009E0003807A8F0E889F989108260E874E88EE198
:1009F00090E0A70196010E944908DA01C901019718
:100A0000A109B109B695A795979587959C01EC85A5
:100A1000FD853083EE85FF852083188EEC89FD8966
:100A20001083EA89FB89808180618083EA89FB8960
:100A3000808188608083EA89FB89808180688083E7
:100A4000EA89FB8980818F7D8083DF91CF911F911F
:100A5000FF90EF90DF90CF9008951F920F920FB606
:100A60000F9211242F938F939F93EF93FF93E09115
:100A70004A01F0914B018081E0915001F0915101C8
:100A800082FD12C09081809153018F5F8F732091FE
:100A90005401821751F0E0915301F0E0E65CFE4F03
:100AA000958F8093530101C08081FF91EF919F91B9
:100AB0008F912F910F900FBE0F901F9018951F923E
:100AC0000F920FB60F9211242F933F934F935F9382
:100AD0006F937F938F939F93AF93BF93EF93FF9306
:100AE0008AE391E00E943E04FF91EF91BF91AF91A4
:100AF0009F918F917F916F915F914F913F912F9136
:100B00000F900FBE0F901F9018958AE391E00E94FE
:100B1000020421E0892B09F420E0822F0895EAE302
:100B2000F1E01382128288EE93E0A0E0B0E08483CB
:100B30009583A683B78381E191E09183808385ECDF
:100B400090E09587848784EC90E09787868780EC97
:100B500090E0918B808B81EC90E0938B828B82EC88
:100B600090E0958B848B86EC90E0978B868B118E32
:100B7000128E138E148E089508950E9450070E94BD
:100B8000BC050E948D00C0E3D4E00E94B70020970E
:100B9000E1F30E943004F9CFCF92DF92EF92FF92FF
:100BA0000F931F93CF93DF936C017A018B01C0E009
:100BB000D0E0CE15DF0581F0D8016D918D01D60111
:100BC000ED91FC910190F081E02DC6010995892BF2
:100BD00011F02196EECF7E01C701DF91CF911F91D9
:100BE0000F91FF90EF90DF90CF9008956115710500
:100BF00079F0FB0101900020E9F73197AF01461B26
:100C0000570BDC01ED91FC910280F381E02D0994FA
:100C100080E090E008950C94F605DC01ED91FC91E4
:100C20000190F081E02D09948F929F92AF92BF9234
:100C3000CF92DF92EF92FF920F931F93CF93DF93A8
:100C4000CDB7DEB7A1970FB6F894DEBF0FBECDBF0C
:100C50006C01142FE52FCB01022F19A2223008F4CA
:100C60000AE07E0121E2E20EF11C802E912CA12CE3
:100C7000B12C612F7E2FA50194010E944908029F8B
:100C80001019112481E0E81AF1081A3010F4105DEF
:100C900001C0195CF7011083122FE32FCA01232B27
:100CA000242B252B31F7B701C6010E94F605A1962A
:100CB0000FB6F894DEBF0FBECDBFDF91CF911F916D
:100CC0000F91FF90EF90DF90CF90BF90AF909F90EB
:100CD0008F900895CF92DF92EF92FF920F931F9320
:100CE000CF93DF932115310581F4DC01ED91FC9167
:100CF0000190F081E02D642FDF91CF911F910F9132
:100D0000FF90EF90DF90CF9009942A30310501F5E4
:100D100077FF1DC06A017B01EC016DE20E940D06A8
:100D20008C0144275527BA014C195D096E097F09CA
:100D30002AE0CE010E941406800F911FDF91CF910F
:100D40001F910F91FF90EF90DF90CF9008952AE0D0
:100D5000DF91CF911F910F91FF90EF90DF90CF9097
:100D60000C9414069A01AB01770F660B770B0C9469
:100D70006A061F920F920FB60F9211242F933F9382
:100D80008F939F93AF93BF938091D8019091D90196
:100D9000A091DA01B091DB013091D70123E0230F5C
:100DA0002D3720F40196A11DB11D05C026E8230FA3
:100DB0000296A11DB11D2093D7018093D801909375
:100DC000D901A093DA01B093DB018091DC0190910D
:100DD000DD01A091DE01B091DF010196A11DB11DE1
:100DE0008093DC019093DD01A093DE01B093DF01DD
:100DF000BF91AF919F918F913F912F910F900FBE17
:100E00000F901F9018953FB7F8948091DC01909156
:100E1000DD01A091DE01B091DF0126B5A89B05C0E0
:100E20002F3F19F00196A11DB11D3FBFBA2FA92F69
:100E3000982F8827820F911DA11DB11DBC01CD01E6
:100E400042E0660F771F881F991F4A95D1F70895D2
:100E5000CF92DF92EF92FF92CF93DF936B017C01F1
:100E60000E940307EB01C114D104E104F10489F0ED
:100E70000E9448080E9403076C1B7D0B683E73406C
:100E800090F381E0C81AD108E108F108C851DC4F9D
:100E9000EACFDF91CF91FF90EF90DF90CF90089550
:100EA000789484B5826084BD84B5816084BD85B545
:100EB000826085BD85B5816085BDEEE6F0E080810C
:100EC00081608083E1E8F0E010828081826080832D
:100ED000808181608083E0E8F0E0808181608083B0
:100EE000E1EBF0E0808184608083E0EBF0E08081E2
:100EF00081608083EAE7F0E0808184608083808184
:100F0000826080838081816080838081806880832B
:100F10001092C1000895833081F028F4813099F057
:100F20008230A1F008958730A9F08830B9F084307C
:100F3000D1F4809180008F7D03C0809180008F77F5
:100F400080938000089584B58F7702C084B58F7D2B
:100F500084BD08958091B0008F7703C08091B00068
:100F60008F7D8093B0000895CF93DF9390E0FC01D4
:100F7000E458FF4F2491FC01E057FF4F84918823F0
:100F800061F190E0880F991FFC01E854FF4FC59173
:100F9000D491FC01E255FF4FA591B491611109C0B4
:100FA0009FB7F8948881209582238883EC912E2323
:100FB0000BC0623061F49FB7F8948881322F30956E
:100FC00083238883EC912E2B2C939FBF06C08FB771
:100FD000F894E8812E2B28838FBFDF91CF9108955D
:100FE0001F93CF93DF93282F30E0F901E859FF4F8B
:100FF0008491F901E458FF4FD491F901E057FF4F74
:10100000C491CC23C1F0162F81110E948B07EC2FC5
:10101000F0E0EE0FFF1FE255FF4FA591B4919FB78F
:10102000F894111104C08C91D095D82302C0EC9192
:10103000DE2BDC939FBFDF91CF911F910895CF935B
:10104000DF93282F30E0F901E859FF4F8491F9012F
:10105000E458FF4FD491F901E057FF4FC491CC23DE
:1010600091F081110E948B07EC2FF0E0EE0FFF1F33
:10107000EC55FF4FA591B491EC91ED2381E090E008
:1010800021F480E002C080E090E0DF91CF910895EC
:101090000895A1E21A2EAA1BBB1BFD010DC0AA1FB9
:1010A000BB1FEE1FFF1FA217B307E407F50720F0D1
:1010B000A21BB30BE40BF50B661F771F881F991F4C
:1010C0001A9469F760957095809590959B01AC0195
:1010D000BD01CF0108950E948408A59F900DB49F83
:1010E000900DA49F800D911D11240895B7FF0C94BD
:1010F0006B080E946B08821B930B0895EE0FFF1F75
:101100000590F491E02D0994A29FB001B39FC00116
:10111000A39F700D811D1124911DB29F700D811D23
:0A1120001124911D0895F894FFCFEB
:10112A0053657269616C20546573740A000000008B
:0E113A00005F04CC0502041C040E04A6040091
:00000001FF
