:100000000C9463000C948B000C948B000C948B006C
:100010000C948B000C948B000C948B000C948B0034
:100020000C948B000C948B000C948B000C948B0024
:100030000C948B000C948B000C948B000C948B0014
:100040000C94FD070C948B000C949F050C94D10527
:100050000C948B000C948B000C948B000C948B00F4
:100060000C948B000C948B0000000008000201002F
:100070000003040700000000000000000102040863
:100080001020408001020408102001020408102002
:10009000040404040404040402020202020203032E
:1000A00003030303000000002300260029000000D2
:1000B0000000250028002B0000000000240027007D
:1000C0002A00B700010611241FBECFEFD8E0DEBF23
:1000D000CDBF11E0A0E0B1E0EAECF3E102C0059091
:1000E0000D92AC32B107D9F721E0ACE2B1E001C02A
:1000F0001D92A13FB207E1F710E0C3E6D0E004C0D3
:100100002197FE010E94CE09C136D107C9F70E948E
:100110002F060C94E3090C94000026E040E855E219
:1001200060E070E08BE491E00E943A0560E071E0ED
:100130008BE491E00E947D0660E088E00E94040963
:1001400040E050E060E273E481E391E00E949401BA
:1001500061E081E391E00E94CE0181E391E00E94A1
:100160009B0260E476E080E090E00C947808EF92E7
:10017000FF920F931F9387E0E82EF12C06E010E02A
:1001800025E030E040E150E068EC70E081E391E090
:100190000E9461011F910F91FF90EF9008958BE4F1
:1001A00091E00E948E04883709F05BC08AE5809355
:1001B0002C011092300110922F0141E060E08BE49D
:1001C00091E00E94970770932E0160932D014AE001
:1001D00050E08BE491E00E94240769E171E08BE438
:1001E00091E00E947D0680912D0190912E011816BC
:1001F00019060CF060C088E00E946F09892B39F560
:1002000080912F019091300101969093300180935D
:100210002F0141E050E060E070E081E391E00E9456
:100220005F0260912F01709130014AE050E08BE451
:1002300091E00E9424076DE071E08BE491E00E9460
:100240007D0664E170E080E090E00E947808809193
:100250002D0190912E01019790932E0180932D01F5
:10026000C2CF893719F080932C0125C08AE580938D
:100270002C0141E060E08BE491E00E9497077093CD
:100280002E0160932D0180912D0190912E01181661
:1002900019068CF44FEF5FEFBA0181E391E00E9401
:1002A0005F0280912D0190912E01019790932E0174
:1002B00080932D01E8CF68EC70E080E090E00C9432
:1002C0007808EF92FF920F931F93FC01822F7183A6
:1002D00060835383428340E157E260E070E04483EF
:1002E000558366837783108611861286138614865B
:1002F000158616861786108A118A128A138A248B0D
:10030000358B068B178BE08EF18E61E00E9404091D
:1003100061E0802F0E94040961E08E2D1F910F91F2
:10032000FF90EF900C940409CF92DF92EF92FF922E
:10033000CF93DF93EC016A017B0168817981072EFD
:10034000000C880B990B0E947B03A70196010E9469
:1003500007046B017C016A817B81072E000C880BEE
:10036000990B0E947B039B01AC01C701B6010E945F
:1003700007049B01AC0160EC71EE84E69CE40E94F2
:10038000D8020E944A036C837D838E839F83DF9112
:10039000CF91FF90EF90DF90CF900895662311F0FA
:1003A00060E001C061E0FC0184890C94400977FFA2
:1003B00002C061E001C060E0FC0186890C94400944
:1003C0000F931F93CF93DF93EC01088519852A853E
:1003D0003B85DB01CA01B695A79597958795800F58
:1003E000911FA21FB31F8C879D87AE87BF87400FC9
:1003F000511F621F731F488B598B6A8B7B8B801731
:100400009107A207B307E8F00E9453080C851D85E9
:100410002E853F856017710782079307A8F360E078
:10042000888D0E944009488959896A897B89888515
:100430009985AA85BB85481759076A077B0768F421
:1004400022C00E9453080C851D852E853F856017AC
:10045000710782079307ACF3E2CF0E945308088923
:1004600019892A893B896017710782079307A8F3C6
:100470000E945308688779878A879B87DF91CF918D
:100480001F910F9108950E945308088919892A899C
:100490003B896017710782079307ACF3E9CFCF93CD
:1004A000DF93EC0161E0888D0E9440094C815D8101
:1004B0006E817F81CE01DF91CF910C94E001CF92CC
:1004C000DF92EF92FF92CF93DF93EC01AA81BB8181
:1004D0009A01AB010E94C6096B017C01AB01BC0112
:1004E000CE010E94D7010E945308688779878A87C6
:1004F0009B87C601D701B7FF07C0B095A09590951F
:1005000081959F4FAF4FBF4F6C017D01C114D10446
:10051000E104F10449F0CE010E944F0281E0C81AC3
:10052000D108E108F108F2CFDF91CF91FF90EF9071
:10053000DF90CF900895CF92DF92EF92FF92CF930A
:10054000DF93EC01CC80DD80EE80FF80D701C60117
:1005500023E0880F991FAA1FBB1F2A95D1F78C8310
:100560009D83AE83BF8344E050E060E070E0CE0145
:100570000E945F0268EC70E080E090E00E947808E2
:100580004CEF5FEF6FEF7FEFCE010E945F0268ECF0
:1005900070E080E090E00E947808CC82DD82EE82FC
:1005A000FF82DF91CF91FF90EF90DF90CF90089581
:1005B0000E94EC020C94CD030E94C60358F00E94E6
:1005C000BF0340F029F45F3F29F00C94B6035111AA
:1005D0000C9401040C94BC030E94DE0368F399237D
:1005E000B1F3552391F3951B550BBB27AA2762172F
:1005F0007307840738F09F5F5F4F220F331F441F3C
:10060000AA1FA9F335D00E2E3AF0E0E832D091506F
:100610005040E695001CCAF72BD0FE2F29D0660F5C
:10062000771F881FBB1F261737074807AB07B0E89F
:1006300009F0BB0B802DBF01FF2793585F4F3AF0A5
:100640009E3F510578F00C94B6030C9401045F3F73
:10065000E4F3983ED4F3869577956795B795F7952B
:100660009F5FC9F7880F911D9695879597F9089513
:10067000E1E0660F771F881FBB1F621773078407AF
:10068000BA0720F0621B730B840BBA0BEE1F88F7BE
:10069000E09508950E94E60388F09F5798F0B92FDF
:1006A0009927B751B0F0E1F0660F771F881F991FA7
:1006B0001AF0BA95C9F714C0B13091F00E94000445
:1006C000B1E008950C940004672F782F8827B85F55
:1006D00039F0B93FCCF3869577956795B395D9F7FF
:1006E0003EF490958095709561957F4F8F4F9F4F09
:1006F0000895E89409C097FB3EF490958095709515
:1007000061957F4F8F4F9F4F9923A9F0F92F96E95D
:10071000BB279395F695879577956795B795F111D2
:10072000F8CFFAF4BB0F11F460FF1BC06F5F7F4F6F
:100730008F4F9F4F16C0882311F096E911C0772381
:1007400021F09EE8872F762F05C0662371F096E88A
:10075000862F70E060E02AF09A95660F771F881F59
:10076000DAF7880F9695879597F9089597F99F6717
:1007700080E870E060E008959FEF80EC0895002429
:100780000A941616170618060906089500240A94F6
:1007900012161306140605060895092E0394000C7C
:1007A00011F4882352F0BB0F40F4BF2B11F460FF0B
:1007B00004C06F5F7F4F8F4F9F4F089557FD905834
:1007C000440F551F59F05F3F71F04795880F97FB15
:1007D000991F61F09F3F79F08795089512161306CF
:1007E0001406551FF2CF4695F1DF08C016161706FE
:1007F0001806991FF1CF8695710561050894089533
:10080000E894BB2766277727CB0197F908950E94C4
:100810001A040C94CD030E94BF0338F00E94C60353
:1008200020F0952311F00C94B6030C94BC03112412
:100830000C9401040E94DE0370F3959FC1F3950FA1
:1008400050E0551F629FF001729FBB27F00DB11D54
:10085000639FAA27F00DB11DAA1F649F6627B00DE4
:10086000A11D661F829F2227B00DA11D621F739FCD
:10087000B00DA11D621F839FA00D611D221F749FDB
:100880003327A00D611D231F849F600D211D822F22
:10089000762F6A2F11249F5750409AF0F1F0882349
:1008A0004AF0EE0FFF1FBB1F661F771F881F915076
:1008B0005040A9F79E3F510580F00C94B6030C946C
:1008C00001045F3FE4F3983ED4F3869577956795EE
:1008D000B795F795E7959F5FC1F7FE2B880F911DA0
:1008E0009695879597F90895FC01918D228D892F12
:1008F00090E0805C9F4F821B91098F739927089528
:10090000FC01918D828D981731F0828DE80FF11DD9
:10091000858D90E008958FEF9FEF0895FC01918DF4
:10092000828D981761F0828DDF01A80FB11D5D9651
:100930008C91928D9F5F9F73928F90E008958FEFBF
:100940009FEF089587EF95E0892B49F080E090E0D4
:10095000892B29F00E94F70581110C94000008955D
:10096000FC01848DDF01A80FB11DA35ABF4F2C914C
:10097000848D90E001968F739927848FA689B7891B
:100980002C93A089B1898C9180648C93938D848DF4
:10099000981306C00288F389E02D80818F7D8083C3
:1009A0000895EF92FF920F931F93CF93DF93EC0183
:1009B00081E0888F9B8D8C8D981305C0E889F9891B
:1009C000808185FD24C0F62E0B8D10E00F5F1F4F38
:1009D0000F731127E02E8C8DE8120CC00FB607FCA8
:1009E000FACFE889F989808185FFF5CFCE010E9491
:1009F000B004F1CF8B8DFE01E80FF11DE35AFF4FDC
:100A0000F0820B8FEA89FB898081806207C0EE89C2
:100A1000FF896083E889F98980818064808381E02F
:100A200090E0DF91CF911F910F91FF90EF9008958B
:100A3000CF93DF93EC01888D8823C9F0EA89FB8985
:100A4000808185FD05C0A889B9898C9186FD0FC07C
:100A50000FB607FCF5CF808185FFF2CFA889B98951
:100A60008C9185FFEDCFCE010E94B004E7CFDF91DE
:100A7000CF910895CF92DF92EF92FF921F93CF9381
:100A8000DF93EC016A017B01122FE889F98982E08A
:100A900080834115514E61057105B1F060E079E048
:100AA0008DE390E0A70196010E949909DA01C9013E
:100AB0000197A109B109B695A795979587959C01CE
:100AC000211580E13807A8F0E889F989108260E8EB
:100AD00074E88EE190E0A70196010E949909DA017D
:100AE000C9010197A109B109B695A7959795879571
:100AF0009C01EC85FD853083EE85FF852083188E73
:100B0000EC89FD891083EA89FB898081806180837B
:100B1000EA89FB89808188608083EA89FB898081FA
:100B200080688083EA89FB8980818F7D8083DF9163
:100B3000CF911F91FF90EF90DF90CF9008951F927B
:100B40000F920FB60F9211242F938F939F93EF93D1
:100B5000FF93E0915B01F0915C018081E091610184
:100B6000F091620182FD12C09081809164018F5FDB
:100B70008F7320916501821751F0E0916401F0E0DC
:100B8000E55BFE4F958F8093640101C08081FF91EA
:100B9000EF919F918F912F910F900FBE0F901F900B
:100BA00018951F920F920FB60F9211242F933F9317
:100BB0004F935F936F937F938F939F93AF93BF9365
:100BC000EF93FF938BE491E00E94B004FF91EF91CB
:100BD000BF91AF919F918F917F916F915F914F9155
:100BE0003F912F910F900FBE0F901F9018958BE49F
:100BF00091E00E94740421E0892B09F420E0822F07
:100C00000895EBE4F1E01382128288EE93E0A0E015
:100C1000B0E084839583A683B7838FE191E09183CD
:100C2000808385EC90E09587848784EC90E09787BB
:100C3000868780EC90E0918B808B81EC90E0938BA9
:100C4000828B82EC90E0958B848B86EC90E0978B86
:100C5000868B118E128E138E148E089508950E9425
:100C6000A0080E942E060E948D00C2EAD4E00E94D5
:100C7000CF002097E1F30E94A204F9CFCF92DF9238
:100C8000EF92FF920F931F93CF93DF936C017A0142
:100C90008B01C0E0D0E0CE15DF0581F0D8016D9169
:100CA0008D01D601ED91FC910190F081E02DC601FE
:100CB0000995892B11F02196EECF7E01C701DF91B6
:100CC000CF911F910F91FF90EF90DF90CF900895FB
:100CD0006115710579F0FB0101900020E9F731976A
:100CE000AF01461B570BDC01ED91FC910280F381B3
:100CF000E02D099480E090E008950C946806DC01F2
:100D0000ED91FC910190F081E02D09948F929F92DA
:100D1000AF92BF92CF92DF92EF92FF920F931F9309
:100D2000CF93DF93CDB7DEB7A1970FB6F894DEBFB0
:100D30000FBECDBF6C01142FE52FCB01022F19A2DE
:100D4000223008F40AE07E0121E2E20EF11C802E3E
:100D5000912CA12CB12C612F7E2FA50194010E9412
:100D60009909029F1019112481E0E81AF1081A303C
:100D700010F4105D01C0195CF7011083122FE32FEE
:100D8000CA01232B242B252B31F7B701C6010E9462
:100D90006806A1960FB6F894DEBF0FBECDBFDF91F7
:100DA000CF911F910F91FF90EF90DF90CF90BF9068
:100DB000AF909F908F900895CF92DF92EF92FF9225
:100DC0000F931F93CF93DF932115310581F4DC013D
:100DD000ED91FC910190F081E02D642FDF91CF9196
:100DE0001F910F91FF90EF90DF90CF9009942A30E0
:100DF000310501F577FF1DC06A017B01EC016DE251
:100E00000E947F068C0144275527BA014C195D09C1
:100E10006E097F092AE0CE010E948606800F911F8D
:100E2000DF91CF911F910F91FF90EF90DF90CF90C6
:100E300008952AE0DF91CF911F910F91FF90EF90DD
:100E4000DF90CF900C9486069A01AB01770F660B6A
:100E5000770B0C94DC060F931F93CF93DF93EC0179
:100E60000E944708688779878A879B87E881F9818C
:100E70000084F185E02DCE01099597FF17C00E94EF
:100E80004708088519852A853B85DC01CB01801B35
:100E9000910BA20BB30B0C811D812E813F8180171A
:100EA0009107A207B30710F38FEF9FEFDF91CF9168
:100EB0001F910F9108950F931F93CF93DF93EC0130
:100EC000162F042FCE010E942B0797FD2BC08D32C9
:100ED000910509F19C01205331092A30310510F1A7
:100EE000002319F08E329105C1F01130C9F0123093
:100EF00051F48D30910539F024F40997029718F0D8
:100F00000FC0809769F4E881F9810680F781E02DB0
:100F1000CE010995D7CF8DE201C08EE290E002C0EC
:100F20008FEF9FEFDF91CF911F910F910895BF92A7
:100F3000CF92DF92EF92FF920F931F93CF93DF93A5
:100F40008C01C42F40E00E945B07FC0197FD45C067
:100F5000C12CD12C7601B12CD0E0EC17FD0709F1A2
:100F6000ED32F105E1F0CF01C0970A97D0F4AAE085
:100F7000B0E0A70196010E94BB096F01FF0FEE08C8
:100F8000FF08DC01CB018C0D9D1DAE1DBF1D6C014A
:100F90007D0120E3C21AD108E108F10802C0BB2498
:100FA000B394D801ED91FC910680F781E02DC80142
:100FB0000995C8010E942B07FC01C0970A9768F2A7
:100FC000CE17DF0751F2BB2061F066277727CB01F0
:100FD0006C197D098E099F0906C060E070E0CB01A5
:100FE00002C0C701B601DF91CF911F910F91FF9011
:100FF000EF90DF90CF90BF9008951F920F920FB6A1
:101000000F9211242F933F938F939F93AF93BF938E
:101010008091E9019091EA01A091EB01B091EC017E
:101020003091E80123E0230F2D3720F40196A11D14
:10103000B11D05C026E8230F0296A11DB11D209306
:10104000E8018093E9019093EA01A093EB01B0934A
:10105000EC018091ED019091EE01A091EF01B09132
:10106000F0010196A11DB11D8093ED019093EE0159
:10107000A093EF01B093F001BF91AF919F918F9139
:101080003F912F910F900FBE0F901F9018952FB783
:10109000F8946091E9017091EA018091EB019091DF
:1010A000EC012FBF08953FB7F8948091ED01909126
:1010B000EE01A091EF01B091F00126B5A89B05C00B
:1010C0002F3F19F00196A11DB11D3FBFBA2FA92FC7
:1010D000982F8827820F911DA11DB11DBC01CD0144
:1010E00042E0660F771F881F991F4A95D1F7089530
:1010F000CF92DF92EF92FF92CF93DF936B017C014F
:101100000E945308EB01C114D104E104F10489F0F9
:101110000E9498090E9453086C1B7D0B683E734027
:1011200090F381E0C81AD108E108F108C851DC4FFA
:10113000EACFDF91CF91FF90EF90DF90CF900895AD
:10114000789484B5826084BD84B5816084BD85B5A2
:10115000826085BD85B5816085BDEEE6F0E0808169
:1011600081608083E1E8F0E010828081826080838A
:10117000808181608083E0E8F0E08081816080830D
:10118000E1EBF0E0808184608083E0EBF0E080813F
:1011900081608083EAE7F0E08081846080838081E1
:1011A0008260808380818160808380818068808389
:1011B0001092C1000895833081F028F4813099F0B5
:1011C0008230A1F008958730A9F08830B9F08430DA
:1011D000D1F4809180008F7D03C0809180008F7753
:1011E00080938000089584B58F7702C084B58F7D89
:1011F00084BD08958091B0008F7703C08091B000C6
:101200008F7D8093B0000895CF93DF9390E0FC0131
:10121000E458FF4F2491FC01E057FF4F849188234D
:1012200061F190E0880F991FFC01E854FF4FC591D0
:10123000D491FC01E255FF4FA591B491611109C011
:101240009FB7F8948881209582238883EC912E2380
:101250000BC0623061F49FB7F8948881322F3095CB
:1012600083238883EC912E2B2C939FBF06C08FB7CE
:10127000F894E8812E2B28838FBFDF91CF910895BA
:101280001F93CF93DF93282F30E0F901E859FF4FE8
:101290008491F901E458FF4FD491F901E057FF4FD1
:1012A000C491CC23C1F0162F81110E94DB08EC2FD2
:1012B000F0E0EE0FFF1FE255FF4FA591B4919FB7ED
:1012C000F894111104C08C91D095D82302C0EC91F0
:1012D000DE2BDC939FBFDF91CF911F910895CF93B9
:1012E000DF93282F30E0F901E859FF4F8491F9018D
:1012F000E458FF4FD491F901E057FF4FC491CC233C
:1013000091F081110E94DB08EC2FF0E0EE0FFF1F3F
:10131000EC55FF4FA591B491EC91ED2381E090E065
:1013200021F480E002C080E090E0DF91CF91089549
:101330000895A1E21A2EAA1BBB1BFD010DC0AA1F16
:10134000BB1FEE1FFF1FA217B307E407F50720F02E
:10135000A21BB30BE40BF50B661F771F881F991FA9
:101360001A9469F760957095809590959B01AC01F2
:10137000BD01CF0108950E94D409A59F900DB49F8F
:10138000900DA49F800D911D11240895B7FF0C941A
:10139000BB090E94BB09821B930B0895EE0FFF1F30
:1013A0000590F491E02D0994A29FB001B39FC00174
:1013B000A39F700D811D1124911DB29F700D811D81
:0A13C0001124911D0895F894FFCF49
:1013CA0053657269616C20546573740A0020546114
:1013DA006B656E2073746570730A0000000000D19B
:0C13EA00043E0674048E04800418050004
:00000001FF
