S00D0000456D7074792E7372656308
S11300000C9464000C948C000C948C000C94FA02F4
S11300100C94FA020C94FA020C948C000C948C004C
S11300200C948C000C948C000C948C000C948C001C
S11300300C948C000C948C000C948C000C948C000C
S11300400C94310E0C948C000C94370C0C94690CA9
S11300500C948C000C948C000C948C000C948C00EC
S11300600C948C000C948C00000000080002010029
S1130070000304070000000000000000010204085F
S113008010204080010204081020010204081020FE
S1130090040404040404040402020202020203032A
S11300A003030303000000002300260029000000CE
S11300B00000250028002B00000000002400270079
S11300C02A00AD00990CC00011241FBECFEFD8E068
S11300D0DEBFCDBF16E0A0E0B1E0EAECF5E202C07D
S11300E005900D92A23CB107D9F727E0A2ECB6E047
S11300F001C01D92AD3DB207E1F710E0C3E6D0E0C8
S113010004C02197FE010E94A410C136D107C9F78B
S11301100E94C70C0C94D8120C940000CF93DF9368
S113012026E040E855E260E070E083E397E00E9457
S1130130D20B40E855E260E070E082EC96E00E9469
S1130140F803C8E0D1E061E088810E942C0F60E0F0
S11301508881DF91CF910C94680F6AE071E087EE9B
S113016096E00E94051068E271E081EE96E00E943C
S1130170051020E04BE06AE082EC96E00C94CD039D
S113018082EC96E00E94740381EE96E00E94970F41
S113019087EE96E00C94970FCF93DF93CDB7DEB73D
S11301A02C970FB6F894DEBF0FBECDBF83E397E064
S11301B00E940C0B892B09F41CC183E397E00E9475
S11301C0260B8093EE06813389F46BE271E0CE0155
S11301D001960E940510CE0101960E948604CE016C
S11301E001960E94970F81E00E942C068091EE06F2
S11301F0823389F466E471E0CE0101960E94051011
S1130200CE0101960E948604CE0101960E94970FAA
S113021086E00E943A058091EE06833381F46DE511
S113022071E0CE0101960E940510CE0101960E9454
S11302308604CE0101960E94970F0E94B604809115
S1130240EE06843349F560E771E0CE0101960E9421
S11302500510CE0101960E948604CE0101960E94EB
S1130260970F67EE76E0CE0101960E94311065E9A2
S113027071E0CE0107960E940510BE016F5F7F4FAB
S1130280CE0107960E94E209CE0107960E94970FBD
S1130290CE0101960E94970F8091EE068533E1F41A
S11302A06FE971E0CE0101960E940510CE0101961E
S11302B00E948604CE0101960E94970F65E971E0C1
S11302C0CE0101960E940510CE0101960E94D80A23
S11302D0CE0101960E94970F8091EE06863349F570
S11302E06EEB71E0CE0101960E940510CE010196DD
S11302F00E948604CE0101960E94970F61EE76E07B
S1130300CE0101960E94311065E971E0CE01079695
S11303100E940510BE016F5F7F4FCE0107960E94B9
S11303202D0ACE0107960E94970FCE0101960E94D6
S1130330970F8091EE068733E1F467EE71E0CE010A
S113034001960E940510CE0101960E948604CE01FA
S113035001960E94970F65E971E0CE0101960E9413
S11303600510CE0101960E94D707CE0101960E9486
S1130370970F8091EE068833E1F468E072E0CE01D5
S113038001960E940510CE0101960E948604CE01BA
S113039001960E94970F6DE172E0CE0101960E94D2
S11303A00510CE0101960E94D80ACE0101960E9442
S11303B0970F8091EE068933E1F467E272E0CE0193
S11303C001960E940510CE0101960E948604CE017A
S11303D001960E94970F6CE372E0CE0101960E9491
S11303E00510CE0101960E94D80ACE0101960E9402
S11303F0970F82EC96E00E94A302892B89F066E4B1
S113040072E083E397E00E94230D82EC96E00E9461
S1130410190240E150E0BC0183E397E00E941F0E03
S11304202C960FB6F894DEBF0FBECDBFDF91CF91EF
S11304300895209131073091320728173907B9F40C
S11304409091EF068091F006981789F0E091EF06FD
S1130450F0E0EF50F94F80812091EF0630E02F5FFC
S11304603F4F2F7333272093EF0690E008958FEFCB
S11304709FEF08951F93CF93DF93DC015C968D91DA
S11304809C915D97009739F421E030E013963C93FA
S11304902E9312973BC05196ED91FC915297509632
S11304A02C915097322F30951FB75E964C915E97E2
S11304B0742F727041FD6095F8944081772311F098
S11304C0422B01C043234083EC012197F1F748E01C
S11304D0508160FF02C0522B01C053235083EC01B2
S11304E02197F1F76695415099F78081772319F0A8
S11304F08323808302C0282B20831FBF5C968D91A9
S11305009C915D970197F1F781E090E0DF91CF91A5
S11305101F910895089520913107309132072817CB
S1130520390771F49091EF068091F006981741F025
S1130530E091EF06F0E0EF50F94F808190E00895EC
S11305408FEF9FEF089520913107309132072817DC
S1130550390771F48091F0062091EF0690E0805CF9
S11305609F4F821B910960E470E00E943B10089544
S113057080E090E00895E0913107F0913207E817A8
S1130580F90769F4A389B4899C91858980958923A5
S11305908C93109232071092310781E0089580E025
S11305A00895CF93DF93EC018A8D9B8D892BF1F015
S11305B08091310790913207C817D907B9F0009795
S11305C011F00E94BB028E8D8E7F8E8F1092F006EA
S11305D01092EF06D0933207C0933107EB89FC8960
S11305E090818D89892B808381E001C080E0DF9137
S11305F0CF9108951F920F920FB60F9211242F934B
S11306003F934F935F936F937F938F939F93AF9396
S1130610BF93EF93FF93E0913107F0913207309746
S113062009F451C0968DA685B785858591FF04C0D0
S11306309C91892329F447C09C91892309F043C0E4
S1130640A389B4899C918589809589238C93868913
S113065097890197F1F7608D718DA685B7855585CA
S113066038E020E0CB010197F1F7822F90E09595D7
S11306708795282F4C91452309F02068315091F734
S1130680868D81FD20958091F00690E001968F7310
S113069099273091EF06381749F0A091F006B0E0A1
S11306A0AF50B94F2C938093F00603C0868D8160C0
S11306B0868F828D938D0197F1F7A389B4899C91DC
S11306C08589892B8C93FF91EF91BF91AF919F9175
S11306D08F917F916F915F914F913F912F910F90E7
S11306E00FBE0F901F9018952AE632E0FC0131836B
S11306F020830C94BB021F93CF93DF93EC01162F3E
S11307006E8D6695617081E06827812F0E94680F65
S113071061E0812F0E942C0F812F90E0FC01E458AE
S1130720FF4FE491E88BFC01E057FF4FE491F0E0C8
S1130730EE0FFF1FE255FF4F859194919A8B898BA1
S1130740DF91CF911F9108951F93CF93DF93EC0115
S1130750162F60E0812F0E942C0F8E8D81FD04C026
S113076061E0812F0E94680F1C87812F90E0FC01BB
S1130770E458FF4FE491ED87FC01E057FF4FE4910B
S1130780F0E0EE0FFF1FEC55FF4F859194919F878A
S11307908E87DF91CF911F9108951F93CF93DF939D
S11307A0EC01162F1B821A8288EE93E0A0E0B0E0E1
S11307B08C839D83AE83BF838AE692E0998388838A
S11307C01F8A1E8A198E188E1B8E1A8E1D8E1C8EE1
S11307D08E8D8E7F20FB81F98E8F642FCE010E9437
S11307E07B03612FCE01DF91CF911F910C94A40361
S11307F0CF93DF93EC019A01AB011B8E1A8E198EF5
S1130800188E1F8A1E8A60E079E08DE390E00E94D2
S11308107110F9012430310518F0C901039702C0A1
S113082081E090E09D8F8C8F6C85663108F069C003
S1130830C901969587958431910510F0439702C0BC
S113084081E090E09F8B8E8B369718F0C901059755
S113085002C081E090E0998F888FC901880F991FA9
S1130860280F391F36952795369527952D30310554
S113087018F02C50310902C021E030E03B8F2A8F60
S113088090916800683050F021E06E3008F420E068
S113089081E001C0880F2A95EAF701C084E0892B22
S11308A0809368009C85983038F09E3040F09631F3
S11308B048F020E030E008C02DE630E005C02BE62B
S11308C030E002C02CE630E03C8B2B8B983030F4C7
S11308D081E001C0880F9A95EAF70EC0292F30E015
S11308E09E3018F42850310902C02E50310981E09D
S11308F001C0880F2A95EAF78D8B8C8D9D8D019709
S1130900F1F7CE01DF91CF910C94D102CF93DF9315
S1130910EC0166E772E083E397E00E94420D65EB29
S113092076E083E397E00E94420DBE0183E397E003
S11309300E94300D6DE872E083E397E0DF91CF9180
S11309400C94420DCF93DF93C8E0D1E061E088813D
S11309500E94680F68EE73E080E090E00E94A00EB1
S113096060E08881DF91CF910C94680F67E582EC99
S113097096E00E943A026BEA82EC96E00E943A0208
S113098065E082EC96E00E943A0264EA72E083E356
S113099097E00E94420D68EC70E080E090E00C94D7
S11309A0A00ECF93DF93EC0167EC72E083E397E052
S11309B00E94230DBE0183E397E00E94300D67E59A
S11309C082EC96E00E943A026BEA82EC96E00E9486
S11309D03A026FE282EC96E00E943A026FE282EC05
S11309E096E00E943A02BE0182EC96E00E94150D48
S11309F060E082EC96E00E943A0264E170E080E0FC
S1130A0090E0DF91CF910C94A00E0F931F93CF939E
S1130A10DF938C01C0E0D0E082EC96E00E94A30258
S1130A20892BD9F461E070E080E090E00E94A00E90
S1130A30219680910601909107018C179D0764F718
S1130A406CED72E083E397E00E94230DB80183E329
S1130A5097E00E94300DC0E001C0C1E061E070E0A9
S1130A6080E090E00E94A00E8C2FDF91CF911F9127
S1130A700F910895CF93C82F67E582EC96E00E940A
S1130A803A026BEA82EC96E00E943A0265E182EC5B
S1130A9096E00E943A026C2F82EC96E00E943A02A1
S1130AA064E170E080E090E00E94A00E82EC96E0A9
S1130AB00E94A302892BB1F182EC96E00E941902F4
S1130AC08093ED068135D1F468E073E083E397E029
S1130AD00E94420D82EC96E00E9419028093ED067A
S1130AE0853149F46AE273E083E397E00E94420DA2
S1130AF00E94A20417C069E373E002C068E573E0D2
S1130B0083E397E00E94230D40E150E06091ED06FD
S1130B1083E397E00E94B70D66E573E083E397E013
S1130B200E94420D64E170E080E090E0CF910C946B
S1130B30A00ECF93DF9364E773E083E397E00E9412
S1130B40420D67E582EC96E00E943A026BEA82EC81
S1130B5096E00E943A026CE082EC96E00E943A022F
S1130B6068E682EC96E00E943A0264E670E080E077
S1130B7090E00E94A00E66E873E083E397E00E9491
S1130B80230D82EC96E00E94A302892B31F082ECC3
S1130B9096E00E941902EC0102C0C0E0D0E082ECB1
S1130BA096E00E94A302892B69F082EC96E00E94F1
S1130BB019022FEFAC01249FC001259F900D112431
S1130BC0C80FD91F82EC96E00E94A302892B81F002
S1130BD082EC96E00E94190221E03EEFAC01429FB4
S1130BE0C001439F900D529F900D1124C80FD91F2F
S1130BF082EC96E00E94A302892B81F082EC96E0BD
S1130C000E9419022FEF32E0AC01429FC001439FC2
S1130C10900D529F900D1124C80FD91F4AE050E047
S1130C20BE0183E397E00E941F0E6AE070E080E05B
S1130C3090E00E94A00ECE01DF91CF91089582EC46
S1130C4096E00E94A302892B29F082EC96E00E9490
S1130C501902089580E008950F931F93CF93DF93B3
S1130C6000D000D000D0CDB7DEB7182F67E582ECF6
S1130C7096E00E943A026BEA82EC96E00E943A0205
S1130C8066E082EC96E00E943A02612F82EC96E0E4
S1130C900E943A0261E973E0CE0101960E940510B8
S1130CA0CE0101960E940505082FCE0101960E94EF
S1130CB0970F0023C9F00E941F0690E02FEF30E049
S1130CC0211B31098217930749F465EA73E083E332
S1130CD097E00E94420D0E94A20406C06BEC73E0F0
S1130CE083E397E00E94230D26960FB6F894DEBFA7
S1130CF00FBECDBFDF91CF911F910F9108951F9328
S1130D00CF93DF9300D000D000D0CDB7DEB76BEE29
S1130D1073E083E397E00E94420D67E582EC96E07E
S1130D200E943A026BEA82EC96E00E943A0260E387
S1130D3082EC96E00E943A026FE074E0CE010196E4
S1130D400E940510CE0101960E940505182FCE01C0
S1130D5001960E94970F112389F00E941F06843187
S1130D6039F466E274E083E397E00E94420D06C022
S1130D706CE374E083E397E00E94230D26960FB69C
S1130D80F894DEBF0FBECDBFDF91CF911F910895C0
S1130D901F93CF93DF9300D000D000D0CDB7DEB740
S1130DA069E574E083E397E00E94420D67E582EC15
S1130DB096E00E943A026BEA82EC96E00E943A02C4
S1130DC061E382EC96E00E943A026BE674E0CE01A5
S1130DD001960E940510CE0101960E940505182F68
S1130DE0CE0101960E94970F112389F00E941F06DD
S1130DF0843139F46DE774E083E397E00E94420D97
S1130E0006C06FE874E083E397E00E94230D269602
S1130E100FB6F894DEBF0FBECDBFDF91CF911F9107
S1130E2008951F93CF93DF9300D000D000D0CDB7A7
S1130E30DEB76AEA74E083E397E00E94420D67E557
S1130E4082EC96E00E943A026BEA82EC96E00E9401
S1130E503A0262E382EC96E00E943A0268EB74E0A4
S1130E60CE0101960E940510CE0101960E9405054F
S1130E70182FCE0101960E94970F112389F00E942A
S1130E801F06843139F462EC74E083E397E00E9436
S1130E90420D06C06DED74E083E397E00E94230DDC
S1130EA026960FB6F894DEBF0FBECDBFDF91CF916B
S1130EB01F9108951F93CF93DF9300D000D000D0EB
S1130EC0CDB7DEB7182F67E582EC96E00E943A02B0
S1130ED06BEA82EC96E00E943A026AE382EC96E0C6
S1130EE00E943A02612F82EC96E00E943A0260E08E
S1130EF082EC96E00E943A0263EF74E0CE01019620
S1130F000E940510CE0101960E940505182FCE01FE
S1130F1001960E94970F112329F00E941F0691E069
S1130F208D3109F090E0892F26960FB6F894DEBF34
S1130F300FBECDBFDF91CF911F9108951F93CF9323
S1130F40DF9300D000D000D0CDB7DEB767E582ECE8
S1130F5096E00E943A026BEA82EC96E00E943A0222
S1130F6064E382EC96E00E943A026FEF74E0CE01F3
S1130F7001960E940510CE0101960E940505182FC6
S1130F80CE0101960E94970F112329F00E941F069B
S1130F9091E0843109F090E0892F26960FB6F894F9
S1130FA0DEBF0FBECDBFDF91CF911F9108951F9378
S1130FB0CF93DF9300D000D000D0CDB7DEB7BC0113
S1130FC0CE0101960E943110CE0101960E94D104F7
S1130FD0CE0101960E94970F64E170E080E090E0FA
S1130FE00E94A00E67E582EC96E00E943A026BEA4A
S1130FF082EC96E00E943A0265E382EC96E00E945D
S11310003A026DE075E0CE0101960E940510CE0112
S113101001960E940505182FCE0101960E94970F94
S1131020112351F00E941F06843131F46BE175E005
S113103083E397E00E94420D26960FB6F894DEBF34
S11310400FBECDBFDF91CF911F9108951F93CF9312
S1131050DF9300D000D000D0CDB7DEB7182F67E5FE
S113106082EC96E00E943A026BEA82EC96E00E94DF
S11310703A0269E382EC96E00E943A02112389F075
S113108060E082EC96E00E943A0260E082EC96E036
S11310900E943A0260E082EC96E00E943A0260E02C
S11310A010C06FEF82EC96E00E943A026FEF82EC80
S11310B096E00E943A026FEF82EC96E00E943A02B8
S11310C06FEF82EC96E00E943A0265E375E0CE0190
S11310D001960E940510CE0101960E940505182F65
S11310E0CE0101960E94970F112351F00E941F0612
S11310F0843131F46AE475E083E397E00E94420DA1
S113110026960FB6F894DEBF0FBECDBFDF91CF9108
S11311101F9108951F93CF93DF9300D000D000D088
S1131120CDB7DEB7182F67E675E083E397E00E943A
S1131130420D67E582EC96E00E943A026BEA82EC8B
S113114096E00E943A0266E382EC96E00E943A023C
S1131150612F82EC96E00E943A0265E775E0CE01C9
S113116001960E940510CE0101960E940505182FD4
S1131170CE0101960E94970F1123C9F00E941F0609
S1131180182F843139F462E875E083E397E00E9414
S1131190420D0DC06DE975E083E397E00E94230DD5
S11311A040E150E0612F83E397E00E94BE0D269654
S11311B00FB6F894DEBF0FBECDBFDF91CF911F9164
S11311C008951F93CF93DF9300D000D000D0CDB704
S11311D0DEB767E582EC96E00E943A026BEA82ECA5
S11311E096E00E943A026BE382EC96E00E943A0297
S11311F060EC75E0CE0101960E940510CE010196C7
S11312000E940505182FCE0101960E94970F112305
S113121029F00E941F0691E0843109F090E0892FA3
S113122026960FB6F894DEBF0FBECDBFDF91CF91E7
S11312301F910895FF920F931F93CF93DF9300D0D4
S113124000D000D0CDB7DEB78C016DEC75E083E340
S113125097E00E94420DF801F480B80183E397E01F
S11312600E94300D6EED75E083E397E00E94230D3C
S11312704AE050E06F2D83E397E00E94BE0D64E6E0
S113128070E080E090E00E94A00E67E582EC96E0BA
S11312900E943A026BEA82EC96E00E943A026CE306
S11312A082EC96E00E943A026F2D82EC96E00E9456
S11312B03A0260E082EC96E00E943A026BEE75E03E
S11312C0CE0101960E940510CE0101960E940505EB
S11312D0F82ECE0101960E94970FFF2009F466C0F4
S11312E00E941F068E3109F061C067E582EC96E02A
S11312F00E943A026BEA82EC96E00E943A026DE2A6
S113130082EC96E00E943A02B80182EC96E00E94D8
S1131310150D6FEF75E0CE0101960E940510CE0108
S113132001960E940505CE0101960E94970F64E183
S113133076E083E397E00E94230D82EC96E00E941E
S1131340190240E150E0BC0183E397E00E94180ECB
S113135066E376E083E397E00E94230D67E582EC81
S113136096E00E943A026BEA82EC96E00E943A020E
S11313706DE382EC96E00E943A0268E376E0CE01E7
S113138001960E940510CE0101960E940505CE012A
S113139001960E94970F82EC96E00E94190240E1A8
S11313A050E0BC0183E397E00E941F0E26960FB61F
S11313B0F894DEBF0FBECDBFDF91CF911F910F9187
S11313C0FF900895EF92FF920F931F93CF93DF93B3
S11313D000D000D000D0CDB7DEB77C018B010E94D5
S11313E0B60486E00E943A050E947F060E94C80661
S11313F0B701CE0101960E943110CE0101960E94E0
S1131400D104CE0101960E94970F0E949E07882363
S113141071F0B801CE0101960E943110CE010196FF
S11314200E941A09CE0101960E94970F06C06BE430
S113143076E083E397E00E94420D81E00E948A08EF
S113144026960FB6F894DEBF0FBECDBFDF91CF91C5
S11314501F910F91FF90EF900895EF92FF920F93D9
S11314601F93CF93DF9300D000D000D0CDB7DEB769
S11314707C018B010E94B60486E00E943A050E941A
S11314807F060E94C806B701CE0101960E94311062
S1131490CE0101960E94D104CE0101960E94970FBD
S11314A00E94110780E00E942608B801CE0101962F
S11314B00E943110CE0101960E941A09CE010196B4
S11314C00E94970F81E00E948A0826960FB6F8942E
S11314D0DEBF0FBECDBFDF91CF911F910F91FF9063
S11314E0EF9008951F93CF93DF9300D000D000D0E6
S11314F0CDB7DEB76BE776E083E397E00E94420D59
S113150080E40E945A07811114C083E397E00E948B
S11315102C0D69E876E083E397E00E94420D26965D
S11315200FB6F894DEBF0FBECDBFDF91CF911F91F0
S1131530089567E582EC96E00E943A026BEA82EC39
S113154096E00E943A0267E282EC96E00E943A0238
S113155066E976E0CE0101960E940510CE0101965F
S11315600E940505182FCE0101960E94970F1123A2
S1131570D1F082EC96E00E94190282EC96E00E947F
S1131580A302892B81F082EC96E00E941902682F55
S113159083E397E00E94690B61E070E080E090E0F3
S11315A00E94A00EEACF0E94E1088111A9CFADCF1D
S11315B00F931F93CF93DF9300D000D000D0CDB70B
S11315C0DEB78C010E94B60486E00E943A050E94B0
S11315D07F060E94C806B801CE0101960E94311010
S11315E0CE0101960E94D104CE0101960E94970F6C
S11315F00E9411070E9499050E94720A80E00E94CD
S11316008A0826960FB6F894DEBF0FBECDBFDF91D1
S1131610CF911F910F910895FC01918D228D892FF7
S113162090E0805C9F4F821B91098F7399270895E6
S1131630FC01918D828D981731F0828DE80FF11D98
S1131640858D90E008958FEF9FEF0895FC01918DB3
S1131650828D981761F0828DDF01A80FB11D5D9610
S11316608C91928D9F5F9F73928F90E008958FEF7E
S11316709FEF08958FE89CE0892B49F080E090E08B
S1131680892B29F00E948F0C81110C94000008957D
S1131690FC01848DDF01A80FB11DA35ABF4F2C910B
S11316A0848D90E001968F739927848FA689B789DA
S11316B02C93A089B1898C9180648C93938D848DB3
S11316C0981306C00288F389E02D80818F7D808382
S11316D00895EF92FF920F931F93CF93DF93EC0142
S11316E081E0888F9B8D8C8D981305C0E889F989DA
S11316F0808185FD24C0F62E0B8D10E00F5F1F4FF7
S11317000F731127E02E8C8DE8120CC00FB607FC66
S1131710FACFE889F989808185FFF5CFCE010E944F
S1131720480BF1CF8B8DFE01E80FF11DE35AFF4FFB
S1131730F0820B8FEA89FB898081806207C0EE8981
S1131740FF896083E889F98980818064808381E0EE
S113175090E0DF91CF911F910F91FF90EF9008954A
S1131760CF93DF93EC01888D8823C9F0EA89FB8944
S1131770808185FD05C0A889B9898C9186FD0FC03B
S11317800FB607FCF5CF808185FFF2CFA889B98910
S11317908C9185FFEDCFCE010E94480BE7CFDF91FE
S11317A0CF910895CF92DF92EF92FF921F93CF9340
S11317B0DF93EC016A017B01122FE889F98982E049
S11317C080834115514E61057105B1F060E079E007
S11317D08DE390E0A70196010E944F10DA01C90140
S11317E00197A109B109B695A795979587959C018D
S11317F0211580E13807A8F0E889F989108260E8AA
S113180074E88EE190E0A70196010E944F10DA017E
S1131810C9010197A109B109B695A795979587952F
S11318209C01EC85FD853083EE85FF852083188E31
S1131830EC89FD891083EA89FB898081806180833A
S1131840EA89FB89808188608083EA89FB898081B9
S113185080688083EA89FB8980818F7D8083DF9122
S1131860CF911F91FF90EF90DF90CF9008951F923A
S11318700F920FB60F9211242F938F939F93EF9390
S1131880FF93E0914307F09144078081E091490779
S1131890F0914A0782FD12C0908180914C078F5FBE
S11318A08F7320914D07821751F0E0914C07F0E0BF
S11318B0ED5CF84F958F80934C0701C08081FF91B8
S11318C0EF919F918F912F910F900FBE0F901F90CA
S11318D018951F920F920FB60F9211242F933F93D6
S11318E04F935F936F937F938F939F93AF93BF9324
S11318F0EF93FF9383E397E00E94480BFF91EF91EE
S1131900BF91AF919F918F917F916F915F914F9113
S11319103F912F910F900FBE0F901F90189583E366
S113192097E00E940C0B21E0892B09F420E0822F20
S11319300895E3E3F7E01382128288EE93E0A0E0D7
S1131940B0E084839583A683B78387EA96E0918386
S1131950808385EC90E09587848784EC90E097877A
S1131960868780EC90E0918B808B81EC90E0938B68
S1131970828B82EC90E0958B848B86EC90E0978B45
S1131980868B118E128E138E148E089508950E94E4
S1131990C80E0E94C60C0E948E00CAE3DBE00E94BF
S11319A0CC002097E1F30E943A0BF9CFCF92DF925B
S11319B0EF92FF920F931F93CF93DF936C017A0101
S11319C08B01C0E0D0E0CE15DF0581F0D8016D9128
S11319D08D01D601ED91FC910190F081E02DC601BD
S11319E00995892B11F02196EECF7E01C701DF9175
S11319F0CF911F910F91FF90EF90DF90CF900895BA
S1131A006115710579F0FB0101900020E9F7319728
S1131A10AF01461B570BDC01ED91FC910280F38171
S1131A20E02D099480E090E00895DB0114964D9137
S1131A305C9115976D917C91DC01ED91FC91028094
S1131A40F381E02D09940C94000DDC01ED91FC91DF
S1131A500190F081E02D099463EB76E00C94000D85
S1131A600F931F93CF93DF93EC010E94150D8C010C
S1131A70CE010E942C0D800F911FDF91CF911F91F9
S1131A800F9108950F931F93CF93DF93EC010E945E
S1131A90000D8C01CE010E942C0D800F911FDF914F
S1131AA0CF911F910F9108958F929F92AF92BF9201
S1131AB0CF92DF92EF92FF920F931F93CF93DF9316
S1131AC0CDB7DEB7A1970FB6F894DEBF0FBECDBF7A
S1131AD06C01142FE52FCB01022F19A2223008F438
S1131AE00AE07E0121E2E20EF11C802E912CA12C51
S1131AF0B12C612F7E2FA50194010E944F10029FEB
S1131B001019112481E0E81AF1081A3010F4105D5C
S1131B1001C0195CF7011083122FE32FCA01232B94
S1131B20242B252B31F7B701C6010E94000DA19685
S1131B300FB6F894DEBF0FBECDBFDF91CF911F91DA
S1131B400F91FF90EF90DF90CF90BF90AF909F9058
S1131B508F9008952115310541F4DC01ED91FC913C
S1131B600190F081E02D642F09940C94540D9A0196
S1131B70462F50E060E070E00C94AA0D0F931F9381
S1131B80CF93DF93EC010E94B70D8C01CE010E942C
S1131B902C0D800F911FDF91CF911F910F9108950C
S1131BA0CF92DF92EF92FF920F931F93CF93DF9325
S1131BB02115310581F4DC01ED91FC910190F08156
S1131BC0E02D642FDF91CF911F910F91FF90EF9043
S1131BD0DF90CF9009942A30310501F577FF1DC0BD
S1131BE06A017B01EC016DE20E94250D8C01442702
S1131BF05527BA014C195D096E097F092AE0CE0107
S1131C000E94540D800F911FDF91CF911F910F916E
S1131C10FF90EF90DF90CF9008952AE0DF91CF916D
S1131C201F910F91FF90EF90DF90CF900C94540D83
S1131C309A01AB01770F660B770B0C94D00D0F93C1
S1131C401F93CF93DF93EC010E94180E8C01CE01F9
S1131C500E942C0D800F911FDF91CF911F910F9146
S1131C6008951F920F920FB60F9211242F933F9352
S1131C708F939F93AF93BF938091D1079091D20795
S1131C80A091D307B091D4073091D00723E0230F5C
S1131C902D3720F40196A11DB11D05C026E8230FA0
S1131CA00296A11DB11D2093D0078093D107909374
S1131CB0D207A093D307B093D4078091D50790910E
S1131CC0D607A091D707B091D8070196A11DB11DE1
S1131CD08093D5079093D607A093D707B093D807DE
S1131CE0BF91AF919F918F913F912F910F900FBE14
S1131CF00F901F9018953FB7F8948091D507909155
S1131D00D607A091D707B091D80726B5A89B05C0E0
S1131D102F3F19F00196A11DB11D3FBFBA2FA92F66
S1131D20982F8827820F911DA11DB11DBC01CD01E3
S1131D3042E0660F771F881F991F4A95D1F70895CF
S1131D40CF92DF92EF92FF92CF93DF936B017C01EE
S1131D500E947B0EEB01C114D104E104F10489F06B
S1131D600E943A100E947B0E6C1B7D0B683E7340F0
S1131D7090F381E0C81AD108E108F108C851DC4F9A
S1131D80EACFDF91CF91FF90EF90DF90CF9008954D
S1131D90789484B5826084BD84B5816084BD85B542
S1131DA0826085BD85B5816085BDEEE6F0E0808109
S1131DB081608083E1E8F0E010828081826080832A
S1131DC0808181608083E0E8F0E0808181608083AD
S1131DD0E1EBF0E0808184608083E0EBF0E08081DF
S1131DE081608083EAE7F0E0808184608083808181
S1131DF08260808380818160808380818068808329
S1131E001092C1000895833081F028F4813099F054
S1131E108230A1F008958730A9F08830B9F0843079
S1131E20D1F4809180008F7D03C0809180008F77F2
S1131E3080938000089584B58F7702C084B58F7D28
S1131E4084BD08958091B0008F7703C08091B00065
S1131E508F7D8093B0000895CF93DF9390E0FC01D1
S1131E60E458FF4F2491FC01E057FF4F84918823ED
S1131E7061F190E0880F991FFC01E854FF4FC59170
S1131E80D491FC01E255FF4FA591B491611109C0B1
S1131E909FB7F8948881209582238883EC912E2320
S1131EA00BC0623061F49FB7F8948881322F30956B
S1131EB083238883EC912E2B2C939FBF06C08FB76E
S1131EC0F894E8812E2B28838FBFDF91CF9108955A
S1131ED01F93CF93DF93282F30E0F901E859FF4F88
S1131EE08491F901E458FF4FD491F901E057FF4F71
S1131EF0C491CC23C1F0162F81110E94030FEC2F43
S1131F00F0E0EE0FFF1FE255FF4FA591B4919FB78C
S1131F10F894111104C08C91D095D82302C0EC918F
S1131F20DE2BDC939FBFDF91CF911F910895FC01BD
S1131F30808191810C944211CF93DF93EC018881CD
S1131F409981009711F00E944211198218821D8212
S1131F501C821B821A82DF91CF9108950F931F93E5
S1131F60CF93DF93EC018B016F5F7F4F8881998161
S1131F700E94CB11009731F0998388831B830A83D5
S1131F8081E001C080E0DF91CF911F910F9108950E
S1131F90CF93DF93EC0188819981892B29F08A8181
S1131FA09B818617970760F4CE010E94AE0F8823A9
S1131FB041F08C819D81892B19F4E881F98110828B
S1131FC081E0DF91CF910895EF92FF920F931F93D9
S1131FD0CF93DF93EC017B018A01BA010E94C80F01
S1131FE0811104C0CE010E949C0F07C01D830C8385
S1131FF0B701888199810E949A12CE01DF91CF9115
S11320001F910F91FF90EF900895FC0111821082AF
S113201013821282158214826115710551F0FB013D
S113202001900020E9F73197AF01461B570B0C9440
S1132030E40F0895CF93DF93EC01FB018617970714
S113204061F0608171816115710529F044815581C8
S11320500E94E40F02C00E949C0FCE01DF91CF9139
S11320600895FC0111821082138212821582148257
S11320700C941A10089597FB072E16F4009407D0B9
S113208077FD09D00E94901007FC05D03EF490958E
S113209081959F4F0895709561957F4F0895A1E2B2
S11320A01A2EAA1BBB1BFD010DC0AA1FBB1FEE1FCE
S11320B0FF1FA217B307E407F50720F0A21BB30B19
S11320C0E40BF50B661F771F881F991F1A9469F795
S11320D060957095809590959B01AC01BD01CF01F1
S11320E00895052E97FB1EF400940E94881057FD56
S11320F007D00E944F1007FC03D04EF40C948810B4
S113210050954095309521953F4F4F4F5F4F08951F
S113211090958095709561957F4F8F4F9F4F08954F
S1132120AA1BBB1B51E107C0AA1FBB1FA617B707F9
S113213010F0A61BB70B881F991F5A95A9F7809515
S11321409095BC01CD010895EE0FFF1F0590F49109
S1132150E02D09940F931F93CF93DF938230910561
S113216010F482E090E0E091DB07F091DC0720E0DE
S113217030E0A0E0B0E0309719F140815181028154
S1132180138148175907C8F08417950769F4109705
S113219031F012960C93129713961C9327C0009358
S11321A0DB071093DC0722C02115310519F0421713
S11321B0530718F49A01BD01EF01DF01F801DBCFE9
S11321C021153105F9F0281B390B2430310580F431
S11321D08A819B816115710521F0FB0193838283C0
S11321E004C09093DC078093DB07FE01329644C061
S11321F0FE01E20FF31F8193919322503109398339
S113220028833AC02091D9073091DA07232B41F46F
S113221020910201309103013093DA072093D9070A
S113222020910001309101012115310541F42DB7B0
S11322303EB74091040150910501241B350BE091F8
S1132240D907F091DA07E217F307A0F42E1B3F0B2E
S11322502817390778F0AC014E5F5F4F2417350714
S113226048F04E0F5F1F5093DA074093D9078193CC
S1132270919302C0E0E0F0E0CF01DF91CF911F9194
S11322800F910895CF93DF93009709F481C0FC0167
S1132290329713821282A091DB07B091DC0710976A
S11322A081F420813181820F931F2091D9073091CD
S11322B0DA072817390751F5F093DA07E093D907BD
S11322C067C0ED0120E030E0CE17DF0740F44A811B
S11322D05B819E0141155105F1F0EA01F5CFD383ED
S11322E0C28340815181840F951FC817D90759F4BF
S11322F088819981840F951F0296918380838A81B6
S11323009B81938382832115310529F4F093DC07A3
S1132310E093DB073DC0E901FB83EA8349915991CE
S1132320C40FD51FEC17FD0761F480819181840FE0
S1132330951F0296E90199838883828193819B8307
S11323408A83E0E0F0E012968D919C9113970097B8
S113235019F0FD01DC01F7CF8D919C9111979D013E
S11323602E5F3F4F820F931F2091D9073091DA07D8
S11323702817390769F4309729F41092DC07109272
S1132380DB0702C013821282B093DA07A093D90745
S1132390DF91CF910895A0E0B0E0E1EDF1E10C947C
S11323A0A512EC01009721F4CB010E94AA10B4C03D
S11323B0FC01E60FF71F9C0122503109E217F307D5
S11323C008F4A8C0D9010D911C911197061717079D
S11323D0B0F00530110508F49BC0C80104978617B6
S11323E0970708F495C002501109061B170B0193B7
S11323F011936D937C93CF010E94421189C05B01BC
S1132400A01AB10A4C01800E911EA091DB07B09175
S1132410DC07612C712CE12CF12C109709F446C0D7
S11324208D919C911197A815B905B1F56C0142E005
S1132430C40ED11CCA14DB0478F14C018A189B0821
S1132440640142E0C40ED11C1296BC9012971396FC
S1132450AC91B5E0CB16D10440F0B282A383918253
S11324608082D9016D937C9309C00E5F1F4F800F4A
S1132470911FF90191838083EB2DFA2FE114F1046C
S113248031F0D7011396FC93EE93129741C0F09369
S1132490DC07E093DB073CC06816790608F43C01CE
S11324A07D0112960D90BC91A02DB7CF8091D907D4
S11324B09091DA0788169906E1F466167706C8F44F
S11324C08091000190910101009741F48DB79EB76E
S11324D04091040150910501841B950BE817F907FD
S11324E0C8F4F093DA07E093D907F90171836083A4
S11324F00FC0CB010E94AA107C01009759F0A801DB
S1132500BE010E949112CE010E944211C70104C073
S1132510CE0102C080E090E0CDB7DEB7EEE00C94CF
S1132520C112FB01DC0102C001900D9241505040E8
S1132530D8F70895FB01DC0101900D920020E1F72A
S113254008952F923F924F925F926F927F928F9253
S11325509F92AF92BF92CF92DF92EF92FF920F932E
S11325601F93CF93DF93CDB7DEB7CA1BDB0B0FB638
S1132570F894DEBF0FBECDBF09942A8839884888F5
S11325805F846E847D848C849B84AA84B984C8848B
S1132590DF80EE80FD800C811B81AA81B981CE0F82
S11325A0D11D0FB6F894DEBF0FBECDBFED01089567
S11325B010E0C3E6D0E004C0FE010E94A4102196FE
S10D25C0C436D107C9F7F894FFCF21
S11325CA0000DD072000D0070D00576861742069F8
S11325DA7320746865206D65616E696E67206F6625
S11325EA206C696665203F00343200434F4D4D41EB
S11325FA4E44313A20434845434B20434F4E4E45BF
S113260A4354494F4E00434F4D4D414E44323A20B4
S113261A7365745F5553425F4D6F646500434F4D54
S113262A4D414E44333A207265736574414C4C00F3
S113263A434F4D4D414E44343A20437265617465AB
S113264A20616E6420577269746520746F2046692C
S113265A6C65203A2054455354342E54585400433C
S113266A4F4D4D414E44353A2052656164204669C6
S113267A6C653A2054455354342E54585400434FED
S113268A4D4D414E44363A20417070656E64206463
S113269A61746120746F2066696C653A20544553ED
S11326AA54342E54585400434F4D4D414E44373AF6
S11326BA2044656C6574652046696C653A20544506
S11326CA5354342E54585400434F4D4D414E4438BC
S11326DA3A20526561642046696C653A2054455330
S11326EA54322E54585400434F4D4D414E44393AB6
S11326FA20526561642046696C653A2054455354F6
S113270A332E545854004348333736532068617380
S113271A206A7573742073656E74207468697320F3
S113272A636F64653A00000000003A02D60CA30203
S113273A19028B028A023D3D3D3D3D3D3D3D3D3DF5
S113274A3D3D3D3D3D3D3D3D3D3D3D3D002D2D2D18
S113275A2D2D2D2D2D2D2D2D2D2D2D2D2D2D2D2D9B
S113276A2D2D2D0054686520434833373653206D88
S113277A6F64756C6520686173206265656E20728A
S113278A6573657420210053657474696E672066E5
S113279A696C656E616D6520746F3A0054696D6584
S11327AA4F75742077616974696E6720666F722049
S11327BA726573706F6E73653A204572726F722018
S11327CA7768696C653A20007365745F5553425F94
S11327DA4D6F646520636F6D6D616E642061636B18
S11327EA6E6F776C6564676564005553422069733C
S11327FA2070726573656E7400555342204E6F746F
S113280A2070726573656E742E204572726F722021
S113281A636F64653A0048004348333736352065A8
S113282A72726F72212020204572726F7220636F58
S113283A64653A0047657474696E672046696C6515
S113284A2053697A650046696C6553697A65203D47
S113285A00636865636B696E6720636F6E6E656398
S113286A74696F6E003E436F6E6E656374696F6E52
S113287A20746F20434833373653207761732073AB
S113288A75636365737366756C2E003E436F6E6E73
S113289A656374696F6E20746F2043483337365307
S11328AA202D204641494C45442E00436865636BFC
S11328BA696E6720555342206469736B20636F6E97
S11328CA6E656374696F6E20737461747573004303
S11328DA6F6E6E656374696E6720746F2055534218
S11328EA206469736B003E436F6E6E656374696F2F
S11328FA6E20746F20555342204F4B003E436F6E37
S113290A6E656374696F6E20746F20555342202D6F
S113291A204641494C45442E004D6F756E74696ECC
S113292A6720555342206469736B006D6F756E742A
S113293A696E6720555342206469736B003E555390
S113294A42204D6F756E746564202D204F4B003EF6
S113295A4661696C656420746F204D6F756E7420CE
S113296A555342206469736B2E004F70656E696E0D
S113297A672066696C652E0066696C65204F706510
S113298A6E003E46696C65206F70656E65642073DF
S113299A75636365737366756C6C792E003E466164
S11329AA696C656420746F206F70656E2066696C4B
S11329BA652E0073657442797465526561640063B7
S11329CA72656174696E672066696C650064656C1A
S11329DA6574696E672066696C650053756363651F
S11329EA737366756C6C792064656C6574656420B0
S11329FA66696C650073657474696E672066696CD0
S1132A0A6520706F696E74657200506F696E7465C3
S1132A1A72207375636365737366756C6C79206170
S1132A2A70706C69656400436C6F73696E672066C5
S1132A3A696C653A00636C6F73696E672066696CCA
S1132A4A65003E46696C6520636C6F736564207328
S1132A5A75636365737366756C6C792E003E4661A3
S1132A6A696C656420746F20636C6F736520666992
S1132A7A6C652E204572726F7220636F64653A002A
S1132A8A636F6E74696E7565526561640057726925
S1132A9A74696E6720746F2066696C653A004461D4
S1132AAA7461204C656E6774683A0073657474695E
S1132ABA6E672064617461204C656E677468007780
S1132ACA726974696E67206461746120746F206628
S1132ADA696C6500577269746520636F64652028A0
S1132AEA6E6F726D616C6C7920464620616E64204B
S1132AFA3134293A20002C007570646174696E6758
S1132B0A2066696C652073697A650046696C65207C
S1132B1A636F756C64206E6F7420626520637265DE
S1132B2A617465642C206F7220697420616C72650B
S1132B3A61647920657869737473005265616469A4
S1132B4A6E672066696C653A004E4F204D4F5245B8
S1132B5A20444154410072656164696E672064616E
S1132B6A74610000000000690BD60C0C0B260B18CC
S1132B7A0BB00B0D0A006E616E00696E66006F760B
S1052B8A6600DF
S9030000FC
