S013000053657269616C5F546573742E73726563B2
S11300000C9435000C945D000C945D000C945D0020
S11300100C945D000C945D000C945D000C945D00E8
S11300200C945D000C945D000C945D000C945D00D8
S11300300C945D000C945D000C945D000C945D00C8
S11300400C949D020C945D000C94A9010C94DB01AA
S11300500C945D000C945D000C945D000C945D00A8
S11300600C945D000C945D000B0211241FBECFEFB5
S1130070D8E0DEBFCDBF11E0A0E0B1E0E8E9F6E0F2
S113008002C005900D92AE32B107D9F721E0AEE27D
S1130090B1E001C01D92A43DB207E1F710E0C5E351
S11300A0D0E004C02197FE010E944403C433D10769
S11300B0C9F70E9439020C944A030C94000026E00C
S11300C040E855E260E070E08EE291E00E94440175
S11300D060E071E08EE291E00C948B028EE291E09C
S11300E00E947E00892B49F08EE291E00E949800E4
S11300F0682F8EE291E00C94DB000895FC01918D51
S1130100228D892F90E0805C9F4F821B91098F7311
S113011099270895FC01918D828D981731F0828D75
S1130120E80FF11D858D90E008958FEF9FEF0895FE
S1130130FC01918D828D981761F0828DDF01A80FEB
S1130140B11D5D968C91928D9F5F9F73928F90E00D
S113015008958FEF9FEF089581E092E0892B49F095
S113016080E090E0892B29F00E94010281110C9417
S113017000000895FC01848DDF01A80FB11DA35A6E
S1130180BF4F2C91848D90E001968F739927848FB3
S1130190A689B7892C93A089B1898C9180648C93AA
S11301A0938D848D981306C00288F389E02D808195
S11301B08F7D80830895EF92FF920F931F93CF93C7
S11301C0DF93EC0181E0888F9B8D8C8D981305C0A3
S11301D0E889F989808185FD24C0F62E0B8D10E015
S11301E00F5F1F4F0F731127E02E8C8DE8120CC088
S11301F00FB607FCFACFE889F989808185FFF5CF2E
S1130200CE010E94BA00F1CF8B8DFE01E80FF11DE3
S1130210E35AFF4FF0820B8FEA89FB898081806269
S113022007C0EE89FF896083E889F9898081806449
S1130230808381E090E0DF91CF911F910F91FF9037
S1130240EF900895CF93DF93EC01888D8823C9F054
S1130250EA89FB89808185FD05C0A889B9898C91CB
S113026086FD0FC00FB607FCF5CF808185FFF2CF66
S1130270A889B9898C9185FFEDCFCE010E94BA007F
S1130280E7CFDF91CF910895CF92DF92EF92FF9263
S11302901F93CF93DF93EC016A017B01122FE8894E
S11302A0F98982E080834115514E61057105B1F0F1
S11302B060E079E08DE390E0A70196010E942203BB
S11302C0DA01C9010197A109B109B695A7959795D6
S11302D087959C01211580E13807A8F0E889F98900
S11302E0108260E874E88EE190E0A70196010E9414
S11302F02203DA01C9010197A109B109B695A795AD
S1130300979587959C01EC85FD853083EE85FF8567
S11303102083188EEC89FD891083EA89FB8980810A
S113032080618083EA89FB89808188608083EA898F
S1130330FB89808180688083EA89FB8980818F7D45
S11303408083DF91CF911F91FF90EF90DF90CF904A
S113035008951F920F920FB60F9211242F938F932B
S11303609F93EF93FF93E0913E01F0913F018081D1
S1130370E0914401F091450182FD12C09081809189
S113038047018F5F8F7320914801821751F0E091EC
S11303904701F0E0E25DFE4F958F8093470101C075
S11303A08081FF91EF919F918F912F910F900FBEBC
S11303B00F901F9018951F920F920FB60F92112451
S11303C02F933F934F935F936F937F938F939F9359
S11303D0AF93BF93EF93FF938EE291E00E94BA0034
S11303E0FF91EF91BF91AF919F918F917F916F9109
S11303F05F914F913F912F910F900FBE0F901F90DF
S113040018958EE291E00E947E0021E0892B09F488
S113041020E0822F0895EEE2F1E01382128288EE4A
S113042093E0A0E0B0E084839583A683B78381E161
S113043091E09183808385EC90E09587848784ECB8
S113044090E09787868780EC90E0918B808B81EC9D
S113045090E0938B828B82EC90E0958B848B86EC7E
S113046090E0978B868B118E128E138E148E0895C6
S113047008950E94E7020E9438020E945F00CCEABD
S1130480D0E00E946E002097E1F30E94AC00F9CF07
S1130490CF92DF92EF92FF920F931F93CF93DF934C
S11304A06C017A018B01C0E0D0E0CE15DF0581F04C
S11304B0D8016D918D01D601ED91FC910190F081EF
S11304C0E02DC6010995892B11F02196EECF7E010E
S11304D0C701DF91CF911F910F91FF90EF90DF90B3
S11304E0CF9008956115710579F0FB01019000200A
S11304F0E9F73197AF01461B570BDC01ED91FC91F5
S11305000280F381E02D099480E090E008956DE18C
S113051071E00C9472020F931F93CF93DF93EC015D
S11305200E9472028C01CE010E948702800F911FEB
S1130530DF91CF911F910F9108951F920F920FB6E3
S11305400F9211242F933F938F939F93AF93BF9355
S11305508091CC019091CD01A091CE01B091CF01B9
S11305603091CB0123E0230F2D3720F40196A11DF8
S1130570B11D05C026E8230F0296A11DB11D2093CD
S1130580CB018093CC019093CD01A093CE01B09385
S1130590CF018091D0019091D101A091D201B0916D
S11305A0D3010196A11DB11D8093D0019093D10177
S11305B0A093D201B093D301BF91AF919F918F913A
S11305C03F912F910F900FBE0F901F901895789424
S11305D084B5826084BD84B5816084BD85B5826044
S11305E085BD85B5816085BDEEE6F0E080818160E2
S11305F08083E1E8F0E010828081826080838081E2
S113060081608083E0E8F0E0808181608083E1EBB9
S1130610F0E0808184608083E0EBF0E080818160A1
S11306208083EAE7F0E08081846080838081826057
S11306308083808181608083808180688083109240
S1130640C1000895A1E21A2EAA1BBB1BFD010DC017
S1130650AA1FBB1FEE1FFF1FA217B307E407F5076E
S113066020F0A21BB30BE40BF50B661F771F881F4A
S1130670991F1A9469F760957095809590959B01E0
S1130680AC01BD01CF010895EE0FFF1F0590F49159
S10B0690E02D0994F894FFCF5A
S113069848656C6C6F20776F726C642100000000F1
S11306A800DB0048027E0098008A0022010D0A003F
S11106B86E616E00696E66006F7666002E003D
S9030000FC
