:100000000C945D000C947A000C947A000C947A00A5
:100010000C947A000C947A000C947A000C947A0078
:100020000C947A000C947A000C947A000C947A0068
:100030000C947A000C947A000C947A000C947A0058
:100040000C94CF010C947A000C947A000C947A00F2
:100050000C947A000C947A000C947A000C947A0038
:100060000C947A000C947A00000000080002010051
:100070000003040700000000000000000102040863
:100080001020408001020408102001020408102002
:10009000040404040404040402020202020203032E
:1000A0000303030300000000250028002B000000CC
:1000B0000000240027002A007D0111241FBECFEF7D
:1000C000D8E0DEBFCDBF21E0A0E0B1E001C01D92CD
:1000D000AE31B207E1F710E0CDE5D0E004C02197E2
:1000E000FE010E94E802CC35D107C9F70E94C00189
:1000F0000C94EE020C9400008EBD00000DB407FEBF
:10010000FDCF8EB50895FC01683008F067E060838C
:1001100041838FEF9FEF9383828311861086158230
:1001200014821782168208950F931F93CF93DF9343
:10013000EC01062F142F60E089810E94B9028881AA
:10014000880F80640E947C00802F0E947C00812F99
:100150000E947C0061E08981DF91CF911F910F9116
:100160000C94B902CF93DF93EC0161E089810E9486
:100170007D0261E089810E94B9020E94890148E004
:100180006AE0CE01DF91CF910C949400FF920F931F
:100190001F93CF93DF93EC01F62E8A0160E08981F3
:1001A0000E94B9028881880F80640E947C008F2D94
:1001B0000E947C00802F0E947C00812F0E947C0086
:1001C00061E08981DF91CF911F910F91FF900C9495
:1001D000B9020F931F93CF93DF93EC018B01AB0117
:1001E00060E00E94C6001B830A83DF91CF911F91BC
:1001F0000F9108950F931F93CF93DF93EC018B0121
:10020000AB016CE00E94C6001D830C83DF91CF918F
:100210001F910F9108950F931F93CF93DF93EC01DC
:100220008B01AB0162E00E94C6001F830E83DF9149
:10023000CF911F910F9108950F931F93CF93DF9349
:10024000EC018B01AB0162E10E94C60019870887AF
:10025000DF91CF911F910F9108950F931F93CF932B
:10026000DF938C0160E0FC0181810E94B902F801FA
:100270008081880F81640E947C0082E10E947C0062
:1002800080E00E947C00C82FD0E080E00E947C00CB
:10029000D82B61E0F80181810E94B902CE01DF9183
:1002A000CF911F910F9108958AE091E00E94B200D2
:1002B00080E091E00E94B2006FEF7FEF8AE091E072
:1002C0000E94E9006FEF7FEF8AE091E00E94FA0060
:1002D0006FEF7FEF8AE091E00E940B0160E070E039
:1002E00080E091E00C94E9008AE091E00E942D0109
:1002F000BC0180E091E00C941C014AE061E08AE0DE
:1003000091E00E9483004AE062E080E091E00C947A
:100310008300CF93CFB7F89480911401811127C047
:10032000EAE9F0E08491E6E8F0E09491E82FF0E06B
:10033000EE0FFF1FE255FF4FA591B491EC91E92319
:1003400021F461E08AE00E94B90261E08AE00E9443
:100350007D028CB580618CBD8CB580648CBD61E004
:100360008DE00E947D0261E08BE00E947D02809121
:1003700014018F5F80931401CFBFCF91089508952A
:100380000E9419020E94BF010E945401C0E0D0E007
:100390000E9474012097E1F30E940000F9CF1F92A0
:1003A0000F920FB60F9211242F933F938F939F9329
:1003B000AF93BF938091160190911701A0911801FE
:1003C000B09119013091150123E0230F2D3720F44E
:1003D0000196A11DB11D05C026E8230F0296A11D9F
:1003E000B11D209315018093160190931701A093DE
:1003F0001801B093190180911A0190911B01A091ED
:100400001C01B0911D010196A11DB11D80931A011F
:1004100090931B01A0931C01B0931D01BF91AF915C
:100420009F918F913F912F910F900FBE0F901F9032
:100430001895789484B5826084BD84B5816084BD4C
:1004400085B5826085BD85B5816085BDEEE6F0E04D
:10045000808181608083E1E8F0E0108280818260A9
:100460008083808181608083E0E8F0E0808181602A
:100470008083E1EBF0E0808184608083E0EBF0E05A
:10048000808181608083EAE7F0E0808184608083FE
:1004900080818260808380818160808380818068A8
:1004A00080831092C1000895833081F028F4813058
:1004B00099F08230A1F008958730A9F08830B9F022
:1004C0008430D1F4809180008F7D03C080918000C2
:1004D0008F7780938000089584B58F7702C084B5AC
:1004E0008F7D84BD08958091B0008F7703C0809187
:1004F000B0008F7D8093B0000895CF93DF9390E09C
:10050000FC01E458FF4F2491FC01E057FF4F849118
:10051000882361F190E0880F991FFC01E255FF4F9D
:10052000C591D491FC01EC55FF4FA591B491611197
:1005300009C09FB7F8948881209582238883EC9125
:100540002E230BC0623061F49FB7F8948881322F5C
:10055000309583238883EC912E2B2C939FBF06C06C
:100560008FB7F894E8812E2B28838FBFDF91CF912E
:1005700008951F93CF93DF93282F30E0F901E859B6
:10058000FF4F8491F901E458FF4FD491F901E057EE
:10059000FF4FC491CC23C1F0162F81110E94540249
:1005A000EC2FF0E0EE0FFF1FEC55FF4FA591B4913B
:1005B0009FB7F894111104C08C91D095D82302C034
:1005C000EC91DE2BDC939FBFDF91CF911F910895BB
:1005D000EE0FFF1F0590F491E02D0994F894FFCFE2
:00000001FF
